{
  "contractName": "ChainlinkOracleIterator",
  "abi": [
    {
      "inputs": [],
      "name": "NEGATIVE_INFINITY",
      "outputs": [
        {
          "internalType": "int256",
          "name": "",
          "type": "int256"
        }
      ],
      "stateMutability": "view",
      "type": "function",
      "constant": true
    },
    {
      "inputs": [],
      "name": "isOracleIterator",
      "outputs": [
        {
          "internalType": "bool",
          "name": "",
          "type": "bool"
        }
      ],
      "stateMutability": "pure",
      "type": "function",
      "constant": true
    },
    {
      "inputs": [],
      "name": "symbol",
      "outputs": [
        {
          "internalType": "string",
          "name": "",
          "type": "string"
        }
      ],
      "stateMutability": "pure",
      "type": "function",
      "constant": true
    },
    {
      "inputs": [
        {
          "internalType": "address",
          "name": "_oracle",
          "type": "address"
        },
        {
          "internalType": "uint256",
          "name": "_timestamp",
          "type": "uint256"
        },
        {
          "internalType": "uint256[]",
          "name": "_roundHints",
          "type": "uint256[]"
        }
      ],
      "name": "getUnderlingValue",
      "outputs": [
        {
          "internalType": "int256",
          "name": "",
          "type": "int256"
        }
      ],
      "stateMutability": "view",
      "type": "function",
      "constant": true
    }
  ],
  "bytecode": "0x608060405234801561001057600080fd5b50610829806100206000396000f3fe608060405234801561001057600080fd5b506004361061004c5760003560e01c806312df4d3e146100515780634dcd7dee1461006d57806376d68cb61461008757806395d89b411461014c575b600080fd5b6100596101c9565b604080519115158252519081900360200190f35b6100756101ce565b60408051918252519081900360200190f35b6100756004803603606081101561009d57600080fd5b73ffffffffffffffffffffffffffffffffffffffff823516916020810135918101906060810160408201356401000000008111156100da57600080fd5b8201836020820111156100ec57600080fd5b8035906020019184602083028401116401000000008311171561010e57600080fd5b9190808060200260200160405190810160405280939291908181526020018383602002808284376000920191909152509295506101f2945050505050565b610154610723565b6040805160208082528351818301528351919283929083019185019080838360005b8381101561018e578181015183820152602001610176565b50505050905090810190601f1680156101bb5780820380516001836020036101000a031916815260200191505b509250505060405180910390f35b600190565b7f800000000000000000000000000000000000000000000000000000000000000081565b600080831161026257604080517f08c379a000000000000000000000000000000000000000000000000000000000815260206004820152600e60248201527f5a65726f2074696d657374616d70000000000000000000000000000000000000604482015290519081900360640190fd5b73ffffffffffffffffffffffffffffffffffffffff84166102e457604080517f08c379a000000000000000000000000000000000000000000000000000000000815260206004820152600b60248201527f5a65726f206f7261636c65000000000000000000000000000000000000000000604482015290519081900360640190fd5b815160011461035457604080517f08c379a000000000000000000000000000000000000000000000000000000000815260206004820152601560248201527f57726f6e67206e756d626572206f662068696e74730000000000000000000000604482015290519081900360640190fd5b600084905060008173ffffffffffffffffffffffffffffffffffffffff1663feaf968c6040518163ffffffff1660e01b815260040160a06040518083038186803b1580156103a157600080fd5b505afa1580156103b5573d6000803e3d6000fd5b505050506040513d60a08110156103cb57600080fd5b5051905060006103e669ffffffffffffffffffff831661075a565b8161ffff169150508091505060008560008151811061040157fe5b6020026020010151905060008169ffffffffffffffffffff161161048657604080517f08c379a000000000000000000000000000000000000000000000000000000000815260206004820152600960248201527f5a65726f2068696e740000000000000000000000000000000000000000000000604482015290519081900360640190fd5b6104908183610762565b6000808573ffffffffffffffffffffffffffffffffffffffff16639a6fc8f5846040518263ffffffff1660e01b8152600401808269ffffffffffffffffffff16815260200191505060a06040518083038186803b1580156104f057600080fd5b505afa158015610504573d6000803e3d6000fd5b505050506040513d60a081101561051a57600080fd5b5060208101516060909101519092509050801580159061053a5750888111155b6105a557604080517f08c379a000000000000000000000000000000000000000000000000000000000815260206004820152600e60248201527f496e636f72726563742068696e74000000000000000000000000000000000000604482015290519081900360640190fd5b60008569ffffffffffffffffffff168460010169ffffffffffffffffffff16116106d1578673ffffffffffffffffffffffffffffffffffffffff16639a6fc8f5856001016040518263ffffffff1660e01b8152600401808269ffffffffffffffffffff16815260200191505060a06040518083038186803b15801561062957600080fd5b505afa15801561063d573d6000803e3d6000fd5b505050506040513d60a081101561065357600080fd5b5060600151905080158061066657508981115b6106d157604080517f08c379a000000000000000000000000000000000000000000000000000000000815260206004820152601260248201527f4c6174657220726f756e64206578697374730000000000000000000000000000604482015290519081900360640190fd5b8015806106dd57508981115b156106f1578297505050505050505061071c565b7f80000000000000000000000000000000000000000000000000000000000000009750505050505050505b9392505050565b60408051808201909152601181527f436861696e6c696e6b4974657261746f72000000000000000000000000000000602082015290565b604081901c91565b60006107798369ffffffffffffffffffff1661075a565b5061ffff1690508181146107ee57604080517f08c379a000000000000000000000000000000000000000000000000000000000815260206004820152601060248201527f57726f6e672068696e7420706861736500000000000000000000000000000000604482015290519081900360640190fd5b50505056fea2646970667358221220d03054e99153e4a3916cdf85387f61a9113eacd8eb73fd1135cef03d872d6bc264736f6c634300060c0033",
  "immutableReferences": {},
  "source": "// \"SPDX-License-Identifier: GNU General Public License v3.0\"\n\npragma solidity 0.6.12;\n\nimport \"@openzeppelin/contracts/math/SafeMath.sol\";\nimport \"@chainlink/contracts/src/v0.6/interfaces/AggregatorV3Interface.sol\";\nimport \"./IOracleIterator.sol\";\n\ncontract ChainlinkOracleIterator is IOracleIterator {\n    using SafeMath for uint256;\n\n    uint256 constant private PHASE_OFFSET = 64;\n    int public constant NEGATIVE_INFINITY = type(int256).min;\n\n    function isOracleIterator() external override pure returns(bool) {\n        return true;\n    }\n\n    function symbol() external override pure returns (string memory) {\n        return \"ChainlinkIterator\";\n    }\n\n    function getUnderlingValue(address _oracle, uint _timestamp, uint[] memory _roundHints) public override view returns(int) {\n        require(_timestamp > 0, \"Zero timestamp\");\n        require(_oracle != address(0), \"Zero oracle\");\n        require(_roundHints.length == 1, \"Wrong number of hints\");\n        AggregatorV3Interface oracle = AggregatorV3Interface(_oracle);\n\n        uint80 latestRoundId;\n        (latestRoundId,,,,) = oracle.latestRoundData();\n\n        uint256 phaseId;\n        (phaseId,) = parseIds(latestRoundId);\n\n        uint80 roundHint = uint80(_roundHints[0]);\n        require(roundHint > 0, \"Zero hint\");\n        requirePhaseFor(roundHint, phaseId);\n\n        int256 hintAnswer;\n        uint256 hintTimestamp;\n        (,hintAnswer,,hintTimestamp,) = oracle.getRoundData(roundHint);\n\n        require(hintTimestamp > 0 && hintTimestamp <= _timestamp, 'Incorrect hint');\n\n        uint256 timestampNext = 0;\n        if(roundHint + 1 <= latestRoundId) {\n            (,,,timestampNext,) = oracle.getRoundData(roundHint + 1);\n            require(timestampNext == 0 || timestampNext > _timestamp, \"Later round exists\");\n        }\n\n        if(timestampNext == 0 || timestampNext > _timestamp){\n            return hintAnswer;\n        }\n\n        return NEGATIVE_INFINITY;\n    }\n\n    function requirePhaseFor(uint80 _roundHint, uint256 _phase)\n    internal\n    pure\n    {\n        uint256 currentPhaseId;\n        (currentPhaseId,) = parseIds(_roundHint);\n        require(currentPhaseId == _phase, \"Wrong hint phase\");\n    }\n\n    function parseIds(\n        uint256 _roundId\n    )\n    internal\n    pure\n    returns (uint16, uint64)\n    {\n        uint16 phaseId = uint16(_roundId >> PHASE_OFFSET);\n        uint64 aggregatorRoundId = uint64(_roundId);\n\n        return (phaseId, aggregatorRoundId);\n    }\n}\n",
  "sourcePath": "/Users/achiko/Documents/elva/projects/compli.fi/complifi-protocol/contracts/oracleIterators/ChainlinkOracleIterator.sol",
  "compiler": {
    "name": "solc",
    "version": "0.6.12+commit.27d51765.Emscripten.clang"
  },
  "schemaVersion": "3.3.1",
  "updatedAt": "2020-11-03T13:23:46.095Z",
  "networkType": "ethereum",
  "devdoc": {
    "kind": "dev",
    "methods": {
      "getUnderlingValue(address,uint256,uint256[])": {
        "params": {
          "_oracle": "iteratable oracle through",
          "_roundHints": "specified rounds for a given timestamp",
          "_timestamp": "a given timestamp"
        },
        "returns": {
          "_0": "the value closest to a given timestamp"
        }
      },
      "isOracleIterator()": {
        "details": "Verifies that contract is a oracle iterator contract",
        "returns": {
          "_0": "true if contract is a oracle iterator contract"
        }
      },
      "symbol()": {
        "details": "Should be resolved through OracleIteratorRegistry contract",
        "returns": {
          "_0": "oracle iterator symbol"
        }
      }
    },
    "version": 1
  },
  "userdoc": {
    "kind": "user",
    "methods": {
      "isOracleIterator()": {
        "notice": "Proof of oracle iterator contract"
      },
      "symbol()": {
        "notice": "Symbol of the oracle iterator"
      }
    },
    "version": 1
  }
}