{
  "contractName": "ChainlinkOracleIteratorV1",
  "abi": [
    {
      "inputs": [],
      "name": "NEGATIVE_INFINITY",
      "outputs": [
        {
          "internalType": "int256",
          "name": "",
          "type": "int256"
        }
      ],
      "stateMutability": "view",
      "type": "function"
    },
    {
      "inputs": [],
      "name": "isOracleIterator",
      "outputs": [
        {
          "internalType": "bool",
          "name": "",
          "type": "bool"
        }
      ],
      "stateMutability": "pure",
      "type": "function"
    },
    {
      "inputs": [],
      "name": "symbol",
      "outputs": [
        {
          "internalType": "string",
          "name": "",
          "type": "string"
        }
      ],
      "stateMutability": "view",
      "type": "function"
    },
    {
      "inputs": [
        {
          "internalType": "address",
          "name": "_oracle",
          "type": "address"
        },
        {
          "internalType": "uint256",
          "name": "_timestamp",
          "type": "uint256"
        },
        {
          "internalType": "uint256",
          "name": "_roundHint",
          "type": "uint256"
        }
      ],
      "name": "getUnderlingValue",
      "outputs": [
        {
          "internalType": "int256",
          "name": "",
          "type": "int256"
        }
      ],
      "stateMutability": "view",
      "type": "function"
    }
  ],
  "bytecode": "0x608060405234801561001057600080fd5b50610760806100206000396000f3fe608060405234801561001057600080fd5b506004361061004c5760003560e01c806312df4d3e146100515780634dcd7dee1461006d57806395d89b4114610087578063f9db70e114610104575b600080fd5b610059610143565b604080519115158252519081900360200190f35b610075610148565b60408051918252519081900360200190f35b61008f61016c565b6040805160208082528351818301528351919283929083019185019080838360005b838110156100c95781810151838201526020016100b1565b50505050905090810190601f1680156100f65780820380516001836020036101000a031916815260200191505b509250505060405180910390f35b6100756004803603606081101561011a57600080fd5b5073ffffffffffffffffffffffffffffffffffffffff81351690602081013590604001356101a3565b600190565b7f800000000000000000000000000000000000000000000000000000000000000081565b60408051808201909152601181527f436861696e6c696e6b4974657261746f72000000000000000000000000000000602082015290565b600080831161021357604080517f08c379a000000000000000000000000000000000000000000000000000000000815260206004820152600e60248201527f5a65726f2074696d657374616d70000000000000000000000000000000000000604482015290519081900360640190fd5b73ffffffffffffffffffffffffffffffffffffffff841661029557604080517f08c379a000000000000000000000000000000000000000000000000000000000815260206004820152600f60248201527f4e756c6c61626c65206f7261636c650000000000000000000000000000000000604482015290519081900360640190fd5b8382156104d45760008173ffffffffffffffffffffffffffffffffffffffff1663b633620c856040518263ffffffff1660e01b81526004018082815260200191505060206040518083038186803b1580156102ef57600080fd5b505afa158015610303573d6000803e3d6000fd5b505050506040513d602081101561031957600080fd5b5051604080517fb633620c000000000000000000000000000000000000000000000000000000008152600187016004820152905191925060009173ffffffffffffffffffffffffffffffffffffffff85169163b633620c916024808301926020929190829003018186803b15801561039057600080fd5b505afa1580156103a4573d6000803e3d6000fd5b505050506040513d60208110156103ba57600080fd5b5051905081158015906103cd5750858211155b80156103e057508015806103e057508581115b1561046d578273ffffffffffffffffffffffffffffffffffffffff1663b5ab58dc866040518263ffffffff1660e01b81526004018082815260200191505060206040518083038186803b15801561043657600080fd5b505afa15801561044a573d6000803e3d6000fd5b505050506040513d602081101561046057600080fd5b5051935061072392505050565b604080517f08c379a000000000000000000000000000000000000000000000000000000000815260206004820152600e60248201527f496e636f72726563742068696e74000000000000000000000000000000000000604482015290519081900360640190fd5b6000808273ffffffffffffffffffffffffffffffffffffffff1663668a0f026040518163ffffffff1660e01b815260040160206040518083038186803b15801561051d57600080fd5b505afa158015610531573d6000803e3d6000fd5b505050506040513d602081101561054757600080fd5b505160010190505b6001810390508273ffffffffffffffffffffffffffffffffffffffff1663b633620c826040518263ffffffff1660e01b81526004018082815260200191505060206040518083038186803b1580156105a657600080fd5b505afa1580156105ba573d6000803e3d6000fd5b505050506040513d60208110156105d057600080fd5b5051915085821180156105e35750600081115b61054f57801580156106705750858373ffffffffffffffffffffffffffffffffffffffff1663b633620c836040518263ffffffff1660e01b81526004018082815260200191505060206040518083038186803b15801561064257600080fd5b505afa158015610656573d6000803e3d6000fd5b505050506040513d602081101561066c57600080fd5b5051115b156106a0577f80000000000000000000000000000000000000000000000000000000000000009350505050610723565b8273ffffffffffffffffffffffffffffffffffffffff1663b5ab58dc826040518263ffffffff1660e01b81526004018082815260200191505060206040518083038186803b1580156106f157600080fd5b505afa158015610705573d6000803e3d6000fd5b505050506040513d602081101561071b57600080fd5b505193505050505b939250505056fea2646970667358221220f0ea10dd500988d40bce4673f5f21cabea1807699fda2ad4371948c652fdf06664736f6c634300060c0033",
  "immutableReferences": {},
  "source": "// \"SPDX-License-Identifier: GNU General Public License v3.0\"\n\npragma solidity >=0.4.21 <0.7.0;\n\nimport \"@chainlink/contracts/src/v0.6/interfaces/AggregatorInterface.sol\";\nimport \"./IOracleIteratorV1.sol\";\n\ncontract ChainlinkOracleIteratorV1 is IOracleIteratorV1 {\n    int public constant NEGATIVE_INFINITY = type(int256).min;\n\n    function isOracleIterator() external override pure returns(bool) {\n        return true;\n    }\n\n    function symbol() external override view returns (string memory) {\n        return \"ChainlinkIterator\";\n    }\n\n    function getUnderlingValue(address _oracle, uint _timestamp, uint _roundHint) public override view returns(int) {\n        require(_timestamp > 0, \"Zero timestamp\");\n        require(_oracle != address(0), \"Nullable oracle\");\n        AggregatorInterface oracle = AggregatorInterface(_oracle);\n\n        if(_roundHint > 0) {\n            uint roundHintTimestamp = oracle.getTimestamp(_roundHint);\n            uint nextRoundHintTimestamp = oracle.getTimestamp(_roundHint + 1);\n\n            if(roundHintTimestamp > 0 && roundHintTimestamp <= _timestamp &&\n                (nextRoundHintTimestamp == 0 || nextRoundHintTimestamp > _timestamp)) {\n                return oracle.getAnswer(_roundHint);\n            } else {\n                revert('Incorrect hint');\n            }\n        }\n\n        uint roundTimestamp = 0;\n        uint roundId = oracle.latestRound() + 1;\n\n        do {\n            roundId -= 1;\n            roundTimestamp = oracle.getTimestamp(roundId);\n        } while(roundTimestamp > _timestamp && roundId > 0);\n\n        if(roundId == 0 && oracle.getTimestamp(roundId) > _timestamp) {\n            return NEGATIVE_INFINITY;\n        }\n\n        return oracle.getAnswer(roundId);\n    }\n}\n",
  "sourcePath": "/Users/achiko/Documents/elva/projects/compli.fi/complifi-protocol/contracts/oracleIterators/ChainlinkOracleIteratorV1.sol",
  "compiler": {
    "name": "solc",
    "version": "0.6.12+commit.27d51765.Emscripten.clang"
  },
  "schemaVersion": "3.3.1",
  "updatedAt": "2020-11-03T13:08:28.477Z",
  "devdoc": {
    "kind": "dev",
    "methods": {
      "getUnderlingValue(address,uint256,uint256)": {
        "params": {
          "_oracle": "iteratable oracle through",
          "_roundHint": "specified round for a given timestamp",
          "_timestamp": "a given timestamp"
        },
        "returns": {
          "_0": "the value closest to a given timestamp"
        }
      },
      "isOracleIterator()": {
        "details": "Verifies that contract is a oracle iterator contract",
        "returns": {
          "_0": "true if contract is a oracle iterator contract"
        }
      },
      "symbol()": {
        "details": "Should be resolved through OracleIteratorRegistry contract",
        "returns": {
          "_0": "oracle iterator symbol"
        }
      }
    },
    "version": 1
  },
  "userdoc": {
    "kind": "user",
    "methods": {
      "isOracleIterator()": {
        "notice": "Proof of oracle iterator contract"
      },
      "symbol()": {
        "notice": "Symbol of the oracle iterator"
      }
    },
    "version": 1
  }
}