{
  "contractName": "DerivativeSpecification",
  "abi": [
    {
      "inputs": [
        {
          "internalType": "address",
          "name": "_author",
          "type": "address"
        },
        {
          "internalType": "string",
          "name": "_name",
          "type": "string"
        },
        {
          "internalType": "string",
          "name": "_symbol",
          "type": "string"
        },
        {
          "internalType": "bytes32[]",
          "name": "_oracleSymbols",
          "type": "bytes32[]"
        },
        {
          "internalType": "bytes32[]",
          "name": "_oracleIteratorSymbols",
          "type": "bytes32[]"
        },
        {
          "internalType": "bytes32",
          "name": "_collateralTokenSymbol",
          "type": "bytes32"
        },
        {
          "internalType": "bytes32",
          "name": "_collateralSplitSymbol",
          "type": "bytes32"
        },
        {
          "internalType": "uint256",
          "name": "_mintingPeriod",
          "type": "uint256"
        },
        {
          "internalType": "uint256",
          "name": "_livePeriod",
          "type": "uint256"
        },
        {
          "internalType": "uint256",
          "name": "_primaryNominalValue",
          "type": "uint256"
        },
        {
          "internalType": "uint256",
          "name": "_complementNominalValue",
          "type": "uint256"
        },
        {
          "internalType": "uint256",
          "name": "_authorFee",
          "type": "uint256"
        },
        {
          "internalType": "string",
          "name": "_baseURI",
          "type": "string"
        }
      ],
      "stateMutability": "nonpayable",
      "type": "constructor"
    },
    {
      "inputs": [],
      "name": "isDerivativeSpecification",
      "outputs": [
        {
          "internalType": "bool",
          "name": "",
          "type": "bool"
        }
      ],
      "stateMutability": "pure",
      "type": "function"
    },
    {
      "inputs": [],
      "name": "name",
      "outputs": [
        {
          "internalType": "string",
          "name": "",
          "type": "string"
        }
      ],
      "stateMutability": "view",
      "type": "function"
    },
    {
      "inputs": [],
      "name": "baseURI",
      "outputs": [
        {
          "internalType": "string",
          "name": "",
          "type": "string"
        }
      ],
      "stateMutability": "view",
      "type": "function"
    },
    {
      "inputs": [],
      "name": "symbol",
      "outputs": [
        {
          "internalType": "string",
          "name": "",
          "type": "string"
        }
      ],
      "stateMutability": "view",
      "type": "function"
    },
    {
      "inputs": [],
      "name": "oracleSymbols",
      "outputs": [
        {
          "internalType": "bytes32[]",
          "name": "",
          "type": "bytes32[]"
        }
      ],
      "stateMutability": "view",
      "type": "function"
    },
    {
      "inputs": [],
      "name": "oracleIteratorSymbols",
      "outputs": [
        {
          "internalType": "bytes32[]",
          "name": "",
          "type": "bytes32[]"
        }
      ],
      "stateMutability": "view",
      "type": "function"
    },
    {
      "inputs": [],
      "name": "collateralTokenSymbol",
      "outputs": [
        {
          "internalType": "bytes32",
          "name": "",
          "type": "bytes32"
        }
      ],
      "stateMutability": "view",
      "type": "function"
    },
    {
      "inputs": [],
      "name": "collateralSplitSymbol",
      "outputs": [
        {
          "internalType": "bytes32",
          "name": "",
          "type": "bytes32"
        }
      ],
      "stateMutability": "view",
      "type": "function"
    },
    {
      "inputs": [],
      "name": "mintingPeriod",
      "outputs": [
        {
          "internalType": "uint256",
          "name": "",
          "type": "uint256"
        }
      ],
      "stateMutability": "view",
      "type": "function"
    },
    {
      "inputs": [],
      "name": "livePeriod",
      "outputs": [
        {
          "internalType": "uint256",
          "name": "",
          "type": "uint256"
        }
      ],
      "stateMutability": "view",
      "type": "function"
    },
    {
      "inputs": [],
      "name": "primaryNominalValue",
      "outputs": [
        {
          "internalType": "uint256",
          "name": "",
          "type": "uint256"
        }
      ],
      "stateMutability": "view",
      "type": "function"
    },
    {
      "inputs": [],
      "name": "complementNominalValue",
      "outputs": [
        {
          "internalType": "uint256",
          "name": "",
          "type": "uint256"
        }
      ],
      "stateMutability": "view",
      "type": "function"
    },
    {
      "inputs": [],
      "name": "authorFee",
      "outputs": [
        {
          "internalType": "uint256",
          "name": "",
          "type": "uint256"
        }
      ],
      "stateMutability": "view",
      "type": "function"
    },
    {
      "inputs": [],
      "name": "author",
      "outputs": [
        {
          "internalType": "address",
          "name": "",
          "type": "address"
        }
      ],
      "stateMutability": "view",
      "type": "function"
    }
  ],
  "bytecode": "0x60806040523480156200001157600080fd5b5060405162000ab438038062000ab483398181016040526101a08110156200003857600080fd5b8151602083018051604051929492938301929190846401000000008211156200006057600080fd5b9083019060208201858111156200007657600080fd5b82516401000000008111828201881017156200009157600080fd5b82525081516020918201929091019080838360005b83811015620000c0578181015183820152602001620000a6565b50505050905090810190601f168015620000ee5780820380516001836020036101000a031916815260200191505b50604052602001805160405193929190846401000000008211156200011257600080fd5b9083019060208201858111156200012857600080fd5b82516401000000008111828201881017156200014357600080fd5b82525081516020918201929091019080838360005b838110156200017257818101518382015260200162000158565b50505050905090810190601f168015620001a05780820380516001836020036101000a031916815260200191505b5060405260200180516040519392919084640100000000821115620001c457600080fd5b908301906020820185811115620001da57600080fd5b8251866020820283011164010000000082111715620001f857600080fd5b82525081516020918201928201910280838360005b83811015620002275781810151838201526020016200020d565b50505050905001604052602001805160405193929190846401000000008211156200025157600080fd5b9083019060208201858111156200026757600080fd5b82518660208202830111640100000000821117156200028557600080fd5b82525081516020918201928201910280838360005b83811015620002b45781810151838201526020016200029a565b505050509190910160408181526020840151908401516060850151608086015160a087015160c088015160e08901516101009099018051969b959a949993985091969095929490939092909190846401000000008211156200031557600080fd5b9083019060208201858111156200032b57600080fd5b82516401000000008111828201881017156200034657600080fd5b82525081516020918201929091019080838360005b83811015620003755781810151838201526020016200035b565b50505050905090810190601f168015620003a35780820380516001836020036101000a031916815260200191505b506040525050508c600c60006101000a8154816001600160a01b0302191690836001600160a01b031602179055508b600a9080519060200190620003e992919062000478565b508a51620003ff9060009060208e019062000478565b508951620004159060019060208d0190620004fd565b5088516200042b9060029060208c0190620004fd565b50600388905560048790556005869055600685905560078490556008839055600982905580516200046490600b90602084019062000478565b505050505050505050505050505062000551565b828054600181600116156101000203166002900490600052602060002090601f016020900481019282601f10620004bb57805160ff1916838001178555620004eb565b82800160010185558215620004eb579182015b82811115620004eb578251825591602001919060010190620004ce565b50620004f99291506200053a565b5090565b828054828255906000526020600020908101928215620004eb5791602002820182811115620004eb578251825591602001919060010190620004ce565b5b80821115620004f957600081556001016200053b565b61055380620005616000396000f3fe608060405234801561001057600080fd5b50600436106100ea5760003560e01c8063ab56c5921161008c578063e9a17e3b11610066578063e9a17e3b14610253578063efeb3f7b1461025b578063f27b9b9f14610263578063f68698031461026b576100ea565b8063ab56c5921461023b578063c6bb30e214610243578063de47f50b1461024b576100ea565b80636e1622f2116100c85780636e1622f2146101cc578063739ec292146101e857806395d89b4114610202578063a6c3e6b91461020a576100ea565b806306fdde03146100ef57806335e8376a1461016c5780636c0360eb146101c4575b600080fd5b6100f7610273565b6040805160208082528351818301528351919283929083019185019080838360005b83811015610131578181015183820152602001610119565b50505050905090810190601f16801561015e5780820380516001836020036101000a031916815260200191505b509250505060405180910390f35b610174610327565b60408051602080825283518183015283519192839290830191858101910280838360005b838110156101b0578181015183820152602001610198565b505050509050019250505060405180910390f35b6100f761037e565b6101d46103fd565b604080519115158252519081900360200190f35b6101f0610402565b60408051918252519081900360200190f35b6100f7610408565b610212610487565b6040805173ffffffffffffffffffffffffffffffffffffffff9092168252519081900360200190f35b6101f06104a3565b6101f06104a9565b6101f06104af565b6101746104b5565b6101f061050b565b6101f0610511565b6101f0610517565b600a8054604080516020601f60027fffffffffffffffffffffffffffffffffffffffffffffffffffffffffffffffff61010060018816150201909516949094049384018190048102820181019092528281526060939092909183018282801561031d5780601f106102f25761010080835404028352916020019161031d565b820191906000526020600020905b81548152906001019060200180831161030057829003601f168201915b5050505050905090565b6060600280548060200260200160405190810160405280929190818152602001828054801561031d57602002820191906000526020600020905b815481526020019060010190808311610361575050505050905090565b600b8054604080516020601f60027fffffffffffffffffffffffffffffffffffffffffffffffffffffffffffffffff61010060018816150201909516949094049384018190048102820181019092528281526060939092909183018282801561031d5780601f106102f25761010080835404028352916020019161031d565b600190565b60055490565b60008054604080516020601f60027fffffffffffffffffffffffffffffffffffffffffffffffffffffffffffffffff61010060018816150201909516949094049384018190048102820181019092528281526060939092909183018282801561031d5780601f106102f25761010080835404028352916020019161031d565b600c5473ffffffffffffffffffffffffffffffffffffffff1690565b60085490565b60075490565b60095490565b6060600180548060200260200160405190810160405280929190818152602001828054801561031d5760200282019190600052602060002090815481526020019060010190808311610361575050505050905090565b60035490565b60045490565b6006549056fea26469706673582212209075661330a19eefef944ebd07bda6461bba86dc3a2b8e03e4783c10507acb6464736f6c634300060c0033",
  "immutableReferences": {},
  "source": "// \"SPDX-License-Identifier: GNU General Public License v3.0\"\n\npragma solidity >=0.4.21 <0.7.0;\n\nimport \"@chainlink/contracts/src/v0.6/interfaces/AggregatorInterface.sol\";\nimport \"./IDerivativeSpecification.sol\";\n\ncontract DerivativeSpecification is IDerivativeSpecification {\n\n    function isDerivativeSpecification() external override pure returns(bool) {\n        return true;\n    }\n\n    string internal symbol_;\n\n    bytes32[] internal oracleSymbols_;\n    bytes32[] internal oracleIteratorSymbols_;\n    bytes32 internal collateralTokenSymbol_;\n    bytes32 internal collateralSplitSymbol_;\n\n    uint internal mintingPeriod_;\n    uint internal livePeriod_;\n\n    uint internal primaryNominalValue_;\n    uint internal complementNominalValue_;\n\n    uint internal authorFee_;\n\n    string internal name_;\n    string private baseURI_;\n    address internal author_;\n\n    function name() external view override virtual returns (string memory){\n        return name_;\n    }\n\n    function baseURI() external view override virtual returns (string memory){\n        return baseURI_;\n    }\n\n    function symbol() external view override virtual returns (string memory){\n        return symbol_;\n    }\n\n    function oracleSymbols() external view override virtual returns (bytes32[] memory){\n        return oracleSymbols_;\n    }\n\n    function oracleIteratorSymbols() external view override virtual returns (bytes32[] memory){\n        return oracleIteratorSymbols_;\n    }\n\n    function collateralTokenSymbol() external view override virtual returns (bytes32){\n        return collateralTokenSymbol_;\n    }\n\n    function collateralSplitSymbol() external view override virtual returns (bytes32){\n        return collateralSplitSymbol_;\n    }\n\n    function mintingPeriod() external view override virtual returns (uint){\n        return mintingPeriod_;\n    }\n    function livePeriod() external view override virtual returns (uint){\n        return livePeriod_;\n    }\n\n    function primaryNominalValue() external view override virtual returns (uint){\n        return primaryNominalValue_;\n    }\n\n    function complementNominalValue() external view override virtual  returns (uint){\n        return complementNominalValue_;\n    }\n\n    function authorFee() external view override virtual returns (uint){\n        return authorFee_;\n    }\n\n    function author() external view override virtual returns (address){\n        return author_;\n    }\n\n    constructor (\n        address _author,\n        string memory _name,\n        string memory _symbol,\n        bytes32[] memory _oracleSymbols,\n        bytes32[] memory _oracleIteratorSymbols,\n        bytes32 _collateralTokenSymbol,\n        bytes32 _collateralSplitSymbol,\n        uint _mintingPeriod,\n        uint _livePeriod,\n        uint _primaryNominalValue,\n        uint _complementNominalValue,\n        uint _authorFee,\n        string memory _baseURI ) public {\n\n        author_ = _author;\n        name_ = _name;\n        symbol_ = _symbol;\n        oracleSymbols_ = _oracleSymbols;\n        oracleIteratorSymbols_ = _oracleIteratorSymbols;\n        collateralTokenSymbol_ = _collateralTokenSymbol;\n        collateralSplitSymbol_ = _collateralSplitSymbol;\n        mintingPeriod_ = _mintingPeriod;\n        livePeriod_ = _livePeriod;\n        primaryNominalValue_ = _primaryNominalValue;\n        complementNominalValue_ = _complementNominalValue;\n        authorFee_ = _authorFee;\n        baseURI_ = _baseURI;\n    }\n}\n",
  "sourcePath": "/Users/achiko/Documents/elva/projects/compli.fi/complifi-protocol/contracts/DerivativeSpecification.sol",
  "compiler": {
    "name": "solc",
    "version": "0.6.12+commit.27d51765.Emscripten.clang"
  },
  "schemaVersion": "3.3.1",
  "updatedAt": "2020-11-03T13:08:28.212Z",
  "devdoc": {
    "kind": "dev",
    "methods": {
      "author()": {
        "details": "Used to set and receive author's fee",
        "returns": {
          "_0": "address of the author"
        }
      },
      "authorFee()": {
        "details": "Percentage fee multiplied by 10 ^ 12",
        "returns": {
          "_0": "author fee"
        }
      },
      "baseURI()": {
        "details": "Isn't used directly in the protocol",
        "returns": {
          "_0": "URI to the derivative specs"
        }
      },
      "collateralSplitSymbol()": {
        "details": "Should be resolved through CollateralSplitRegistry contract",
        "returns": {
          "_0": "collateral split symbol"
        }
      },
      "collateralTokenSymbol()": {
        "details": "Should be resolved through CollateralTokenRegistry contract",
        "returns": {
          "_0": "collateral token symbol"
        }
      },
      "complementNominalValue()": {
        "details": "Units of collateral theoretically swappable for 1 unit of complement asset",
        "returns": {
          "_0": "complement nominal value"
        }
      },
      "isDerivativeSpecification()": {
        "details": "Verifies that contract is a derivative specification",
        "returns": {
          "_0": "true if contract is a derivative specification"
        }
      },
      "livePeriod()": {
        "details": "Set in seconds",
        "returns": {
          "_0": "live period value"
        }
      },
      "mintingPeriod()": {
        "details": "Set in seconds",
        "returns": {
          "_0": "minting period value"
        }
      },
      "name()": {
        "details": "Isn't used directly in the protocol",
        "returns": {
          "_0": "long name"
        }
      },
      "oracleIteratorSymbols()": {
        "details": "Should be resolved through OracleIteratorRegistry contract",
        "returns": {
          "_0": "oracle iterator symbols"
        }
      },
      "oracleSymbols()": {
        "details": "Should be resolved through OracleRegistry contract",
        "returns": {
          "_0": "oracle symbols"
        }
      },
      "primaryNominalValue()": {
        "details": "Units of collateral theoretically swappable for 1 unit of primary asset",
        "returns": {
          "_0": "primary nominal value"
        }
      },
      "symbol()": {
        "details": "Should be resolved through DerivativeSpecificationRegistry contract",
        "returns": {
          "_0": "derivative specification symbol"
        }
      }
    },
    "version": 1
  },
  "userdoc": {
    "kind": "user",
    "methods": {
      "author()": {
        "notice": "Derivative spec author"
      },
      "authorFee()": {
        "notice": "Minting fee rate due to the author of the derivative specification."
      },
      "baseURI()": {
        "notice": "Optional URI to the derivative specs"
      },
      "collateralSplitSymbol()": {
        "notice": "Mapping from the change in the underlying variable (as defined by the oracle) and the initial collateral split to the final collateral split"
      },
      "collateralTokenSymbol()": {
        "notice": "Type of collateral that users submit to mint the derivative"
      },
      "complementNominalValue()": {
        "notice": "Parameter that determines starting nominal value of complement asset"
      },
      "isDerivativeSpecification()": {
        "notice": "Proof of a derivative specification"
      },
      "livePeriod()": {
        "notice": "Lifecycle parameter that define the length of the derivative's Live period."
      },
      "mintingPeriod()": {
        "notice": "Lifecycle parameter that define the length of the derivative's Minting period."
      },
      "name()": {
        "notice": "Return optional long name of the derivative"
      },
      "oracleIteratorSymbols()": {
        "notice": "Algorithm that, for the type of oracle used by the derivative, finds the value closest to a given timestamp"
      },
      "oracleSymbols()": {
        "notice": "Set of oracles that are relied upon to measure changes in the state of the world between the start and the end of the Live period"
      },
      "primaryNominalValue()": {
        "notice": "Parameter that determines starting nominal value of primary asset"
      },
      "symbol()": {
        "notice": "Symbol of the derivative"
      }
    },
    "version": 1
  }
}