{
  "contractName": "OracleIteratorDebugger",
  "abi": [
    {
      "inputs": [],
      "name": "underlingValue",
      "outputs": [
        {
          "internalType": "int256",
          "name": "",
          "type": "int256"
        }
      ],
      "stateMutability": "view",
      "type": "function"
    },
    {
      "inputs": [
        {
          "internalType": "address",
          "name": "_oracleIterator",
          "type": "address"
        },
        {
          "internalType": "address",
          "name": "_oracle",
          "type": "address"
        },
        {
          "internalType": "uint256",
          "name": "_timestamp",
          "type": "uint256"
        },
        {
          "internalType": "uint256[]",
          "name": "_roundHints",
          "type": "uint256[]"
        }
      ],
      "name": "updateUnderlingValue",
      "outputs": [],
      "stateMutability": "nonpayable",
      "type": "function"
    }
  ],
  "bytecode": "0x608060405234801561001057600080fd5b506103ca806100206000396000f3fe608060405234801561001057600080fd5b50600436106100365760003560e01c806326e6a72d1461003b578063fea05c8614610055575b600080fd5b610043610127565b60408051918252519081900360200190f35b6101256004803603608081101561006b57600080fd5b73ffffffffffffffffffffffffffffffffffffffff8235811692602081013590911691604082013591908101906080810160608201356401000000008111156100b357600080fd5b8201836020820111156100c557600080fd5b803590602001918460208302840111640100000000831117156100e757600080fd5b91908080602002602001604051908101604052809392919081815260200183836020028082843760009201919091525092955061012d945050505050565b005b60005481565b6000821161019c57604080517f08c379a000000000000000000000000000000000000000000000000000000000815260206004820152600e60248201527f5a65726f2074696d657374616d70000000000000000000000000000000000000604482015290519081900360640190fd5b73ffffffffffffffffffffffffffffffffffffffff831661021e57604080517f08c379a000000000000000000000000000000000000000000000000000000000815260206004820152600b60248201527f5a65726f206f7261636c65000000000000000000000000000000000000000000604482015290519081900360640190fd5b73ffffffffffffffffffffffffffffffffffffffff84166102a057604080517f08c379a000000000000000000000000000000000000000000000000000000000815260206004820152601460248201527f5a65726f206f7261636c65206974657261746f72000000000000000000000000604482015290519081900360640190fd5b6040517f76d68cb600000000000000000000000000000000000000000000000000000000815273ffffffffffffffffffffffffffffffffffffffff84811660048301908152602483018590526060604484019081528451606485015284518894938516936376d68cb693899389938993608401906020808601910280838360005b83811015610339578181015183820152602001610321565b5050505090500194505050505060206040518083038186803b15801561035e57600080fd5b505afa158015610372573d6000803e3d6000fd5b505050506040513d602081101561038857600080fd5b5051600055505050505056fea2646970667358221220c4bc60aef2dc9f029012b437715e55597232e9ef690ee9dc46b7f2c7a6224e7b64736f6c634300060c0033",
  "immutableReferences": {},
  "source": "// \"SPDX-License-Identifier: GNU General Public License v3.0\"\n\npragma solidity 0.6.12;\n\nimport \"./IOracleIterator.sol\";\n\ncontract OracleIteratorDebugger {\n\n    int public underlingValue;\n\n    function updateUnderlingValue(address _oracleIterator, address _oracle, uint _timestamp, uint[] memory _roundHints) public {\n        require(_timestamp > 0, \"Zero timestamp\");\n        require(_oracle != address(0), \"Zero oracle\");\n        require(_oracleIterator != address(0), \"Zero oracle iterator\");\n\n        IOracleIterator oracleIterator = IOracleIterator(_oracleIterator);\n        underlingValue = oracleIterator.getUnderlingValue(_oracle, _timestamp, _roundHints);\n    }\n}\n",
  "sourcePath": "/Users/achiko/Documents/elva/projects/compli.fi/complifi-protocol/contracts/oracleIterators/OracleIteratorDebugger.sol",
  "compiler": {
    "name": "solc",
    "version": "0.6.12+commit.27d51765.Emscripten.clang"
  },
  "schemaVersion": "3.3.1",
  "updatedAt": "2020-11-03T13:08:28.483Z",
  "devdoc": {
    "kind": "dev",
    "methods": {},
    "version": 1
  },
  "userdoc": {
    "kind": "user",
    "methods": {},
    "version": 1
  }
}