{
  "contractName": "ProxyFactory",
  "abi": [
    {
      "inputs": [],
      "stateMutability": "nonpayable",
      "type": "constructor"
    },
    {
      "anonymous": false,
      "inputs": [
        {
          "indexed": false,
          "internalType": "address",
          "name": "proxy",
          "type": "address"
        }
      ],
      "name": "ProxyCreated",
      "type": "event"
    },
    {
      "inputs": [
        {
          "internalType": "address",
          "name": "_logic",
          "type": "address"
        },
        {
          "internalType": "bytes",
          "name": "_data",
          "type": "bytes"
        }
      ],
      "name": "deployMinimal",
      "outputs": [
        {
          "internalType": "address",
          "name": "proxy",
          "type": "address"
        }
      ],
      "stateMutability": "nonpayable",
      "type": "function"
    },
    {
      "inputs": [
        {
          "internalType": "uint256",
          "name": "_salt",
          "type": "uint256"
        },
        {
          "internalType": "address",
          "name": "_logic",
          "type": "address"
        },
        {
          "internalType": "address",
          "name": "_admin",
          "type": "address"
        },
        {
          "internalType": "bytes",
          "name": "_data",
          "type": "bytes"
        }
      ],
      "name": "deploy",
      "outputs": [
        {
          "internalType": "address",
          "name": "",
          "type": "address"
        }
      ],
      "stateMutability": "nonpayable",
      "type": "function"
    },
    {
      "inputs": [
        {
          "internalType": "uint256",
          "name": "_salt",
          "type": "uint256"
        },
        {
          "internalType": "address",
          "name": "_logic",
          "type": "address"
        },
        {
          "internalType": "address",
          "name": "_admin",
          "type": "address"
        },
        {
          "internalType": "bytes",
          "name": "_data",
          "type": "bytes"
        },
        {
          "internalType": "bytes",
          "name": "_signature",
          "type": "bytes"
        }
      ],
      "name": "deploySigned",
      "outputs": [
        {
          "internalType": "address",
          "name": "",
          "type": "address"
        }
      ],
      "stateMutability": "nonpayable",
      "type": "function"
    },
    {
      "inputs": [
        {
          "internalType": "uint256",
          "name": "_salt",
          "type": "uint256"
        },
        {
          "internalType": "address",
          "name": "_sender",
          "type": "address"
        }
      ],
      "name": "getDeploymentAddress",
      "outputs": [
        {
          "internalType": "address",
          "name": "",
          "type": "address"
        }
      ],
      "stateMutability": "view",
      "type": "function"
    },
    {
      "inputs": [
        {
          "internalType": "uint256",
          "name": "_salt",
          "type": "uint256"
        },
        {
          "internalType": "address",
          "name": "_logic",
          "type": "address"
        },
        {
          "internalType": "address",
          "name": "_admin",
          "type": "address"
        },
        {
          "internalType": "bytes",
          "name": "_data",
          "type": "bytes"
        },
        {
          "internalType": "bytes",
          "name": "_signature",
          "type": "bytes"
        }
      ],
      "name": "getSigner",
      "outputs": [
        {
          "internalType": "address",
          "name": "",
          "type": "address"
        }
      ],
      "stateMutability": "view",
      "type": "function"
    }
  ],
  "bytecode": "0x608060405234801561001057600080fd5b5060405161002060208201610044565b601f1982820381018352601f90910116604052805160209190910120600055610051565b610ab1806117f983390190565b611799806100606000396000f3fe608060405234801561001057600080fd5b50600436106100675760003560e01c80636150864c116100505780636150864c1461034957806381ae1f5b1461041c578063b3eeb5e21461045557610067565b8063290f8f561461006c578063332d6626146101ef575b600080fd5b6101c6600480360360a081101561008257600080fd5b81359173ffffffffffffffffffffffffffffffffffffffff6020820135811692604083013590911691908101906080810160608201356401000000008111156100ca57600080fd5b8201836020820111156100dc57600080fd5b803590602001918460018302840111640100000000831117156100fe57600080fd5b91908080601f016020809104026020016040519081016040528093929190818152602001838380828437600092019190915250929594936020810193503591505064010000000081111561015157600080fd5b82018360208201111561016357600080fd5b8035906020019184600183028401116401000000008311171561018557600080fd5b91908080601f016020809104026020016040519081016040528093929190818152602001838380828437600092019190915250929550610518945050505050565b6040805173ffffffffffffffffffffffffffffffffffffffff9092168252519081900360200190f35b6101c6600480360360a081101561020557600080fd5b81359173ffffffffffffffffffffffffffffffffffffffff60208201358116926040830135909116919081019060808101606082013564010000000081111561024d57600080fd5b82018360208201111561025f57600080fd5b8035906020019184600183028401116401000000008311171561028157600080fd5b91908080601f01602080910402602001604051908101604052809392919081815260200183838082843760009201919091525092959493602081019350359150506401000000008111156102d457600080fd5b8201836020820111156102e657600080fd5b8035906020019184600183028401116401000000008311171561030857600080fd5b91908080601f016020809104026020016040519081016040528093929190818152602001838380828437600092019190915250929550610631945050505050565b6101c66004803603608081101561035f57600080fd5b81359173ffffffffffffffffffffffffffffffffffffffff6020820135811692604083013590911691908101906080810160608201356401000000008111156103a757600080fd5b8201836020820111156103b957600080fd5b803590602001918460018302840111640100000000831117156103db57600080fd5b91908080601f0160208091040260200160405190810160405280939291908181526020018383808284376000920191909152509295506106d2945050505050565b6101c66004803603604081101561043257600080fd5b508035906020013573ffffffffffffffffffffffffffffffffffffffff166106ea565b6101c66004803603604081101561046b57600080fd5b73ffffffffffffffffffffffffffffffffffffffff82351691908101906040810160208201356401000000008111156104a357600080fd5b8201836020820111156104b557600080fd5b803590602001918460018302840111640100000000831117156104d757600080fd5b91908080601f016020809104026020016040519081016040528093929190818152602001838380828437600092019190915250929550610776945050505050565b60008061061a8787878730604051602001808681526020018573ffffffffffffffffffffffffffffffffffffffff1660601b81526014018473ffffffffffffffffffffffffffffffffffffffff1660601b815260140183805190602001908083835b602083106105b757805182527fffffffffffffffffffffffffffffffffffffffffffffffffffffffffffffffe0909201916020918201910161057a565b6001836020036101000a0380198251168184511680821785525050505050509050018273ffffffffffffffffffffffffffffffffffffffff1660601b8152601401955050505050506040516020818303038152906040528051906020012061090f565b90506106268184610960565b979650505050505050565b6000806106418787878787610518565b905073ffffffffffffffffffffffffffffffffffffffff81166106c557604080517f08c379a000000000000000000000000000000000000000000000000000000000815260206004820152601160248201527f496e76616c6964207369676e6174757265000000000000000000000000000000604482015290519081900360640190fd5b6106268787878785610a6f565b60006106e18585858533610a6f565b95945050505050565b6000806106f78484610bdc565b600054604080517fff000000000000000000000000000000000000000000000000000000000000006020808301919091523060601b60218301526035820194909452605580820193909352815180820390930183526075019052805191012073ffffffffffffffffffffffffffffffffffffffff169150505b92915050565b6000808360601b90506040517f3d602d80600a3d3981f3363d3d373d3d3d363d7300000000000000000000000081528160148201527f5af43d82803e903d91602b57fd5bf3000000000000000000000000000000000060288201526037816000f06040805173ffffffffffffffffffffffffffffffffffffffff8316815290519194507efffc2da0b561cae30d9826d37709e9421c4725faebc226cbbb7ef5fc5e7349925081900360200190a18251156109085760008273ffffffffffffffffffffffffffffffffffffffff16846040518082805190602001908083835b6020831061089157805182527fffffffffffffffffffffffffffffffffffffffffffffffffffffffffffffffe09092019160209182019101610854565b6001836020036101000a0380198251168184511680821785525050505050509050019150506000604051808303816000865af19150503d80600081146108f3576040519150601f19603f3d011682016040523d82523d6000602084013e6108f8565b606091505b505090508061090657600080fd5b505b5092915050565b604080517f19457468657265756d205369676e6564204d6573736167653a0a333200000000602080830191909152603c8083019490945282518083039094018452605c909101909152815191012090565b6000815160411461097357506000610770565b60208201516040830151606084015160001a7f7fffffffffffffffffffffffffffffff5d576e7357a4501ddfe92f46681b20a08211156109b95760009350505050610770565b8060ff16601b141580156109d157508060ff16601c14155b156109e25760009350505050610770565b60018682858560405160008152602001604052604051808581526020018460ff1681526020018381526020018281526020019450505050506020604051602081039080840390855afa158015610a3c573d6000803e3d6000fd5b50506040517fffffffffffffffffffffffffffffffffffffffffffffffffffffffffffffffe00151979650505050505050565b600080610a7c8784610c2e565b6040805173ffffffffffffffffffffffffffffffffffffffff8316815290519192507efffc2da0b561cae30d9826d37709e9421c4725faebc226cbbb7ef5fc5e7349919081900360200190a18073ffffffffffffffffffffffffffffffffffffffff1663cf7a1d778787876040518463ffffffff1660e01b8152600401808473ffffffffffffffffffffffffffffffffffffffff1681526020018373ffffffffffffffffffffffffffffffffffffffff16815260200180602001828103825283818151815260200191508051906020019080838360005b83811015610b6b578181015183820152602001610b53565b50505050905090810190601f168015610b985780820380516001836020036101000a031916815260200191505b50945050505050600060405180830381600087803b158015610bb957600080fd5b505af1158015610bcd573d6000803e3d6000fd5b50929998505050505050505050565b6040805160208082019490945260609290921b7fffffffffffffffffffffffffffffffffffffffff00000000000000000000000016828201528051808303603401815260549092019052805191012090565b600080606060405180602001610c4390610ca5565b7fffffffffffffffffffffffffffffffffffffffffffffffffffffffffffffffe082820381018352601f9091011660405290506000610c828686610bdc565b9050808251602084016000f59250823b610c9b57600080fd5b5090949350505050565b610ab180610cb38339019056fe608060405234801561001057600080fd5b50610a91806100206000396000f3fe6080604052600436106100745760003560e01c80638f2839701161004e5780638f28397014610196578063cf7a1d77146101d6578063d1f57894146102a2578063f851a4401461036557610083565b80633659cfe61461008b5780634f1ef286146100cb5780635c60da1b1461015857610083565b366100835761008161037a565b005b61008161037a565b34801561009757600080fd5b50610081600480360360208110156100ae57600080fd5b503573ffffffffffffffffffffffffffffffffffffffff16610394565b610081600480360360408110156100e157600080fd5b73ffffffffffffffffffffffffffffffffffffffff823516919081019060408101602082013564010000000081111561011957600080fd5b82018360208201111561012b57600080fd5b8035906020019184600183028401116401000000008311171561014d57600080fd5b5090925090506103e8565b34801561016457600080fd5b5061016d6104bc565b6040805173ffffffffffffffffffffffffffffffffffffffff9092168252519081900360200190f35b3480156101a257600080fd5b50610081600480360360208110156101b957600080fd5b503573ffffffffffffffffffffffffffffffffffffffff16610513565b610081600480360360608110156101ec57600080fd5b73ffffffffffffffffffffffffffffffffffffffff823581169260208101359091169181019060608101604082013564010000000081111561022d57600080fd5b82018360208201111561023f57600080fd5b8035906020019184600183028401116401000000008311171561026157600080fd5b91908080601f01602080910402602001604051908101604052809392919081815260200183838082843760009201919091525092955061061b945050505050565b610081600480360360408110156102b857600080fd5b73ffffffffffffffffffffffffffffffffffffffff82351691908101906040810160208201356401000000008111156102f057600080fd5b82018360208201111561030257600080fd5b8035906020019184600183028401116401000000008311171561032457600080fd5b91908080601f016020809104026020016040519081016040528093929190818152602001838380828437600092019190915250929550610658945050505050565b34801561037157600080fd5b5061016d610770565b6103826107b5565b61039261038d6107bd565b6107e2565b565b61039c610806565b73ffffffffffffffffffffffffffffffffffffffff163373ffffffffffffffffffffffffffffffffffffffff1614156103dd576103d88161082b565b6103e5565b6103e561037a565b50565b6103f0610806565b73ffffffffffffffffffffffffffffffffffffffff163373ffffffffffffffffffffffffffffffffffffffff1614156104af5761042c8361082b565b60008373ffffffffffffffffffffffffffffffffffffffff1683836040518083838082843760405192019450600093509091505080830381855af49150503d8060008114610496576040519150601f19603f3d011682016040523d82523d6000602084013e61049b565b606091505b50509050806104a957600080fd5b506104b7565b6104b761037a565b505050565b60006104c6610806565b73ffffffffffffffffffffffffffffffffffffffff163373ffffffffffffffffffffffffffffffffffffffff161415610508576105016107bd565b9050610510565b61051061037a565b90565b61051b610806565b73ffffffffffffffffffffffffffffffffffffffff163373ffffffffffffffffffffffffffffffffffffffff1614156103dd5773ffffffffffffffffffffffffffffffffffffffff81166105ba576040517f08c379a00000000000000000000000000000000000000000000000000000000081526004018080602001828103825260368152602001806109eb6036913960400191505060405180910390fd5b7f7e644d79422f17c01e4894b5f4f588d331ebfa28653d42ae832dc59e38c9798f6105e3610806565b6040805173ffffffffffffffffffffffffffffffffffffffff928316815291841660208301528051918290030190a16103d881610878565b60006106256107bd565b73ffffffffffffffffffffffffffffffffffffffff161461064557600080fd5b61064f8382610658565b6104b782610878565b60006106626107bd565b73ffffffffffffffffffffffffffffffffffffffff161461068257600080fd5b61068b8261089c565b80511561076c5760008273ffffffffffffffffffffffffffffffffffffffff16826040518082805190602001908083835b602083106106f957805182527fffffffffffffffffffffffffffffffffffffffffffffffffffffffffffffffe090920191602091820191016106bc565b6001836020036101000a038019825116818451168082178552505050505050905001915050600060405180830381855af49150503d8060008114610759576040519150601f19603f3d011682016040523d82523d6000602084013e61075e565b606091505b50509050806104b757600080fd5b5050565b600061077a610806565b73ffffffffffffffffffffffffffffffffffffffff163373ffffffffffffffffffffffffffffffffffffffff16141561050857610501610806565b61039261091e565b7f360894a13ba1a3210667c828492db98dca3e2076cc3735a920a3ca505d382bbc5490565b3660008037600080366000845af43d6000803e808015610801573d6000f35b3d6000fd5b7fb53127684a568b3173ae13b9f8a6016e243e63b6e8ee1178d6a717850b5d61035490565b6108348161089c565b60405173ffffffffffffffffffffffffffffffffffffffff8216907fbc7cd75a20ee27fd9adebab32041f755214dbc6bffa90cc0225b39da2e5c2d3b90600090a250565b7fb53127684a568b3173ae13b9f8a6016e243e63b6e8ee1178d6a717850b5d610355565b6108a5816109b2565b6108fa576040517f08c379a000000000000000000000000000000000000000000000000000000000815260040180806020018281038252603b815260200180610a21603b913960400191505060405180910390fd5b7f360894a13ba1a3210667c828492db98dca3e2076cc3735a920a3ca505d382bbc55565b610926610806565b73ffffffffffffffffffffffffffffffffffffffff163373ffffffffffffffffffffffffffffffffffffffff1614156109aa576040517f08c379a00000000000000000000000000000000000000000000000000000000081526004018080602001828103825260328152602001806109b96032913960400191505060405180910390fd5b610392610392565b3b15159056fe43616e6e6f742063616c6c2066616c6c6261636b2066756e6374696f6e2066726f6d207468652070726f78792061646d696e43616e6e6f74206368616e6765207468652061646d696e206f6620612070726f787920746f20746865207a65726f206164647265737343616e6e6f742073657420612070726f787920696d706c656d656e746174696f6e20746f2061206e6f6e2d636f6e74726163742061646472657373a26469706673582212201df15f6998015e6852243742cd54a654a0ad8c0489eb1efb9a3496c537caccc364736f6c634300060c0033a2646970667358221220546792b5a8b55caa83f43d8e442f126202a8b88989dd35ba77fae362c7fb2c7564736f6c634300060c0033608060405234801561001057600080fd5b50610a91806100206000396000f3fe6080604052600436106100745760003560e01c80638f2839701161004e5780638f28397014610196578063cf7a1d77146101d6578063d1f57894146102a2578063f851a4401461036557610083565b80633659cfe61461008b5780634f1ef286146100cb5780635c60da1b1461015857610083565b366100835761008161037a565b005b61008161037a565b34801561009757600080fd5b50610081600480360360208110156100ae57600080fd5b503573ffffffffffffffffffffffffffffffffffffffff16610394565b610081600480360360408110156100e157600080fd5b73ffffffffffffffffffffffffffffffffffffffff823516919081019060408101602082013564010000000081111561011957600080fd5b82018360208201111561012b57600080fd5b8035906020019184600183028401116401000000008311171561014d57600080fd5b5090925090506103e8565b34801561016457600080fd5b5061016d6104bc565b6040805173ffffffffffffffffffffffffffffffffffffffff9092168252519081900360200190f35b3480156101a257600080fd5b50610081600480360360208110156101b957600080fd5b503573ffffffffffffffffffffffffffffffffffffffff16610513565b610081600480360360608110156101ec57600080fd5b73ffffffffffffffffffffffffffffffffffffffff823581169260208101359091169181019060608101604082013564010000000081111561022d57600080fd5b82018360208201111561023f57600080fd5b8035906020019184600183028401116401000000008311171561026157600080fd5b91908080601f01602080910402602001604051908101604052809392919081815260200183838082843760009201919091525092955061061b945050505050565b610081600480360360408110156102b857600080fd5b73ffffffffffffffffffffffffffffffffffffffff82351691908101906040810160208201356401000000008111156102f057600080fd5b82018360208201111561030257600080fd5b8035906020019184600183028401116401000000008311171561032457600080fd5b91908080601f016020809104026020016040519081016040528093929190818152602001838380828437600092019190915250929550610658945050505050565b34801561037157600080fd5b5061016d610770565b6103826107b5565b61039261038d6107bd565b6107e2565b565b61039c610806565b73ffffffffffffffffffffffffffffffffffffffff163373ffffffffffffffffffffffffffffffffffffffff1614156103dd576103d88161082b565b6103e5565b6103e561037a565b50565b6103f0610806565b73ffffffffffffffffffffffffffffffffffffffff163373ffffffffffffffffffffffffffffffffffffffff1614156104af5761042c8361082b565b60008373ffffffffffffffffffffffffffffffffffffffff1683836040518083838082843760405192019450600093509091505080830381855af49150503d8060008114610496576040519150601f19603f3d011682016040523d82523d6000602084013e61049b565b606091505b50509050806104a957600080fd5b506104b7565b6104b761037a565b505050565b60006104c6610806565b73ffffffffffffffffffffffffffffffffffffffff163373ffffffffffffffffffffffffffffffffffffffff161415610508576105016107bd565b9050610510565b61051061037a565b90565b61051b610806565b73ffffffffffffffffffffffffffffffffffffffff163373ffffffffffffffffffffffffffffffffffffffff1614156103dd5773ffffffffffffffffffffffffffffffffffffffff81166105ba576040517f08c379a00000000000000000000000000000000000000000000000000000000081526004018080602001828103825260368152602001806109eb6036913960400191505060405180910390fd5b7f7e644d79422f17c01e4894b5f4f588d331ebfa28653d42ae832dc59e38c9798f6105e3610806565b6040805173ffffffffffffffffffffffffffffffffffffffff928316815291841660208301528051918290030190a16103d881610878565b60006106256107bd565b73ffffffffffffffffffffffffffffffffffffffff161461064557600080fd5b61064f8382610658565b6104b782610878565b60006106626107bd565b73ffffffffffffffffffffffffffffffffffffffff161461068257600080fd5b61068b8261089c565b80511561076c5760008273ffffffffffffffffffffffffffffffffffffffff16826040518082805190602001908083835b602083106106f957805182527fffffffffffffffffffffffffffffffffffffffffffffffffffffffffffffffe090920191602091820191016106bc565b6001836020036101000a038019825116818451168082178552505050505050905001915050600060405180830381855af49150503d8060008114610759576040519150601f19603f3d011682016040523d82523d6000602084013e61075e565b606091505b50509050806104b757600080fd5b5050565b600061077a610806565b73ffffffffffffffffffffffffffffffffffffffff163373ffffffffffffffffffffffffffffffffffffffff16141561050857610501610806565b61039261091e565b7f360894a13ba1a3210667c828492db98dca3e2076cc3735a920a3ca505d382bbc5490565b3660008037600080366000845af43d6000803e808015610801573d6000f35b3d6000fd5b7fb53127684a568b3173ae13b9f8a6016e243e63b6e8ee1178d6a717850b5d61035490565b6108348161089c565b60405173ffffffffffffffffffffffffffffffffffffffff8216907fbc7cd75a20ee27fd9adebab32041f755214dbc6bffa90cc0225b39da2e5c2d3b90600090a250565b7fb53127684a568b3173ae13b9f8a6016e243e63b6e8ee1178d6a717850b5d610355565b6108a5816109b2565b6108fa576040517f08c379a000000000000000000000000000000000000000000000000000000000815260040180806020018281038252603b815260200180610a21603b913960400191505060405180910390fd5b7f360894a13ba1a3210667c828492db98dca3e2076cc3735a920a3ca505d382bbc55565b610926610806565b73ffffffffffffffffffffffffffffffffffffffff163373ffffffffffffffffffffffffffffffffffffffff1614156109aa576040517f08c379a00000000000000000000000000000000000000000000000000000000081526004018080602001828103825260328152602001806109b96032913960400191505060405180910390fd5b610392610392565b3b15159056fe43616e6e6f742063616c6c2066616c6c6261636b2066756e6374696f6e2066726f6d207468652070726f78792061646d696e43616e6e6f74206368616e6765207468652061646d696e206f6620612070726f787920746f20746865207a65726f206164647265737343616e6e6f742073657420612070726f787920696d706c656d656e746174696f6e20746f2061206e6f6e2d636f6e74726163742061646472657373a26469706673582212201df15f6998015e6852243742cd54a654a0ad8c0489eb1efb9a3496c537caccc364736f6c634300060c0033",
  "immutableReferences": {},
  "source": "pragma solidity ^0.6.0;\n\nimport \"./InitializableAdminUpgradeabilityProxy.sol\";\nimport \"../cryptography/ECDSA.sol\";\n\ncontract ProxyFactory {\n  \n  event ProxyCreated(address proxy);\n\n  bytes32 private contractCodeHash;\n\n  constructor() public {\n    contractCodeHash = keccak256(\n      type(InitializableAdminUpgradeabilityProxy).creationCode\n    );\n  }\n\n  function deployMinimal(address _logic, bytes memory _data) public returns (address proxy) {\n    // Adapted from https://github.com/optionality/clone-factory/blob/32782f82dfc5a00d103a7e61a17a5dedbd1e8e9d/contracts/CloneFactory.sol\n    bytes20 targetBytes = bytes20(_logic);\n    assembly {\n      let clone := mload(0x40)\n      mstore(clone, 0x3d602d80600a3d3981f3363d3d373d3d3d363d73000000000000000000000000)\n      mstore(add(clone, 0x14), targetBytes)\n      mstore(add(clone, 0x28), 0x5af43d82803e903d91602b57fd5bf30000000000000000000000000000000000)\n      proxy := create(0, clone, 0x37)\n    }\n    \n    emit ProxyCreated(address(proxy));\n\n    if(_data.length > 0) {\n      (bool success,) = proxy.call(_data);\n      require(success);\n    }    \n  }\n\n  function deploy(uint256 _salt, address _logic, address _admin, bytes memory _data) public returns (address) {\n    return _deployProxy(_salt, _logic, _admin, _data, msg.sender);\n  }\n\n  function deploySigned(uint256 _salt, address _logic, address _admin, bytes memory _data, bytes memory _signature) public returns (address) {\n    address signer = getSigner(_salt, _logic, _admin, _data, _signature);\n    require(signer != address(0), \"Invalid signature\");\n    return _deployProxy(_salt, _logic, _admin, _data, signer);\n  }\n\n  function getDeploymentAddress(uint256 _salt, address _sender) public view returns (address) {\n    // Adapted from https://github.com/archanova/solidity/blob/08f8f6bedc6e71c24758d20219b7d0749d75919d/contracts/contractCreator/ContractCreator.sol\n    bytes32 salt = _getSalt(_salt, _sender);\n    bytes32 rawAddress = keccak256(\n      abi.encodePacked(\n        bytes1(0xff),\n        address(this),\n        salt,\n        contractCodeHash\n      )\n    );\n\n    return address(bytes20(rawAddress << 96));\n  }\n\n  function getSigner(uint256 _salt, address _logic, address _admin, bytes memory _data, bytes memory _signature) public view returns (address) {\n    bytes32 msgHash = OpenZeppelinUpgradesECDSA.toEthSignedMessageHash(\n      keccak256(\n        abi.encodePacked(\n          _salt, _logic, _admin, _data, address(this)\n        )\n      )\n    );\n\n    return OpenZeppelinUpgradesECDSA.recover(msgHash, _signature);\n  }\n\n  function _deployProxy(uint256 _salt, address _logic, address _admin, bytes memory _data, address _sender) internal returns (address) {\n    InitializableAdminUpgradeabilityProxy proxy = _createProxy(_salt, _sender);\n    emit ProxyCreated(address(proxy));\n    proxy.initialize(_logic, _admin, _data);\n    return address(proxy);\n  }\n\n  function _createProxy(uint256 _salt, address _sender) internal returns (InitializableAdminUpgradeabilityProxy) {\n    address payable addr;\n    bytes memory code = type(InitializableAdminUpgradeabilityProxy).creationCode;\n    bytes32 salt = _getSalt(_salt, _sender);\n\n    assembly {\n      addr := create2(0, add(code, 0x20), mload(code), salt)\n      if iszero(extcodesize(addr)) {\n        revert(0, 0)\n      }\n    }\n\n    return InitializableAdminUpgradeabilityProxy(addr);\n  }\n\n  function _getSalt(uint256 _salt, address _sender) internal pure returns (bytes32) {\n    return keccak256(abi.encodePacked(_salt, _sender)); \n  }\n}\n",
  "sourcePath": "/Users/achiko/Documents/elva/projects/compli.fi/complifi-protocol/contracts/libs/upgradeability/ProxyFactory.sol",
  "compiler": {
    "name": "solc",
    "version": "0.6.12+commit.27d51765.Emscripten.clang"
  },
  "schemaVersion": "3.3.1",
  "updatedAt": "2020-11-03T13:08:28.436Z",
  "devdoc": {
    "kind": "dev",
    "methods": {},
    "version": 1
  },
  "userdoc": {
    "kind": "user",
    "methods": {},
    "version": 1
  }
}