{
  "contractName": "StubDerivative",
  "abi": [
    {
      "inputs": [
        {
          "internalType": "bytes32[]",
          "name": "_oracleSymbols",
          "type": "bytes32[]"
        },
        {
          "internalType": "bytes32[]",
          "name": "_oracleIteratorSymbols",
          "type": "bytes32[]"
        },
        {
          "internalType": "bytes32",
          "name": "_collateralToken",
          "type": "bytes32"
        }
      ],
      "stateMutability": "nonpayable",
      "type": "constructor"
    },
    {
      "inputs": [],
      "name": "author",
      "outputs": [
        {
          "internalType": "address",
          "name": "",
          "type": "address"
        }
      ],
      "stateMutability": "view",
      "type": "function"
    },
    {
      "inputs": [],
      "name": "authorFee",
      "outputs": [
        {
          "internalType": "uint256",
          "name": "",
          "type": "uint256"
        }
      ],
      "stateMutability": "view",
      "type": "function"
    },
    {
      "inputs": [],
      "name": "baseURI",
      "outputs": [
        {
          "internalType": "string",
          "name": "",
          "type": "string"
        }
      ],
      "stateMutability": "view",
      "type": "function"
    },
    {
      "inputs": [],
      "name": "collateralSplitSymbol",
      "outputs": [
        {
          "internalType": "bytes32",
          "name": "",
          "type": "bytes32"
        }
      ],
      "stateMutability": "view",
      "type": "function"
    },
    {
      "inputs": [],
      "name": "collateralTokenSymbol",
      "outputs": [
        {
          "internalType": "bytes32",
          "name": "",
          "type": "bytes32"
        }
      ],
      "stateMutability": "view",
      "type": "function"
    },
    {
      "inputs": [],
      "name": "complementNominalValue",
      "outputs": [
        {
          "internalType": "uint256",
          "name": "",
          "type": "uint256"
        }
      ],
      "stateMutability": "view",
      "type": "function"
    },
    {
      "inputs": [],
      "name": "isDerivativeSpecification",
      "outputs": [
        {
          "internalType": "bool",
          "name": "",
          "type": "bool"
        }
      ],
      "stateMutability": "pure",
      "type": "function"
    },
    {
      "inputs": [],
      "name": "livePeriod",
      "outputs": [
        {
          "internalType": "uint256",
          "name": "",
          "type": "uint256"
        }
      ],
      "stateMutability": "view",
      "type": "function"
    },
    {
      "inputs": [],
      "name": "mintingPeriod",
      "outputs": [
        {
          "internalType": "uint256",
          "name": "",
          "type": "uint256"
        }
      ],
      "stateMutability": "view",
      "type": "function"
    },
    {
      "inputs": [],
      "name": "name",
      "outputs": [
        {
          "internalType": "string",
          "name": "",
          "type": "string"
        }
      ],
      "stateMutability": "view",
      "type": "function"
    },
    {
      "inputs": [],
      "name": "oracleIteratorSymbols",
      "outputs": [
        {
          "internalType": "bytes32[]",
          "name": "",
          "type": "bytes32[]"
        }
      ],
      "stateMutability": "view",
      "type": "function"
    },
    {
      "inputs": [],
      "name": "oracleSymbols",
      "outputs": [
        {
          "internalType": "bytes32[]",
          "name": "",
          "type": "bytes32[]"
        }
      ],
      "stateMutability": "view",
      "type": "function"
    },
    {
      "inputs": [],
      "name": "primaryNominalValue",
      "outputs": [
        {
          "internalType": "uint256",
          "name": "",
          "type": "uint256"
        }
      ],
      "stateMutability": "view",
      "type": "function"
    },
    {
      "inputs": [],
      "name": "symbol",
      "outputs": [
        {
          "internalType": "string",
          "name": "",
          "type": "string"
        }
      ],
      "stateMutability": "view",
      "type": "function"
    },
    {
      "inputs": [
        {
          "internalType": "string",
          "name": "_name",
          "type": "string"
        }
      ],
      "name": "setName",
      "outputs": [],
      "stateMutability": "nonpayable",
      "type": "function"
    },
    {
      "inputs": [
        {
          "internalType": "string",
          "name": "_symbol",
          "type": "string"
        }
      ],
      "name": "setSymbol",
      "outputs": [],
      "stateMutability": "nonpayable",
      "type": "function"
    },
    {
      "inputs": [
        {
          "internalType": "bytes32[]",
          "name": "_oracleSymbols",
          "type": "bytes32[]"
        }
      ],
      "name": "setOracleSymbols",
      "outputs": [],
      "stateMutability": "nonpayable",
      "type": "function"
    },
    {
      "inputs": [
        {
          "internalType": "bytes32",
          "name": "_collateralTokenSymbol",
          "type": "bytes32"
        }
      ],
      "name": "setCollateralTokenSymbol",
      "outputs": [],
      "stateMutability": "nonpayable",
      "type": "function"
    },
    {
      "inputs": [
        {
          "internalType": "bytes32",
          "name": "_collateralSplitSymbol",
          "type": "bytes32"
        }
      ],
      "name": "setCollateralSplitSymbol",
      "outputs": [],
      "stateMutability": "nonpayable",
      "type": "function"
    },
    {
      "inputs": [
        {
          "internalType": "uint256",
          "name": "_mintingPeriod",
          "type": "uint256"
        }
      ],
      "name": "setMintingPeriod",
      "outputs": [],
      "stateMutability": "nonpayable",
      "type": "function"
    },
    {
      "inputs": [
        {
          "internalType": "uint256",
          "name": "_livePeriod",
          "type": "uint256"
        }
      ],
      "name": "setLivePeriod",
      "outputs": [],
      "stateMutability": "nonpayable",
      "type": "function"
    },
    {
      "inputs": [
        {
          "internalType": "uint256",
          "name": "_primaryNominalValue",
          "type": "uint256"
        }
      ],
      "name": "setPrimaryNominalValue",
      "outputs": [],
      "stateMutability": "nonpayable",
      "type": "function"
    },
    {
      "inputs": [
        {
          "internalType": "uint256",
          "name": "_complementNominalValue",
          "type": "uint256"
        }
      ],
      "name": "setComplementNominalValue",
      "outputs": [],
      "stateMutability": "nonpayable",
      "type": "function"
    },
    {
      "inputs": [
        {
          "internalType": "uint256",
          "name": "_authorFee",
          "type": "uint256"
        }
      ],
      "name": "setAuthorFee",
      "outputs": [],
      "stateMutability": "nonpayable",
      "type": "function"
    }
  ],
  "bytecode": "0x60806040523480156200001157600080fd5b5060405162000d7438038062000d74833981810160405260608110156200003757600080fd5b81019080805160405193929190846401000000008211156200005857600080fd5b9083019060208201858111156200006e57600080fd5b82518660208202830111640100000000821117156200008c57600080fd5b82525081516020918201928201910280838360005b83811015620000bb578181015183820152602001620000a1565b5050505090500160405260200180516040519392919084640100000000821115620000e557600080fd5b908301906020820185811115620000fb57600080fd5b82518660208202830111640100000000821117156200011957600080fd5b82525081516020918201928201910280838360005b83811015620001485781810151838201526020016200012e565b505050509190910160408181526020938401518183018252600f83526e53747562206465726976617469766560881b85840190815282518084018452600481526329aa2aa160e11b81880152835161783560f01b8189015284518082036002018152602282018087528151919099012060429091019094526000808852600c80546001600160a01b031916339081179091558651949a50985094969095508a948a948a94909362093a8093621baf809360019384939192916200020f91600a9190620002a1565b508a51620002259060009060208e0190620002a1565b5089516200023b9060019060208d019062000326565b508851620002519060029060208c019062000326565b50600388905560048790556005869055600685905560078490556008839055600982905580516200028a90600b906020840190620002a1565b50505050505050505050505050505050506200037a565b828054600181600116156101000203166002900490600052602060002090601f016020900481019282601f10620002e457805160ff191683800117855562000314565b8280016001018555821562000314579182015b8281111562000314578251825591602001919060010190620002f7565b506200032292915062000363565b5090565b82805482825590600052602060002090810192821562000314579160200282018281111562000314578251825591602001919060010190620002f7565b5b8082111562000322576000815560010162000364565b6109ea806200038a6000396000f3fe608060405234801561001057600080fd5b50600436106101985760003560e01c8063969a6c7c116100e3578063de47f50b1161008c578063efeb3f7b11610066578063efeb3f7b146105c5578063f27b9b9f146105cd578063f6869803146105d557610198565b8063de47f50b14610512578063e9550b781461051a578063e9a17e3b146105bd57610198565b8063b84c8246116100bd578063b84c8246146103be578063c47f002714610464578063c6bb30e21461050a57610198565b8063969a6c7c14610368578063a6c3e6b914610385578063ab56c592146103b657610198565b80636c0360eb11610145578063755f4e0d1161011f578063755f4e0d146103265780637aed3c4c1461034357806395d89b411461036057610198565b80636c0360eb146102e85780636e1622f2146102f0578063739ec2921461030c57610198565b806348fd35121161017657806348fd3512146102915780634e7e6155146102ae578063580e550d146102cb57610198565b806306fdde031461019d578063111404b21461021a57806335e8376a14610239575b600080fd5b6101a56105dd565b6040805160208082528351818301528351919283929083019185019080838360005b838110156101df5781810151838201526020016101c7565b50505050905090810190601f16801561020c5780820380516001836020036101000a031916815260200191505b509250505060405180910390f35b6102376004803603602081101561023057600080fd5b5035610691565b005b610241610696565b60408051602080825283518183015283519192839290830191858101910280838360005b8381101561027d578181015183820152602001610265565b505050509050019250505060405180910390f35b610237600480360360208110156102a757600080fd5b50356106ed565b610237600480360360208110156102c457600080fd5b50356106f2565b610237600480360360208110156102e157600080fd5b50356106f7565b6101a56106fc565b6102f861077b565b604080519115158252519081900360200190f35b610314610780565b60408051918252519081900360200190f35b6102376004803603602081101561033c57600080fd5b5035610786565b6102376004803603602081101561035957600080fd5b503561078b565b6101a5610790565b6102376004803603602081101561037e57600080fd5b503561080f565b61038d610814565b6040805173ffffffffffffffffffffffffffffffffffffffff9092168252519081900360200190f35b610314610830565b610237600480360360208110156103d457600080fd5b8101906020810181356401000000008111156103ef57600080fd5b82018360208201111561040157600080fd5b8035906020019184600183028401116401000000008311171561042357600080fd5b91908080601f016020809104026020016040519081016040528093929190818152602001838380828437600092019190915250929550610836945050505050565b6102376004803603602081101561047a57600080fd5b81019060208101813564010000000081111561049557600080fd5b8201836020820111156104a757600080fd5b803590602001918460018302840111640100000000831117156104c957600080fd5b91908080601f01602080910402602001604051908101604052809392919081815260200183838082843760009201919091525092955061084d945050505050565b610314610860565b610314610866565b6102376004803603602081101561053057600080fd5b81019060208101813564010000000081111561054b57600080fd5b82018360208201111561055d57600080fd5b8035906020019184602083028401116401000000008311171561057f57600080fd5b91908080602002602001604051908101604052809392919081815260200183836020028082843760009201919091525092955061086c945050505050565b61024161087f565b6103146108d5565b6103146108db565b6103146108e1565b600a8054604080516020601f60027fffffffffffffffffffffffffffffffffffffffffffffffffffffffffffffffff6101006001881615020190951694909404938401819004810282018101909252828152606093909290918301828280156106875780601f1061065c57610100808354040283529160200191610687565b820191906000526020600020905b81548152906001019060200180831161066a57829003601f168201915b5050505050905090565b600355565b6060600280548060200260200160405190810160405280929190818152602001828054801561068757602002820191906000526020600020905b8154815260200190600101908083116106d0575050505050905090565b600555565b600655565b600755565b600b8054604080516020601f60027fffffffffffffffffffffffffffffffffffffffffffffffffffffffffffffffff6101006001881615020190951694909404938401819004810282018101909252828152606093909290918301828280156106875780601f1061065c57610100808354040283529160200191610687565b600190565b60055490565b600855565b600955565b60008054604080516020601f60027fffffffffffffffffffffffffffffffffffffffffffffffffffffffffffffffff6101006001881615020190951694909404938401819004810282018101909252828152606093909290918301828280156106875780601f1061065c57610100808354040283529160200191610687565b600455565b600c5473ffffffffffffffffffffffffffffffffffffffff1690565b60085490565b80516108499060009060208401906108e7565b5050565b805161084990600a9060208401906108e7565b60075490565b60095490565b8051610849906001906020840190610965565b6060600180548060200260200160405190810160405280929190818152602001828054801561068757602002820191906000526020600020908154815260200190600101908083116106d0575050505050905090565b60035490565b60045490565b60065490565b828054600181600116156101000203166002900490600052602060002090601f016020900481019282601f1061092857805160ff1916838001178555610955565b82800160010185558215610955579182015b8281111561095557825182559160200191906001019061093a565b5061096192915061099f565b5090565b828054828255906000526020600020908101928215610955579160200282018281111561095557825182559160200191906001019061093a565b5b8082111561096157600081556001016109a056fea2646970667358221220160b9a988dad5e5661d95479152bb489834675d96f09443f2ff34b92325d7aa364736f6c634300060c0033",
  "immutableReferences": {},
  "source": "// \"SPDX-License-Identifier: GNU General Public License v3.0\"\n\npragma solidity >=0.4.21 <0.7.0;\n\nimport \"../DerivativeSpecification.sol\";\n\ncontract StubDerivative is DerivativeSpecification{\n    constructor(bytes32[] memory _oracleSymbols, bytes32[] memory _oracleIteratorSymbols, bytes32 _collateralToken) public DerivativeSpecification(\n        msg.sender,\n        \"Stub derivative\",\n        \"STUB\",\n        _oracleSymbols, //\"STUBFEED\"\n        _oracleIteratorSymbols, //\"ChainlinkIterator\"\n        _collateralToken,\n        keccak256(abi.encodePacked(\"x5\")),\n        7 * 24 * 3600,\n        21 * 24 * 3600,\n        1,\n        1,\n        0,\n        \"\"\n    ) {}\n\n    function setName(string memory _name) external {\n        name_ = _name;\n    }\n\n    function setSymbol(string memory _symbol) external {\n        symbol_ = _symbol;\n    }\n\n    function setOracleSymbols(bytes32[] memory _oracleSymbols) external {\n        oracleSymbols_ = _oracleSymbols;\n    }\n\n    function setCollateralTokenSymbol(bytes32 _collateralTokenSymbol) external {\n        collateralTokenSymbol_ = _collateralTokenSymbol;\n    }\n\n    function setCollateralSplitSymbol(bytes32 _collateralSplitSymbol) external {\n        collateralSplitSymbol_ = _collateralSplitSymbol;\n    }\n\n    function setMintingPeriod(uint _mintingPeriod) external {\n        mintingPeriod_ = _mintingPeriod;\n    }\n    function setLivePeriod(uint _livePeriod) external {\n        livePeriod_ = _livePeriod;\n    }\n\n    function setPrimaryNominalValue(uint _primaryNominalValue) external{\n        primaryNominalValue_ = _primaryNominalValue;\n    }\n\n    function setComplementNominalValue(uint _complementNominalValue) external{\n        complementNominalValue_ = _complementNominalValue;\n    }\n\n    function setAuthorFee(uint _authorFee) external {\n        authorFee_ = _authorFee;\n    }\n}\n",
  "sourcePath": "/Users/achiko/Documents/elva/projects/compli.fi/complifi-protocol/contracts/stubs/StubDerivative.sol",
  "compiler": {
    "name": "solc",
    "version": "0.6.12+commit.27d51765.Emscripten.clang"
  },
  "schemaVersion": "3.3.1",
  "updatedAt": "2020-11-03T13:08:28.498Z",
  "devdoc": {
    "kind": "dev",
    "methods": {
      "author()": {
        "details": "Used to set and receive author's fee",
        "returns": {
          "_0": "address of the author"
        }
      },
      "authorFee()": {
        "details": "Percentage fee multiplied by 10 ^ 12",
        "returns": {
          "_0": "author fee"
        }
      },
      "baseURI()": {
        "details": "Isn't used directly in the protocol",
        "returns": {
          "_0": "URI to the derivative specs"
        }
      },
      "collateralSplitSymbol()": {
        "details": "Should be resolved through CollateralSplitRegistry contract",
        "returns": {
          "_0": "collateral split symbol"
        }
      },
      "collateralTokenSymbol()": {
        "details": "Should be resolved through CollateralTokenRegistry contract",
        "returns": {
          "_0": "collateral token symbol"
        }
      },
      "complementNominalValue()": {
        "details": "Units of collateral theoretically swappable for 1 unit of complement asset",
        "returns": {
          "_0": "complement nominal value"
        }
      },
      "isDerivativeSpecification()": {
        "details": "Verifies that contract is a derivative specification",
        "returns": {
          "_0": "true if contract is a derivative specification"
        }
      },
      "livePeriod()": {
        "details": "Set in seconds",
        "returns": {
          "_0": "live period value"
        }
      },
      "mintingPeriod()": {
        "details": "Set in seconds",
        "returns": {
          "_0": "minting period value"
        }
      },
      "name()": {
        "details": "Isn't used directly in the protocol",
        "returns": {
          "_0": "long name"
        }
      },
      "oracleIteratorSymbols()": {
        "details": "Should be resolved through OracleIteratorRegistry contract",
        "returns": {
          "_0": "oracle iterator symbols"
        }
      },
      "oracleSymbols()": {
        "details": "Should be resolved through OracleRegistry contract",
        "returns": {
          "_0": "oracle symbols"
        }
      },
      "primaryNominalValue()": {
        "details": "Units of collateral theoretically swappable for 1 unit of primary asset",
        "returns": {
          "_0": "primary nominal value"
        }
      },
      "symbol()": {
        "details": "Should be resolved through DerivativeSpecificationRegistry contract",
        "returns": {
          "_0": "derivative specification symbol"
        }
      }
    },
    "version": 1
  },
  "userdoc": {
    "kind": "user",
    "methods": {
      "author()": {
        "notice": "Derivative spec author"
      },
      "authorFee()": {
        "notice": "Minting fee rate due to the author of the derivative specification."
      },
      "baseURI()": {
        "notice": "Optional URI to the derivative specs"
      },
      "collateralSplitSymbol()": {
        "notice": "Mapping from the change in the underlying variable (as defined by the oracle) and the initial collateral split to the final collateral split"
      },
      "collateralTokenSymbol()": {
        "notice": "Type of collateral that users submit to mint the derivative"
      },
      "complementNominalValue()": {
        "notice": "Parameter that determines starting nominal value of complement asset"
      },
      "isDerivativeSpecification()": {
        "notice": "Proof of a derivative specification"
      },
      "livePeriod()": {
        "notice": "Lifecycle parameter that define the length of the derivative's Live period."
      },
      "mintingPeriod()": {
        "notice": "Lifecycle parameter that define the length of the derivative's Minting period."
      },
      "name()": {
        "notice": "Return optional long name of the derivative"
      },
      "oracleIteratorSymbols()": {
        "notice": "Algorithm that, for the type of oracle used by the derivative, finds the value closest to a given timestamp"
      },
      "oracleSymbols()": {
        "notice": "Set of oracles that are relied upon to measure changes in the state of the world between the start and the end of the Live period"
      },
      "primaryNominalValue()": {
        "notice": "Parameter that determines starting nominal value of primary asset"
      },
      "symbol()": {
        "notice": "Symbol of the derivative"
      }
    },
    "version": 1
  }
}