{
  "contractName": "StubFeed",
  "abi": [
    {
      "inputs": [],
      "stateMutability": "nonpayable",
      "type": "constructor"
    },
    {
      "anonymous": false,
      "inputs": [
        {
          "indexed": true,
          "internalType": "int256",
          "name": "current",
          "type": "int256"
        },
        {
          "indexed": true,
          "internalType": "uint256",
          "name": "roundId",
          "type": "uint256"
        },
        {
          "indexed": false,
          "internalType": "uint256",
          "name": "updatedAt",
          "type": "uint256"
        }
      ],
      "name": "AnswerUpdated",
      "type": "event"
    },
    {
      "anonymous": false,
      "inputs": [
        {
          "indexed": true,
          "internalType": "uint256",
          "name": "roundId",
          "type": "uint256"
        },
        {
          "indexed": true,
          "internalType": "address",
          "name": "startedBy",
          "type": "address"
        },
        {
          "indexed": false,
          "internalType": "uint256",
          "name": "startedAt",
          "type": "uint256"
        }
      ],
      "name": "NewRound",
      "type": "event"
    },
    {
      "inputs": [
        {
          "internalType": "uint256",
          "name": "",
          "type": "uint256"
        }
      ],
      "name": "rounds",
      "outputs": [
        {
          "internalType": "int256",
          "name": "answer",
          "type": "int256"
        },
        {
          "internalType": "uint256",
          "name": "timestamp",
          "type": "uint256"
        }
      ],
      "stateMutability": "view",
      "type": "function"
    },
    {
      "inputs": [
        {
          "internalType": "int256",
          "name": "_answer",
          "type": "int256"
        },
        {
          "internalType": "uint256",
          "name": "_timestamp",
          "type": "uint256"
        }
      ],
      "name": "addRound",
      "outputs": [],
      "stateMutability": "nonpayable",
      "type": "function"
    },
    {
      "inputs": [
        {
          "internalType": "uint256",
          "name": "_round",
          "type": "uint256"
        },
        {
          "internalType": "int256",
          "name": "_answer",
          "type": "int256"
        },
        {
          "internalType": "uint256",
          "name": "_timestamp",
          "type": "uint256"
        }
      ],
      "name": "updateRound",
      "outputs": [],
      "stateMutability": "nonpayable",
      "type": "function"
    },
    {
      "inputs": [],
      "name": "latestAnswer",
      "outputs": [
        {
          "internalType": "int256",
          "name": "",
          "type": "int256"
        }
      ],
      "stateMutability": "view",
      "type": "function"
    },
    {
      "inputs": [],
      "name": "latestTimestamp",
      "outputs": [
        {
          "internalType": "uint256",
          "name": "",
          "type": "uint256"
        }
      ],
      "stateMutability": "view",
      "type": "function"
    },
    {
      "inputs": [],
      "name": "latestRound",
      "outputs": [
        {
          "internalType": "uint256",
          "name": "",
          "type": "uint256"
        }
      ],
      "stateMutability": "view",
      "type": "function"
    },
    {
      "inputs": [
        {
          "internalType": "uint256",
          "name": "_roundId",
          "type": "uint256"
        }
      ],
      "name": "getAnswer",
      "outputs": [
        {
          "internalType": "int256",
          "name": "",
          "type": "int256"
        }
      ],
      "stateMutability": "view",
      "type": "function"
    },
    {
      "inputs": [
        {
          "internalType": "uint256",
          "name": "_roundId",
          "type": "uint256"
        }
      ],
      "name": "getTimestamp",
      "outputs": [
        {
          "internalType": "uint256",
          "name": "",
          "type": "uint256"
        }
      ],
      "stateMutability": "view",
      "type": "function"
    },
    {
      "inputs": [],
      "name": "decimals",
      "outputs": [
        {
          "internalType": "uint8",
          "name": "",
          "type": "uint8"
        }
      ],
      "stateMutability": "view",
      "type": "function"
    },
    {
      "inputs": [],
      "name": "description",
      "outputs": [
        {
          "internalType": "string",
          "name": "",
          "type": "string"
        }
      ],
      "stateMutability": "view",
      "type": "function"
    },
    {
      "inputs": [],
      "name": "version",
      "outputs": [
        {
          "internalType": "uint256",
          "name": "",
          "type": "uint256"
        }
      ],
      "stateMutability": "view",
      "type": "function"
    },
    {
      "inputs": [
        {
          "internalType": "uint80",
          "name": "_roundId",
          "type": "uint80"
        }
      ],
      "name": "getRoundData",
      "outputs": [
        {
          "internalType": "uint80",
          "name": "roundId",
          "type": "uint80"
        },
        {
          "internalType": "int256",
          "name": "answer",
          "type": "int256"
        },
        {
          "internalType": "uint256",
          "name": "startedAt",
          "type": "uint256"
        },
        {
          "internalType": "uint256",
          "name": "updatedAt",
          "type": "uint256"
        },
        {
          "internalType": "uint80",
          "name": "answeredInRound",
          "type": "uint80"
        }
      ],
      "stateMutability": "view",
      "type": "function"
    },
    {
      "inputs": [],
      "name": "latestRoundData",
      "outputs": [
        {
          "internalType": "uint80",
          "name": "roundId",
          "type": "uint80"
        },
        {
          "internalType": "int256",
          "name": "answer",
          "type": "int256"
        },
        {
          "internalType": "uint256",
          "name": "startedAt",
          "type": "uint256"
        },
        {
          "internalType": "uint256",
          "name": "updatedAt",
          "type": "uint256"
        },
        {
          "internalType": "uint80",
          "name": "answeredInRound",
          "type": "uint80"
        }
      ],
      "stateMutability": "view",
      "type": "function"
    }
  ],
  "bytecode": "0x608060405234801561001057600080fd5b506107c9806100206000396000f3fe608060405234801561001057600080fd5b50600436106100df5760003560e01c80637284e4161161008c5780639a6fc8f5116100665780639a6fc8f514610235578063b5ab58dc146102a8578063b633620c146102c5578063feaf968c146102e2576100df565b80637284e4161461017a5780638205bf6a146101f75780638c65c81f146101ff576100df565b806350d25bcd116100bd57806350d25bcd1461015057806354fd4d501461016a578063668a0f0214610172576100df565b80630129b3b2146100e4578063087917a41461010f578063313ce56714610132575b600080fd5b61010d600480360360608110156100fa57600080fd5b50803590602081013590604001356102ea565b005b61010d6004803603604081101561012557600080fd5b5080359060200135610333565b61013a6103b0565b6040805160ff9092168252519081900360200190f35b6101586103b5565b60408051918252519081900360200190f35b6101586103de565b6101586103e3565b61018261040b565b6040805160208082528351818301528351919283929083019185019080838360005b838110156101bc5781810151838201526020016101a4565b50505050905090810190601f1680156101e95780820380516001836020036101000a031916815260200191505b509250505060405180910390f35b610158610442565b61021c6004803603602081101561021557600080fd5b503561046b565b6040805192835260208301919091528051918290030190f35b61025e6004803603602081101561024b57600080fd5b503569ffffffffffffffffffff16610496565b604051808669ffffffffffffffffffff1681526020018581526020018481526020018381526020018269ffffffffffffffffffff1681526020019550505050505060405180910390f35b610158600480360360208110156102be57600080fd5b50356105cd565b610158600480360360208110156102db57600080fd5b503561060b565b61025e610648565b6040518060400160405280838152602001828152506000600185038154811061030f57fe5b60009182526020918290208351600290920201908155910151600190910155505050565b6040805180820190915291825260208201908152600080546001808201835582805293517f290decd9548b62a8d60345a988386fc84ba6bc95484008f6362f93160ef3e56360029092029182015591517f290decd9548b62a8d60345a988386fc84ba6bc95484008f6362f93160ef3e56490920191909155549055565b600690565b6000806001805403815481106103c757fe5b906000526020600020906002020160000154905090565b600390565b6001547fffffffffffffffffffffffffffffffffffffffffffffffffffffffffffffffff0190565b60408051808201909152600f81527f5374756220507269636520466565640000000000000000000000000000000000602082015290565b60008060018054038154811061045457fe5b906000526020600020906002020160010154905090565b6000818154811061047857fe5b60009182526020909120600290910201805460019091015490915082565b60408051808201909152600f81527f4e6f20646174612070726573656e7400000000000000000000000000000000006020820152600090819081908190819061052d565b838110156104f25781810151838201526020016104da565b50505050905090810190601f16801561051f5780820380516001836020036101000a031916815260200191505b509250505060405180910390fd5b5085945085905060006001860369ffffffffffffffffffff168154811061055057fe5b906000526020600020906002020160000154935060006001860369ffffffffffffffffffff168154811061058057fe5b906000526020600020906002020160010154925060006001860369ffffffffffffffffffff16815481106105b057fe5b906000526020600020906002020160010154915091939590929450565b60006001548211156105e157506000610606565b600060018303815481106105f157fe5b90600052602060002090600202016000015490505b919050565b600060015482111561061f57506000610606565b6000600183038154811061062f57fe5b9060005260206000209060020201600101549050919050565b600080600080600080600154116040518060400160405280600f81526020017f4e6f20646174612070726573656e740000000000000000000000000000000000815250906106f1576040517f08c379a00000000000000000000000000000000000000000000000000000000081526020600482018181528351602484015283519092839260449091019190850190808383600083156104f25781810151838201526020016104da565b506001549050600154945060006001860369ffffffffffffffffffff168154811061071857fe5b906000526020600020906002020160000154935060006001860369ffffffffffffffffffff168154811061074857fe5b906000526020600020906002020160010154925060006001860369ffffffffffffffffffff168154811061077857fe5b9060005260206000209060020201600101549150909192939456fea2646970667358221220b5aca5410cc926b0aa8f0e4bdf9c506cc6fea01a85ce90305e4073ab2873ca8e64736f6c634300060c0033",
  "immutableReferences": {},
  "source": "// \"SPDX-License-Identifier: GNU General Public License v3.0\"\n\npragma solidity >=0.4.21 <0.7.0;\n\nimport \"@chainlink/contracts/src/v0.6/interfaces/AggregatorInterface.sol\";\nimport \"@chainlink/contracts/src/v0.6/interfaces/AggregatorV3Interface.sol\";\n\ncontract StubFeed is AggregatorInterface, AggregatorV3Interface {\n    struct StubFeedRound {\n        int answer;\n        uint timestamp;\n    }\n\n    // An error specific to the Aggregator V3 Interface, to prevent possible\n    // confusion around accidentally reading unset values as reported values.\n    string constant private V3_NO_DATA_ERROR = \"No data present\";\n\n    StubFeedRound[] public rounds;\n\n    uint private latestRound_;\n\n    constructor() public { }\n\n    function addRound(int _answer, uint _timestamp) external {\n        rounds.push(StubFeedRound({answer: _answer, timestamp: _timestamp}));\n        latestRound_ = rounds.length;\n    }\n\n    function updateRound(uint _round, int _answer, uint _timestamp) external {\n        rounds[_round - 1] = StubFeedRound({answer: _answer, timestamp: _timestamp});\n    }\n\n    function latestAnswer() external view override returns (int256) {\n        return rounds[latestRound_ - 1].answer;\n    }\n\n    function latestTimestamp() external view override returns (uint256){\n        return rounds[latestRound_ - 1].timestamp;\n    }\n\n    function latestRound() external view override returns (uint256){\n        return latestRound_ - 1;\n    }\n\n    function getAnswer(uint256 _roundId) external view override returns (int256){\n        if(_roundId > latestRound_) return 0;\n        return rounds[_roundId - 1].answer;\n    }\n\n    function getTimestamp(uint256 _roundId) external view override returns (uint256){\n        if(_roundId > latestRound_) return 0;\n        return rounds[_roundId - 1].timestamp;\n    }\n\n    function decimals() external view override returns (uint8) {\n        return 6;\n    }\n\n    function description() external view override returns (string memory) {\n        return \"Stub Price Feed\";\n    }\n\n    function version() external view override returns (uint256) {\n        return 3;\n    }\n\n    // getRoundData and latestRoundData should both raise \"No data present\"\n    // if they do not have data to report, instead of returning unset values\n    // which could be misinterpreted as actual reported values.\n    function getRoundData(uint80 _roundId)\n    external\n    view\n    override\n    returns (\n        uint80 roundId,\n        int256 answer,\n        uint256 startedAt,\n        uint256 updatedAt,\n        uint80 answeredInRound\n    ) {\n        require(roundId <= latestRound_, V3_NO_DATA_ERROR);\n\n        roundId = _roundId;\n        answeredInRound = _roundId;\n        answer = rounds[roundId - 1].answer;\n        startedAt = rounds[roundId - 1].timestamp;\n        updatedAt = rounds[roundId - 1].timestamp;\n    }\n\n    function latestRoundData()\n    external\n    view\n    override\n    returns (\n        uint80 roundId,\n        int256 answer,\n        uint256 startedAt,\n        uint256 updatedAt,\n        uint80 answeredInRound\n    ) {\n        require(latestRound_ > 0, V3_NO_DATA_ERROR);\n\n        answeredInRound = uint80(latestRound_);\n        roundId = uint80(latestRound_);\n        answer = rounds[roundId - 1].answer;\n        startedAt = rounds[roundId - 1].timestamp;\n        updatedAt = rounds[roundId - 1].timestamp;\n    }\n}\n",
  "sourcePath": "/Users/achiko/Documents/elva/projects/compli.fi/complifi-protocol/contracts/stubs/StubFeed.sol",
  "compiler": {
    "name": "solc",
    "version": "0.6.12+commit.27d51765.Emscripten.clang"
  },
  "schemaVersion": "3.3.1",
  "updatedAt": "2020-11-03T13:08:28.501Z",
  "devdoc": {
    "kind": "dev",
    "methods": {},
    "version": 1
  },
  "userdoc": {
    "kind": "user",
    "methods": {},
    "version": 1
  }
}