{
  "contractName": "VaultFactory",
  "abi": [
    {
      "anonymous": false,
      "inputs": [
        {
          "indexed": true,
          "internalType": "address",
          "name": "previousOwner",
          "type": "address"
        },
        {
          "indexed": true,
          "internalType": "address",
          "name": "newOwner",
          "type": "address"
        }
      ],
      "name": "OwnershipTransferred",
      "type": "event"
    },
    {
      "anonymous": false,
      "inputs": [
        {
          "indexed": true,
          "internalType": "bytes32",
          "name": "derivativeSymbol",
          "type": "bytes32"
        },
        {
          "indexed": false,
          "internalType": "address",
          "name": "vault",
          "type": "address"
        },
        {
          "indexed": false,
          "internalType": "address",
          "name": "specification",
          "type": "address"
        }
      ],
      "name": "VaultCreated",
      "type": "event"
    },
    {
      "inputs": [],
      "name": "authorFeeLimit",
      "outputs": [
        {
          "internalType": "uint256",
          "name": "",
          "type": "uint256"
        }
      ],
      "stateMutability": "view",
      "type": "function",
      "constant": true
    },
    {
      "inputs": [],
      "name": "collateralSplitRegistry",
      "outputs": [
        {
          "internalType": "contract IAddressRegistry",
          "name": "",
          "type": "address"
        }
      ],
      "stateMutability": "view",
      "type": "function",
      "constant": true
    },
    {
      "inputs": [],
      "name": "collateralTokenRegistry",
      "outputs": [
        {
          "internalType": "contract IAddressRegistry",
          "name": "",
          "type": "address"
        }
      ],
      "stateMutability": "view",
      "type": "function",
      "constant": true
    },
    {
      "inputs": [],
      "name": "derivativeSpecificationRegistry",
      "outputs": [
        {
          "internalType": "contract IAddressRegistry",
          "name": "",
          "type": "address"
        }
      ],
      "stateMutability": "view",
      "type": "function",
      "constant": true
    },
    {
      "inputs": [],
      "name": "feeLogger",
      "outputs": [
        {
          "internalType": "address",
          "name": "",
          "type": "address"
        }
      ],
      "stateMutability": "view",
      "type": "function",
      "constant": true
    },
    {
      "inputs": [],
      "name": "feeWallet",
      "outputs": [
        {
          "internalType": "address",
          "name": "",
          "type": "address"
        }
      ],
      "stateMutability": "view",
      "type": "function",
      "constant": true
    },
    {
      "inputs": [],
      "name": "oracleIteratorRegistry",
      "outputs": [
        {
          "internalType": "contract IAddressRegistry",
          "name": "",
          "type": "address"
        }
      ],
      "stateMutability": "view",
      "type": "function",
      "constant": true
    },
    {
      "inputs": [],
      "name": "oracleRegistry",
      "outputs": [
        {
          "internalType": "contract IAddressRegistry",
          "name": "",
          "type": "address"
        }
      ],
      "stateMutability": "view",
      "type": "function",
      "constant": true
    },
    {
      "inputs": [],
      "name": "owner",
      "outputs": [
        {
          "internalType": "address",
          "name": "",
          "type": "address"
        }
      ],
      "stateMutability": "view",
      "type": "function",
      "constant": true
    },
    {
      "inputs": [],
      "name": "protocolFee",
      "outputs": [
        {
          "internalType": "uint256",
          "name": "",
          "type": "uint256"
        }
      ],
      "stateMutability": "view",
      "type": "function",
      "constant": true
    },
    {
      "inputs": [],
      "name": "renounceOwnership",
      "outputs": [],
      "stateMutability": "nonpayable",
      "type": "function"
    },
    {
      "inputs": [],
      "name": "settlementDelay",
      "outputs": [
        {
          "internalType": "uint256",
          "name": "",
          "type": "uint256"
        }
      ],
      "stateMutability": "view",
      "type": "function",
      "constant": true
    },
    {
      "inputs": [],
      "name": "tokenBuilder",
      "outputs": [
        {
          "internalType": "address",
          "name": "",
          "type": "address"
        }
      ],
      "stateMutability": "view",
      "type": "function",
      "constant": true
    },
    {
      "inputs": [
        {
          "internalType": "address",
          "name": "newOwner",
          "type": "address"
        }
      ],
      "name": "transferOwnership",
      "outputs": [],
      "stateMutability": "nonpayable",
      "type": "function"
    },
    {
      "inputs": [],
      "name": "vaultBuilder",
      "outputs": [
        {
          "internalType": "contract IVaultBuilder",
          "name": "",
          "type": "address"
        }
      ],
      "stateMutability": "view",
      "type": "function",
      "constant": true
    },
    {
      "inputs": [
        {
          "internalType": "address",
          "name": "_derivativeSpecificationRegistry",
          "type": "address"
        },
        {
          "internalType": "address",
          "name": "_oracleRegistry",
          "type": "address"
        },
        {
          "internalType": "address",
          "name": "_oracleIteratorRegistry",
          "type": "address"
        },
        {
          "internalType": "address",
          "name": "_collateralTokenRegistry",
          "type": "address"
        },
        {
          "internalType": "address",
          "name": "_collateralSplitRegistry",
          "type": "address"
        },
        {
          "internalType": "address",
          "name": "_tokenBuilder",
          "type": "address"
        },
        {
          "internalType": "address",
          "name": "_feeLogger",
          "type": "address"
        },
        {
          "internalType": "uint256",
          "name": "_protocolFee",
          "type": "uint256"
        },
        {
          "internalType": "address",
          "name": "_feeWallet",
          "type": "address"
        },
        {
          "internalType": "uint256",
          "name": "_authorFeeLimit",
          "type": "uint256"
        },
        {
          "internalType": "address",
          "name": "_vaultBuilder",
          "type": "address"
        },
        {
          "internalType": "uint256",
          "name": "_settlementDelay",
          "type": "uint256"
        }
      ],
      "name": "initialize",
      "outputs": [],
      "stateMutability": "nonpayable",
      "type": "function"
    },
    {
      "inputs": [
        {
          "internalType": "bytes32",
          "name": "_derivativeSymbolHash",
          "type": "bytes32"
        },
        {
          "internalType": "uint256",
          "name": "_initializationTime",
          "type": "uint256"
        }
      ],
      "name": "createVault",
      "outputs": [],
      "stateMutability": "nonpayable",
      "type": "function"
    },
    {
      "inputs": [
        {
          "internalType": "uint256",
          "name": "_protocolFee",
          "type": "uint256"
        }
      ],
      "name": "setProtocolFee",
      "outputs": [],
      "stateMutability": "nonpayable",
      "type": "function"
    },
    {
      "inputs": [
        {
          "internalType": "uint256",
          "name": "_authorFeeLimit",
          "type": "uint256"
        }
      ],
      "name": "setAuthorFeeLimit",
      "outputs": [],
      "stateMutability": "nonpayable",
      "type": "function"
    },
    {
      "inputs": [
        {
          "internalType": "address",
          "name": "_tokenBuilder",
          "type": "address"
        }
      ],
      "name": "setTokenBuilder",
      "outputs": [],
      "stateMutability": "nonpayable",
      "type": "function"
    },
    {
      "inputs": [
        {
          "internalType": "address",
          "name": "_feeLogger",
          "type": "address"
        }
      ],
      "name": "setFeeLogger",
      "outputs": [],
      "stateMutability": "nonpayable",
      "type": "function"
    },
    {
      "inputs": [
        {
          "internalType": "address",
          "name": "_vaultBuilder",
          "type": "address"
        }
      ],
      "name": "setVaultBuilder",
      "outputs": [],
      "stateMutability": "nonpayable",
      "type": "function"
    },
    {
      "inputs": [
        {
          "internalType": "uint256",
          "name": "_settlementDelay",
          "type": "uint256"
        }
      ],
      "name": "setSettlementDelay",
      "outputs": [],
      "stateMutability": "nonpayable",
      "type": "function"
    },
    {
      "inputs": [
        {
          "internalType": "address",
          "name": "_derivativeSpecificationRegistry",
          "type": "address"
        }
      ],
      "name": "setDerivativeSpecificationRegistry",
      "outputs": [],
      "stateMutability": "nonpayable",
      "type": "function"
    },
    {
      "inputs": [
        {
          "internalType": "address",
          "name": "_oracleRegistry",
          "type": "address"
        }
      ],
      "name": "setOracleRegistry",
      "outputs": [],
      "stateMutability": "nonpayable",
      "type": "function"
    },
    {
      "inputs": [
        {
          "internalType": "address",
          "name": "_oracleIteratorRegistry",
          "type": "address"
        }
      ],
      "name": "setOracleIteratorRegistry",
      "outputs": [],
      "stateMutability": "nonpayable",
      "type": "function"
    },
    {
      "inputs": [
        {
          "internalType": "address",
          "name": "_collateralTokenRegistry",
          "type": "address"
        }
      ],
      "name": "setCollateralTokenRegistry",
      "outputs": [],
      "stateMutability": "nonpayable",
      "type": "function"
    },
    {
      "inputs": [
        {
          "internalType": "address",
          "name": "_collateralSplitRegistry",
          "type": "address"
        }
      ],
      "name": "setCollateralSplitRegistry",
      "outputs": [],
      "stateMutability": "nonpayable",
      "type": "function"
    },
    {
      "inputs": [
        {
          "internalType": "address",
          "name": "_vault",
          "type": "address"
        }
      ],
      "name": "pauseVault",
      "outputs": [],
      "stateMutability": "nonpayable",
      "type": "function"
    },
    {
      "inputs": [
        {
          "internalType": "address",
          "name": "_vault",
          "type": "address"
        }
      ],
      "name": "unpauseVault",
      "outputs": [],
      "stateMutability": "nonpayable",
      "type": "function"
    },
    {
      "inputs": [
        {
          "internalType": "address",
          "name": "_value",
          "type": "address"
        }
      ],
      "name": "setDerivativeSpecification",
      "outputs": [],
      "stateMutability": "nonpayable",
      "type": "function"
    },
    {
      "inputs": [
        {
          "internalType": "address",
          "name": "_value",
          "type": "address"
        }
      ],
      "name": "setOracle",
      "outputs": [],
      "stateMutability": "nonpayable",
      "type": "function"
    },
    {
      "inputs": [
        {
          "internalType": "address",
          "name": "_value",
          "type": "address"
        }
      ],
      "name": "setOracleIterator",
      "outputs": [],
      "stateMutability": "nonpayable",
      "type": "function"
    },
    {
      "inputs": [
        {
          "internalType": "address",
          "name": "_value",
          "type": "address"
        }
      ],
      "name": "setCollateralToken",
      "outputs": [],
      "stateMutability": "nonpayable",
      "type": "function"
    },
    {
      "inputs": [
        {
          "internalType": "address",
          "name": "_value",
          "type": "address"
        }
      ],
      "name": "setCollateralSplit",
      "outputs": [],
      "stateMutability": "nonpayable",
      "type": "function"
    },
    {
      "inputs": [
        {
          "internalType": "uint256",
          "name": "_index",
          "type": "uint256"
        }
      ],
      "name": "getVault",
      "outputs": [
        {
          "internalType": "address",
          "name": "",
          "type": "address"
        }
      ],
      "stateMutability": "view",
      "type": "function",
      "constant": true
    },
    {
      "inputs": [],
      "name": "getLastVaultIndex",
      "outputs": [
        {
          "internalType": "uint256",
          "name": "",
          "type": "uint256"
        }
      ],
      "stateMutability": "view",
      "type": "function",
      "constant": true
    },
    {
      "inputs": [],
      "name": "getAllVaults",
      "outputs": [
        {
          "internalType": "address[]",
          "name": "",
          "type": "address[]"
        }
      ],
      "stateMutability": "view",
      "type": "function",
      "constant": true
    }
  ],
  "bytecode": "0x608060405234801561001057600080fd5b50613114806100206000396000f3fe608060405234801561001057600080fd5b50600436106102925760003560e01c806397331bf911610160578063e3601184116100d8578063ef613f751161008c578063f2fde38b11610071578063f2fde38b14610787578063fa443b53146107ba578063fb5f7628146107c257610292565b8063ef613f7514610777578063f25f4b561461077f57610292565b8063ead3be3f116100bd578063ead3be3f14610709578063ed2a63dc14610711578063eedcc8af1461074457610292565b8063e3601184146106ce578063e6fc8191146106d657610292565b8063b0e21e8a1161012f578063c0bd6f9e11610114578063c0bd6f9e14610635578063cbaf7db314610668578063e26db30a1461069b57610292565b8063b0e21e8a146105fa578063b3ed4c5d1461060257610292565b806397331bf9146105755780639a16ee7c146105cd5780639a4db102146105d55780639e8b4f16146105f257610292565b80635ba7c10e1161020e5780638165354e116101c257806389413fcd116101a757806389413fcd1461051d5780638da5cb5b146105505780639403b6341461055857610292565b80638165354e146104c757806384a51892146104fa57610292565b8063715018a6116101f3578063715018a61461046f578063787dce3d146104775780637adbf9731461049457610292565b80635ba7c10e14610409578063666181a91461043c57610292565b806332ae063c116102655780633a6564801161024a5780633a656480146103c85780634b3fd25d146103f95780634bb93ab11461040157610292565b806332ae063c146103a357806338187191146103ab57610292565b80630fa578c61461029757806310ff3e08146102b157806323e98d25146102e65780632efbab2c14610370575b600080fd5b61029f6107f5565b60408051918252519081900360200190f35b6102e4600480360360208110156102c757600080fd5b503573ffffffffffffffffffffffffffffffffffffffff166107fb565b005b6102e460048036036101808110156102fd57600080fd5b5073ffffffffffffffffffffffffffffffffffffffff8135811691602081013582169160408201358116916060810135821691608082013581169160a081013582169160c082013581169160e0810135916101008201358116916101208101359161014082013516906101600135610955565b6102e46004803603602081101561038657600080fd5b503573ffffffffffffffffffffffffffffffffffffffff16610b9a565b61029f610c8e565b6102e4600480360360208110156103c157600080fd5b5035610cb6565b6103d0610d4c565b6040805173ffffffffffffffffffffffffffffffffffffffff9092168252519081900360200190f35b6103d0610d68565b6103d0610d84565b6102e46004803603602081101561041f57600080fd5b503573ffffffffffffffffffffffffffffffffffffffff16610da0565b6102e46004803603602081101561045257600080fd5b503573ffffffffffffffffffffffffffffffffffffffff16610efa565b6102e4610f6e565b6102e46004803603602081101561048d57600080fd5b503561106e565b6102e4600480360360208110156104aa57600080fd5b503573ffffffffffffffffffffffffffffffffffffffff16611104565b6102e4600480360360208110156104dd57600080fd5b503573ffffffffffffffffffffffffffffffffffffffff16611178565b6102e46004803603604081101561051057600080fd5b50803590602001356112d2565b6102e46004803603602081101561053357600080fd5b503573ffffffffffffffffffffffffffffffffffffffff16612021565b6103d061217b565b6103d06004803603602081101561056e57600080fd5b5035612197565b61057d6121ce565b60408051602080825283518183015283519192839290830191858101910280838360005b838110156105b95781810151838201526020016105a1565b505050509050019250505060405180910390f35b6103d061223d565b6102e4600480360360208110156105eb57600080fd5b5035612259565b6103d06122ef565b61029f61230b565b6102e46004803603602081101561061857600080fd5b503573ffffffffffffffffffffffffffffffffffffffff16612311565b6102e46004803603602081101561064b57600080fd5b503573ffffffffffffffffffffffffffffffffffffffff16612385565b6102e46004803603602081101561067e57600080fd5b503573ffffffffffffffffffffffffffffffffffffffff1661245e565b6102e4600480360360208110156106b157600080fd5b503573ffffffffffffffffffffffffffffffffffffffff166125b8565b6103d06126fc565b6102e4600480360360208110156106ec57600080fd5b503573ffffffffffffffffffffffffffffffffffffffff16612718565b6103d0612872565b6102e46004803603602081101561072757600080fd5b503573ffffffffffffffffffffffffffffffffffffffff1661288e565b6102e46004803603602081101561075a57600080fd5b503573ffffffffffffffffffffffffffffffffffffffff166129e8565b61029f612a5c565b6103d0612a62565b6102e46004803603602081101561079d57600080fd5b503573ffffffffffffffffffffffffffffffffffffffff16612a7e565b6103d0612c09565b6102e4600480360360208110156107d857600080fd5b503573ffffffffffffffffffffffffffffffffffffffff16612c25565b60a35481565b610803612c99565b60655473ffffffffffffffffffffffffffffffffffffffff90811691161461088c57604080517f08c379a000000000000000000000000000000000000000000000000000000000815260206004820181905260248201527f4f776e61626c653a2063616c6c6572206973206e6f7420746865206f776e6572604482015290519081900360640190fd5b73ffffffffffffffffffffffffffffffffffffffff811661090e57604080517f08c379a000000000000000000000000000000000000000000000000000000000815260206004820152600d60248201527f546f6b656e206275696c64657200000000000000000000000000000000000000604482015290519081900360640190fd5b609c80547fffffffffffffffffffffffff00000000000000000000000000000000000000001673ffffffffffffffffffffffffffffffffffffffff92909216919091179055565b600054610100900460ff168061096e575061096e612c9d565b8061097c575060005460ff16155b6109d1576040517f08c379a000000000000000000000000000000000000000000000000000000000815260040180806020018281038252602e8152602001806130b1602e913960400191505060405180910390fd5b600054610100900460ff16158015610a3757600080547fffffffffffffffffffffffffffffffffffffffffffffffffffffffffffffff007fffffffffffffffffffffffffffffffffffffffffffffffffffffffffffff00ff909116610100171660011790555b610a3f612ca3565b610a488d6125b8565b610a518c611178565b610a5a8b61288e565b610a638a612021565b610a6c89610da0565b610a75886107fb565b610a7e8761245e565b610a8783612718565b610a9082610cb6565b609e86905560a084905573ffffffffffffffffffffffffffffffffffffffff8516610b1c57604080517f08c379a000000000000000000000000000000000000000000000000000000000815260206004820152600a60248201527f4665652077616c6c657400000000000000000000000000000000000000000000604482015290519081900360640190fd5b609f80547fffffffffffffffffffffffff00000000000000000000000000000000000000001673ffffffffffffffffffffffffffffffffffffffff87161790558015610b8b57600080547fffffffffffffffffffffffffffffffffffffffffffffffffffffffffffff00ff1690555b50505050505050505050505050565b610ba2612c99565b60655473ffffffffffffffffffffffffffffffffffffffff908116911614610c2b57604080517f08c379a000000000000000000000000000000000000000000000000000000000815260206004820181905260248201527f4f776e61626c653a2063616c6c6572206973206e6f7420746865206f776e6572604482015290519081900360640190fd5b8073ffffffffffffffffffffffffffffffffffffffff16633f4ba83a6040518163ffffffff1660e01b8152600401600060405180830381600087803b158015610c7357600080fd5b505af1158015610c87573d6000803e3d6000fd5b5050505050565b6097547fffffffffffffffffffffffffffffffffffffffffffffffffffffffffffffffff0190565b610cbe612c99565b60655473ffffffffffffffffffffffffffffffffffffffff908116911614610d4757604080517f08c379a000000000000000000000000000000000000000000000000000000000815260206004820181905260248201527f4f776e61626c653a2063616c6c6572206973206e6f7420746865206f776e6572604482015290519081900360640190fd5b60a355565b609c5473ffffffffffffffffffffffffffffffffffffffff1681565b60a25473ffffffffffffffffffffffffffffffffffffffff1681565b60995473ffffffffffffffffffffffffffffffffffffffff1681565b610da8612c99565b60655473ffffffffffffffffffffffffffffffffffffffff908116911614610e3157604080517f08c379a000000000000000000000000000000000000000000000000000000000815260206004820181905260248201527f4f776e61626c653a2063616c6c6572206973206e6f7420746865206f776e6572604482015290519081900360640190fd5b73ffffffffffffffffffffffffffffffffffffffff8116610eb357604080517f08c379a000000000000000000000000000000000000000000000000000000000815260206004820152601960248201527f436f6c6c61746572616c2073706c697420726567697374727900000000000000604482015290519081900360640190fd5b609b80547fffffffffffffffffffffffff00000000000000000000000000000000000000001673ffffffffffffffffffffffffffffffffffffffff92909216919091179055565b609a54604080517f2801617e00000000000000000000000000000000000000000000000000000000815273ffffffffffffffffffffffffffffffffffffffff848116600483015291519190921691632801617e91602480830192600092919082900301818387803b158015610c7357600080fd5b610f76612c99565b60655473ffffffffffffffffffffffffffffffffffffffff908116911614610fff57604080517f08c379a000000000000000000000000000000000000000000000000000000000815260206004820181905260248201527f4f776e61626c653a2063616c6c6572206973206e6f7420746865206f776e6572604482015290519081900360640190fd5b60655460405160009173ffffffffffffffffffffffffffffffffffffffff16907f8be0079c531659141344cd1fd0a4f28419497f9722a3daafe3b4186f6b6457e0908390a3606580547fffffffffffffffffffffffff0000000000000000000000000000000000000000169055565b611076612c99565b60655473ffffffffffffffffffffffffffffffffffffffff9081169116146110ff57604080517f08c379a000000000000000000000000000000000000000000000000000000000815260206004820181905260248201527f4f776e61626c653a2063616c6c6572206973206e6f7420746865206f776e6572604482015290519081900360640190fd5b609e55565b609954604080517f2801617e00000000000000000000000000000000000000000000000000000000815273ffffffffffffffffffffffffffffffffffffffff848116600483015291519190921691632801617e91602480830192600092919082900301818387803b158015610c7357600080fd5b611180612c99565b60655473ffffffffffffffffffffffffffffffffffffffff90811691161461120957604080517f08c379a000000000000000000000000000000000000000000000000000000000815260206004820181905260248201527f4f776e61626c653a2063616c6c6572206973206e6f7420746865206f776e6572604482015290519081900360640190fd5b73ffffffffffffffffffffffffffffffffffffffff811661128b57604080517f08c379a000000000000000000000000000000000000000000000000000000000815260206004820152600f60248201527f4f7261636c652072656769737472790000000000000000000000000000000000604482015290519081900360640190fd5b609980547fffffffffffffffffffffffff00000000000000000000000000000000000000001673ffffffffffffffffffffffffffffffffffffffff92909216919091179055565b609854604080517f8eaa6ac000000000000000000000000000000000000000000000000000000000815260048101859052905160009273ffffffffffffffffffffffffffffffffffffffff1691638eaa6ac0916024808301926020929190829003018186803b15801561134457600080fd5b505afa158015611358573d6000803e3d6000fd5b505050506040513d602081101561136e57600080fd5b5051905073ffffffffffffffffffffffffffffffffffffffff81166113f457604080517f08c379a000000000000000000000000000000000000000000000000000000000815260206004820152601760248201527f53706563696669636174696f6e20697320616273656e74000000000000000000604482015290519081900360640190fd5b6000609a60009054906101000a900473ffffffffffffffffffffffffffffffffffffffff1673ffffffffffffffffffffffffffffffffffffffff16638eaa6ac08373ffffffffffffffffffffffffffffffffffffffff1663efeb3f7b6040518163ffffffff1660e01b815260040160206040518083038186803b15801561147a57600080fd5b505afa15801561148e573d6000803e3d6000fd5b505050506040513d60208110156114a457600080fd5b5051604080517fffffffff0000000000000000000000000000000000000000000000000000000060e085901b1681526004810192909252516024808301926020929190829003018186803b1580156114fb57600080fd5b505afa15801561150f573d6000803e3d6000fd5b505050506040513d602081101561152557600080fd5b5051609b54604080517ff27b9b9f000000000000000000000000000000000000000000000000000000008152905192935060009273ffffffffffffffffffffffffffffffffffffffff92831692638eaa6ac0929087169163f27b9b9f91600480820192602092909190829003018186803b1580156115a257600080fd5b505afa1580156115b6573d6000803e3d6000fd5b505050506040513d60208110156115cc57600080fd5b5051604080517fffffffff0000000000000000000000000000000000000000000000000000000060e085901b1681526004810192909252516024808301926020929190829003018186803b15801561162357600080fd5b505afa158015611637573d6000803e3d6000fd5b505050506040513d602081101561164d57600080fd5b5051604080517fe9a17e3b000000000000000000000000000000000000000000000000000000008152905191925060609173ffffffffffffffffffffffffffffffffffffffff86169163e9a17e3b916004808301926000929190829003018186803b1580156116bb57600080fd5b505afa1580156116cf573d6000803e3d6000fd5b505050506040513d6000823e601f3d9081017fffffffffffffffffffffffffffffffffffffffffffffffffffffffffffffffe0168201604052602081101561171657600080fd5b810190808051604051939291908464010000000082111561173657600080fd5b90830190602082018581111561174b57600080fd5b825186602082028301116401000000008211171561176857600080fd5b82525081516020918201928201910280838360005b8381101561179557818101518382015260200161177d565b50505050905001604052505050905060608473ffffffffffffffffffffffffffffffffffffffff166335e8376a6040518163ffffffff1660e01b815260040160006040518083038186803b1580156117ec57600080fd5b505afa158015611800573d6000803e3d6000fd5b505050506040513d6000823e601f3d9081017fffffffffffffffffffffffffffffffffffffffffffffffffffffffffffffffe0168201604052602081101561184757600080fd5b810190808051604051939291908464010000000082111561186757600080fd5b90830190602082018581111561187c57600080fd5b825186602082028301116401000000008211171561189957600080fd5b82525081516020918201928201910280838360005b838110156118c65781810151838201526020016118ae565b505050509050016040525050509050805182511461194557604080517f08c379a000000000000000000000000000000000000000000000000000000000815260206004820152601c60248201527f4f7261636c657320616e64206974657261746f7273206c656e67746800000000604482015290519081900360640190fd5b6060825167ffffffffffffffff8111801561195f57600080fd5b50604051908082528060200260200182016040528015611989578160200160208202803683370190505b5090506060825167ffffffffffffffff811180156119a657600080fd5b506040519080825280602002602001820160405280156119d0578160200160208202803683370190505b50905060005b8451811015611c7357609954855160009173ffffffffffffffffffffffffffffffffffffffff1690638eaa6ac090889085908110611a1057fe5b60200260200101516040518263ffffffff1660e01b81526004018082815260200191505060206040518083038186803b158015611a4c57600080fd5b505afa158015611a60573d6000803e3d6000fd5b505050506040513d6020811015611a7657600080fd5b5051905073ffffffffffffffffffffffffffffffffffffffff8116611afc57604080517f08c379a000000000000000000000000000000000000000000000000000000000815260206004820152601060248201527f4f7261636c6520697320616273656e7400000000000000000000000000000000604482015290519081900360640190fd5b80848381518110611b0957fe5b73ffffffffffffffffffffffffffffffffffffffff928316602091820292909201015260a25486516000929190911690638eaa6ac090889086908110611b4b57fe5b60200260200101516040518263ffffffff1660e01b81526004018082815260200191505060206040518083038186803b158015611b8757600080fd5b505afa158015611b9b573d6000803e3d6000fd5b505050506040513d6020811015611bb157600080fd5b5051905073ffffffffffffffffffffffffffffffffffffffff8116611c3757604080517f08c379a000000000000000000000000000000000000000000000000000000000815260206004820152601860248201527f4f7261636c654974657261746f7220697320616273656e740000000000000000604482015290519081900360640190fd5b80848481518110611c4457fe5b73ffffffffffffffffffffffffffffffffffffffff9092166020928302919091019091015250506001016119d6565b5060008811611ce357604080517f08c379a000000000000000000000000000000000000000000000000000000000815260206004820152601860248201527f5a65726f20696e697469616c697a6174696f6e2074696d650000000000000000604482015290519081900360640190fd5b600060a160009054906101000a900473ffffffffffffffffffffffffffffffffffffffff1673ffffffffffffffffffffffffffffffffffffffff1663e91411ed8a609e54609f60009054906101000a900473ffffffffffffffffffffffffffffffffffffffff168c8c89898e609c60009054906101000a900473ffffffffffffffffffffffffffffffffffffffff16609d60009054906101000a900473ffffffffffffffffffffffffffffffffffffffff1660a05460a3546040518d63ffffffff1660e01b8152600401808d81526020018c81526020018b73ffffffffffffffffffffffffffffffffffffffff1681526020018a73ffffffffffffffffffffffffffffffffffffffff1681526020018973ffffffffffffffffffffffffffffffffffffffff16815260200180602001806020018873ffffffffffffffffffffffffffffffffffffffff1681526020018773ffffffffffffffffffffffffffffffffffffffff1681526020018673ffffffffffffffffffffffffffffffffffffffff16815260200185815260200184815260200183810383528a818151815260200191508051906020019060200280838360005b83811015611eae578181015183820152602001611e96565b50505050905001838103825289818151815260200191508051906020019060200280838360005b83811015611eed578181015183820152602001611ed5565b505050509050019e505050505050505050505050505050602060405180830381600087803b158015611f1e57600080fd5b505af1158015611f32573d6000803e3d6000fd5b505050506040513d6020811015611f4857600080fd5b50516040805173ffffffffffffffffffffffffffffffffffffffff80841682528b16602082015281519293508c927f304aa9f7ab14b5831e1306de23e57e578219ce7ac3d80707716e419ab0119051929181900390910190a2609780546001810182556000919091527f354a83ed9988f79f6038d4c7a7dadbad8af32f4ad6df893e0e5807a1b1944ff90180547fffffffffffffffffffffffff00000000000000000000000000000000000000001673ffffffffffffffffffffffffffffffffffffffff92909216919091179055505050505050505050565b612029612c99565b60655473ffffffffffffffffffffffffffffffffffffffff9081169116146120b257604080517f08c379a000000000000000000000000000000000000000000000000000000000815260206004820181905260248201527f4f776e61626c653a2063616c6c6572206973206e6f7420746865206f776e6572604482015290519081900360640190fd5b73ffffffffffffffffffffffffffffffffffffffff811661213457604080517f08c379a000000000000000000000000000000000000000000000000000000000815260206004820152601960248201527f436f6c6c61746572616c20746f6b656e20726567697374727900000000000000604482015290519081900360640190fd5b609a80547fffffffffffffffffffffffff00000000000000000000000000000000000000001673ffffffffffffffffffffffffffffffffffffffff92909216919091179055565b60655473ffffffffffffffffffffffffffffffffffffffff1690565b6000609782815481106121a657fe5b60009182526020909120015473ffffffffffffffffffffffffffffffffffffffff1692915050565b6060609780548060200260200160405190810160405280929190818152602001828054801561223357602002820191906000526020600020905b815473ffffffffffffffffffffffffffffffffffffffff168152600190910190602001808311612208575b5050505050905090565b60985473ffffffffffffffffffffffffffffffffffffffff1681565b612261612c99565b60655473ffffffffffffffffffffffffffffffffffffffff9081169116146122ea57604080517f08c379a000000000000000000000000000000000000000000000000000000000815260206004820181905260248201527f4f776e61626c653a2063616c6c6572206973206e6f7420746865206f776e6572604482015290519081900360640190fd5b60a055565b60a15473ffffffffffffffffffffffffffffffffffffffff1681565b609e5481565b609854604080517f2801617e00000000000000000000000000000000000000000000000000000000815273ffffffffffffffffffffffffffffffffffffffff848116600483015291519190921691632801617e91602480830192600092919082900301818387803b158015610c7357600080fd5b61238d612c99565b60655473ffffffffffffffffffffffffffffffffffffffff90811691161461241657604080517f08c379a000000000000000000000000000000000000000000000000000000000815260206004820181905260248201527f4f776e61626c653a2063616c6c6572206973206e6f7420746865206f776e6572604482015290519081900360640190fd5b8073ffffffffffffffffffffffffffffffffffffffff16638456cb596040518163ffffffff1660e01b8152600401600060405180830381600087803b158015610c7357600080fd5b612466612c99565b60655473ffffffffffffffffffffffffffffffffffffffff9081169116146124ef57604080517f08c379a000000000000000000000000000000000000000000000000000000000815260206004820181905260248201527f4f776e61626c653a2063616c6c6572206973206e6f7420746865206f776e6572604482015290519081900360640190fd5b73ffffffffffffffffffffffffffffffffffffffff811661257157604080517f08c379a000000000000000000000000000000000000000000000000000000000815260206004820152600a60248201527f466565206c6f6767657200000000000000000000000000000000000000000000604482015290519081900360640190fd5b609d80547fffffffffffffffffffffffff00000000000000000000000000000000000000001673ffffffffffffffffffffffffffffffffffffffff92909216919091179055565b6125c0612c99565b60655473ffffffffffffffffffffffffffffffffffffffff90811691161461264957604080517f08c379a000000000000000000000000000000000000000000000000000000000815260206004820181905260248201527f4f776e61626c653a2063616c6c6572206973206e6f7420746865206f776e6572604482015290519081900360640190fd5b73ffffffffffffffffffffffffffffffffffffffff81166126b5576040517f08c379a00000000000000000000000000000000000000000000000000000000081526004018080602001828103825260218152602001806130906021913960400191505060405180910390fd5b609880547fffffffffffffffffffffffff00000000000000000000000000000000000000001673ffffffffffffffffffffffffffffffffffffffff92909216919091179055565b609b5473ffffffffffffffffffffffffffffffffffffffff1681565b612720612c99565b60655473ffffffffffffffffffffffffffffffffffffffff9081169116146127a957604080517f08c379a000000000000000000000000000000000000000000000000000000000815260206004820181905260248201527f4f776e61626c653a2063616c6c6572206973206e6f7420746865206f776e6572604482015290519081900360640190fd5b73ffffffffffffffffffffffffffffffffffffffff811661282b57604080517f08c379a000000000000000000000000000000000000000000000000000000000815260206004820152600d60248201527f5661756c74206275696c64657200000000000000000000000000000000000000604482015290519081900360640190fd5b60a180547fffffffffffffffffffffffff00000000000000000000000000000000000000001673ffffffffffffffffffffffffffffffffffffffff92909216919091179055565b609a5473ffffffffffffffffffffffffffffffffffffffff1681565b612896612c99565b60655473ffffffffffffffffffffffffffffffffffffffff90811691161461291f57604080517f08c379a000000000000000000000000000000000000000000000000000000000815260206004820181905260248201527f4f776e61626c653a2063616c6c6572206973206e6f7420746865206f776e6572604482015290519081900360640190fd5b73ffffffffffffffffffffffffffffffffffffffff81166129a157604080517f08c379a000000000000000000000000000000000000000000000000000000000815260206004820152601860248201527f4f7261636c65206974657261746f722072656769737472790000000000000000604482015290519081900360640190fd5b60a280547fffffffffffffffffffffffff00000000000000000000000000000000000000001673ffffffffffffffffffffffffffffffffffffffff92909216919091179055565b609b54604080517f2801617e00000000000000000000000000000000000000000000000000000000815273ffffffffffffffffffffffffffffffffffffffff848116600483015291519190921691632801617e91602480830192600092919082900301818387803b158015610c7357600080fd5b60a05481565b609f5473ffffffffffffffffffffffffffffffffffffffff1681565b612a86612c99565b60655473ffffffffffffffffffffffffffffffffffffffff908116911614612b0f57604080517f08c379a000000000000000000000000000000000000000000000000000000000815260206004820181905260248201527f4f776e61626c653a2063616c6c6572206973206e6f7420746865206f776e6572604482015290519081900360640190fd5b73ffffffffffffffffffffffffffffffffffffffff8116612b7b576040517f08c379a000000000000000000000000000000000000000000000000000000000815260040180806020018281038252602681526020018061306a6026913960400191505060405180910390fd5b60655460405173ffffffffffffffffffffffffffffffffffffffff8084169216907f8be0079c531659141344cd1fd0a4f28419497f9722a3daafe3b4186f6b6457e090600090a3606580547fffffffffffffffffffffffff00000000000000000000000000000000000000001673ffffffffffffffffffffffffffffffffffffffff92909216919091179055565b609d5473ffffffffffffffffffffffffffffffffffffffff1681565b60a254604080517f2801617e00000000000000000000000000000000000000000000000000000000815273ffffffffffffffffffffffffffffffffffffffff848116600483015291519190921691632801617e91602480830192600092919082900301818387803b158015610c7357600080fd5b3390565b303b1590565b600054610100900460ff1680612cbc5750612cbc612c9d565b80612cca575060005460ff16155b612d1f576040517f08c379a000000000000000000000000000000000000000000000000000000000815260040180806020018281038252602e8152602001806130b1602e913960400191505060405180910390fd5b600054610100900460ff16158015612d8557600080547fffffffffffffffffffffffffffffffffffffffffffffffffffffffffffffff007fffffffffffffffffffffffffffffffffffffffffffffffffffffffffffff00ff909116610100171660011790555b612d8d612dc7565b612d95612ed9565b8015612dc457600080547fffffffffffffffffffffffffffffffffffffffffffffffffffffffffffff00ff1690555b50565b600054610100900460ff1680612de05750612de0612c9d565b80612dee575060005460ff16155b612e43576040517f08c379a000000000000000000000000000000000000000000000000000000000815260040180806020018281038252602e8152602001806130b1602e913960400191505060405180910390fd5b600054610100900460ff16158015612d9557600080547fffffffffffffffffffffffffffffffffffffffffffffffffffffffffffffff007fffffffffffffffffffffffffffffffffffffffffffffffffffffffffffff00ff909116610100171660011790558015612dc457600080547fffffffffffffffffffffffffffffffffffffffffffffffffffffffffffff00ff16905550565b600054610100900460ff1680612ef25750612ef2612c9d565b80612f00575060005460ff16155b612f55576040517f08c379a000000000000000000000000000000000000000000000000000000000815260040180806020018281038252602e8152602001806130b1602e913960400191505060405180910390fd5b600054610100900460ff16158015612fbb57600080547fffffffffffffffffffffffffffffffffffffffffffffffffffffffffffffff007fffffffffffffffffffffffffffffffffffffffffffffffffffffffffffff00ff909116610100171660011790555b6000612fc5612c99565b606580547fffffffffffffffffffffffff00000000000000000000000000000000000000001673ffffffffffffffffffffffffffffffffffffffff8316908117909155604051919250906000907f8be0079c531659141344cd1fd0a4f28419497f9722a3daafe3b4186f6b6457e0908290a3508015612dc457600080547fffffffffffffffffffffffffffffffffffffffffffffffffffffffffffff00ff1690555056fe4f776e61626c653a206e6577206f776e657220697320746865207a65726f2061646472657373446572697661746976652073706563696669636174696f6e207265676973747279436f6e747261637420696e7374616e63652068617320616c7265616479206265656e20696e697469616c697a6564a2646970667358221220e5c0bb82639d1539f9c45c9c8ac3b252c61468e4689f7770c8046fd5db74332464736f6c634300060c0033",
  "immutableReferences": {},
  "source": "// \"SPDX-License-Identifier: GNU General Public License v3.0\"\n\npragma solidity 0.6.12;\n\nimport \"@openzeppelin/contracts-ethereum-package/contracts/access/Ownable.sol\";\n\nimport \"./IDerivativeSpecification.sol\";\nimport \"./registries/IAddressRegistry.sol\";\nimport \"./IVaultBuilder.sol\";\nimport \"./IPausableVault.sol\";\n\n/// @title Vault Factory implementation contract\n/// @notice Creates new vaults and registers them in internal storage\ncontract VaultFactory is OwnableUpgradeSafe {\n    address[] internal _vaults;\n\n    IAddressRegistry public derivativeSpecificationRegistry;\n    IAddressRegistry public oracleRegistry;\n    IAddressRegistry public collateralTokenRegistry;\n    IAddressRegistry public collateralSplitRegistry;\n    address public tokenBuilder;\n    address public feeLogger;\n\n    /// @notice protocol fee multiplied by 10 ^ 12\n    uint public protocolFee;\n    /// @notice protocol fee receiving wallet\n    address public feeWallet;\n    /// @notice author above limit fee multiplied by 10 ^ 12\n    uint public authorFeeLimit;\n\n    IVaultBuilder public vaultBuilder;\n    IAddressRegistry public oracleIteratorRegistry;\n\n    /// @notice redeem function can only be called after the end of the Live period + delay\n    uint public settlementDelay;\n\n    event VaultCreated(bytes32 indexed derivativeSymbol, address vault, address specification);\n\n    /// @notice Initializes vault factory contract storage\n    /// @dev Used only once when vault factory is created for the first time\n    function initialize(\n        address _derivativeSpecificationRegistry,\n        address _oracleRegistry,\n        address _oracleIteratorRegistry,\n        address _collateralTokenRegistry,\n        address _collateralSplitRegistry,\n        address _tokenBuilder,\n        address _feeLogger,\n        uint _protocolFee,\n        address _feeWallet,\n        uint _authorFeeLimit,\n        address _vaultBuilder,\n        uint _settlementDelay\n    ) external initializer {\n\n        __Ownable_init();\n\n        setDerivativeSpecificationRegistry(_derivativeSpecificationRegistry);\n        setOracleRegistry(_oracleRegistry);\n        setOracleIteratorRegistry(_oracleIteratorRegistry);\n        setCollateralTokenRegistry(_collateralTokenRegistry);\n        setCollateralSplitRegistry(_collateralSplitRegistry);\n\n        setTokenBuilder(_tokenBuilder);\n        setFeeLogger(_feeLogger);\n        setVaultBuilder(_vaultBuilder);\n\n        setSettlementDelay(_settlementDelay);\n\n        protocolFee = _protocolFee;\n        authorFeeLimit = _authorFeeLimit;\n\n        require(_feeWallet != address(0), \"Fee wallet\");\n        feeWallet = _feeWallet;\n    }\n\n    /// @notice Creates a new vault based on derivative specification symbol and initialization timestamp\n    /// @dev Initialization timestamp allows to target a specific start time for Live period\n    /// @param _derivativeSymbolHash a symbol hash which resolves to the derivative specification\n    /// @param _initializationTime vault initialization timestamp\n    function createVault(bytes32 _derivativeSymbolHash, uint _initializationTime) external {\n        IDerivativeSpecification derivativeSpecification = IDerivativeSpecification(\n            derivativeSpecificationRegistry.get(_derivativeSymbolHash));\n        require(address(derivativeSpecification) != address(0), \"Specification is absent\");\n\n        address collateralToken = collateralTokenRegistry.get(derivativeSpecification.collateralTokenSymbol());\n        address collateralSplit = collateralSplitRegistry.get(derivativeSpecification.collateralSplitSymbol());\n\n        bytes32[] memory oracleSymbols = derivativeSpecification.oracleSymbols();\n        bytes32[] memory oracleIteratorSymbols = derivativeSpecification.oracleIteratorSymbols();\n        require(oracleSymbols.length == oracleIteratorSymbols.length, \"Oracles and iterators length\");\n\n        address[] memory oracles = new address[](oracleSymbols.length);\n        address[] memory oracleIterators = new address[](oracleIteratorSymbols.length);\n        for(uint i = 0; i < oracleSymbols.length; i++) {\n            address oracle = oracleRegistry.get(oracleSymbols[i]);\n            require(address(oracle) != address(0), \"Oracle is absent\");\n            oracles[i] = oracle;\n\n            address oracleIterator = oracleIteratorRegistry.get(oracleIteratorSymbols[i]);\n            require(address(oracleIterator) != address(0), \"OracleIterator is absent\");\n            oracleIterators[i] = oracleIterator;\n        }\n\n        require(_initializationTime > 0, \"Zero initialization time\");\n\n        address vault = vaultBuilder.buildVault(\n            _initializationTime,\n            protocolFee,\n            feeWallet,\n            address(derivativeSpecification),\n            collateralToken,\n            oracles,\n            oracleIterators,\n            collateralSplit,\n            tokenBuilder,\n            feeLogger,\n            authorFeeLimit,\n            settlementDelay\n        );\n        emit VaultCreated(_derivativeSymbolHash, vault, address(derivativeSpecification));\n        _vaults.push(vault);\n    }\n\n    function setProtocolFee(uint _protocolFee) external onlyOwner {\n        protocolFee = _protocolFee;\n    }\n\n    function setAuthorFeeLimit(uint _authorFeeLimit) external onlyOwner {\n        authorFeeLimit = _authorFeeLimit;\n    }\n\n    function setTokenBuilder(address _tokenBuilder) public onlyOwner {\n        require(_tokenBuilder != address(0), \"Token builder\");\n        tokenBuilder = _tokenBuilder;\n    }\n\n    function setFeeLogger(address _feeLogger) public onlyOwner {\n        require(_feeLogger != address(0), \"Fee logger\");\n        feeLogger = _feeLogger;\n    }\n\n    function setVaultBuilder(address _vaultBuilder) public onlyOwner {\n        require(_vaultBuilder != address(0), \"Vault builder\");\n        vaultBuilder = IVaultBuilder(_vaultBuilder);\n    }\n\n    function setSettlementDelay(uint _settlementDelay) public onlyOwner {\n        settlementDelay = _settlementDelay;\n    }\n\n    function setDerivativeSpecificationRegistry(address _derivativeSpecificationRegistry) public onlyOwner {\n        require(_derivativeSpecificationRegistry != address(0), \"Derivative specification registry\");\n        derivativeSpecificationRegistry = IAddressRegistry(_derivativeSpecificationRegistry);\n    }\n\n    function setOracleRegistry(address _oracleRegistry) public onlyOwner {\n        require(_oracleRegistry != address(0), \"Oracle registry\");\n        oracleRegistry = IAddressRegistry(_oracleRegistry);\n    }\n\n    function setOracleIteratorRegistry(address _oracleIteratorRegistry) public onlyOwner {\n        require(_oracleIteratorRegistry != address(0), \"Oracle iterator registry\");\n        oracleIteratorRegistry = IAddressRegistry(_oracleIteratorRegistry);\n    }\n\n    function setCollateralTokenRegistry(address _collateralTokenRegistry) public onlyOwner {\n        require(_collateralTokenRegistry != address(0), \"Collateral token registry\");\n        collateralTokenRegistry = IAddressRegistry(_collateralTokenRegistry);\n    }\n\n    function setCollateralSplitRegistry(address _collateralSplitRegistry) public onlyOwner {\n        require(_collateralSplitRegistry != address(0), \"Collateral split registry\");\n        collateralSplitRegistry = IAddressRegistry(_collateralSplitRegistry);\n    }\n\n    function pauseVault(address _vault) public onlyOwner {\n        IPausableVault(_vault).pause();\n    }\n\n    function unpauseVault(address _vault) public onlyOwner {\n        IPausableVault(_vault).unpause();\n    }\n\n    function setDerivativeSpecification(address _value) external {\n        derivativeSpecificationRegistry.set(_value);\n    }\n\n    function setOracle(address _value) external {\n        oracleRegistry.set(_value);\n    }\n\n    function setOracleIterator(address _value) external {\n        oracleIteratorRegistry.set(_value);\n    }\n\n    function setCollateralToken(address _value) external {\n        collateralTokenRegistry.set(_value);\n    }\n\n    function setCollateralSplit(address _value) external {\n        collateralSplitRegistry.set(_value);\n    }\n\n    /// @notice Returns vault based on internal index\n    /// @param _index internal vault index\n    /// @return vault address\n    function getVault(uint _index) external view returns(address) {\n        return _vaults[_index];\n    }\n\n    /// @notice Get last created vault index\n    /// @return last created vault index\n    function getLastVaultIndex() external view returns(uint) {\n        return _vaults.length - 1;\n    }\n\n    /// @notice Get all previously created vaults\n    /// @return all previously created vaults\n    function getAllVaults() external view returns(address[] memory) {\n        return _vaults;\n    }\n\n    uint256[47] private __gap;\n}\n",
  "sourcePath": "/Users/achiko/Documents/elva/projects/compli.fi/complifi-protocol/contracts/VaultFactory.sol",
  "compiler": {
    "name": "solc",
    "version": "0.6.12+commit.27d51765.Emscripten.clang"
  },
  "schemaVersion": "3.3.1",
  "updatedAt": "2020-11-03T13:23:46.067Z",
  "networkType": "ethereum",
  "devdoc": {
    "kind": "dev",
    "methods": {
      "createVault(bytes32,uint256)": {
        "details": "Initialization timestamp allows to target a specific start time for Live period",
        "params": {
          "_derivativeSymbolHash": "a symbol hash which resolves to the derivative specification",
          "_initializationTime": "vault initialization timestamp"
        }
      },
      "getAllVaults()": {
        "returns": {
          "_0": "all previously created vaults"
        }
      },
      "getLastVaultIndex()": {
        "returns": {
          "_0": "last created vault index"
        }
      },
      "getVault(uint256)": {
        "params": {
          "_index": "internal vault index"
        },
        "returns": {
          "_0": "vault address"
        }
      },
      "initialize(address,address,address,address,address,address,address,uint256,address,uint256,address,uint256)": {
        "details": "Used only once when vault factory is created for the first time"
      },
      "owner()": {
        "details": "Returns the address of the current owner."
      },
      "renounceOwnership()": {
        "details": "Leaves the contract without owner. It will not be possible to call `onlyOwner` functions anymore. Can only be called by the current owner. NOTE: Renouncing ownership will leave the contract without an owner, thereby removing any functionality that is only available to the owner."
      },
      "transferOwnership(address)": {
        "details": "Transfers ownership of the contract to a new account (`newOwner`). Can only be called by the current owner."
      }
    },
    "title": "Vault Factory implementation contract",
    "version": 1
  },
  "userdoc": {
    "kind": "user",
    "methods": {
      "authorFeeLimit()": {
        "notice": "author above limit fee multiplied by 10 ^ 12"
      },
      "createVault(bytes32,uint256)": {
        "notice": "Creates a new vault based on derivative specification symbol and initialization timestamp"
      },
      "feeWallet()": {
        "notice": "protocol fee receiving wallet"
      },
      "getAllVaults()": {
        "notice": "Get all previously created vaults"
      },
      "getLastVaultIndex()": {
        "notice": "Get last created vault index"
      },
      "getVault(uint256)": {
        "notice": "Returns vault based on internal index"
      },
      "initialize(address,address,address,address,address,address,address,uint256,address,uint256,address,uint256)": {
        "notice": "Initializes vault factory contract storage"
      },
      "protocolFee()": {
        "notice": "protocol fee multiplied by 10 ^ 12"
      },
      "settlementDelay()": {
        "notice": "redeem function can only be called after the end of the Live period + delay"
      }
    },
    "notice": "Creates new vaults and registers them in internal storage",
    "version": 1
  }
}