{
  "contractName": "Vault",
  "abi": [
    {
      "inputs": [
        {
          "internalType": "uint256",
          "name": "_initializationTime",
          "type": "uint256"
        },
        {
          "internalType": "uint256",
          "name": "_protocolFee",
          "type": "uint256"
        },
        {
          "internalType": "address",
          "name": "_feeWallet",
          "type": "address"
        },
        {
          "internalType": "address",
          "name": "_derivativeSpecification",
          "type": "address"
        },
        {
          "internalType": "address",
          "name": "_collateralToken",
          "type": "address"
        },
        {
          "internalType": "address[]",
          "name": "_oracles",
          "type": "address[]"
        },
        {
          "internalType": "address[]",
          "name": "_oracleIterators",
          "type": "address[]"
        },
        {
          "internalType": "address",
          "name": "_collateralSplit",
          "type": "address"
        },
        {
          "internalType": "address",
          "name": "_tokenBuilder",
          "type": "address"
        },
        {
          "internalType": "address",
          "name": "_feeLogger",
          "type": "address"
        },
        {
          "internalType": "uint256",
          "name": "_authorFeeLimit",
          "type": "uint256"
        },
        {
          "internalType": "uint256",
          "name": "_settlementDelay",
          "type": "uint256"
        }
      ],
      "stateMutability": "nonpayable",
      "type": "constructor"
    },
    {
      "anonymous": false,
      "inputs": [],
      "name": "LiveStateSet",
      "type": "event"
    },
    {
      "anonymous": false,
      "inputs": [
        {
          "indexed": false,
          "internalType": "uint256",
          "name": "minted",
          "type": "uint256"
        },
        {
          "indexed": false,
          "internalType": "uint256",
          "name": "collateral",
          "type": "uint256"
        },
        {
          "indexed": false,
          "internalType": "uint256",
          "name": "fee",
          "type": "uint256"
        }
      ],
      "name": "Minted",
      "type": "event"
    },
    {
      "anonymous": false,
      "inputs": [
        {
          "indexed": false,
          "internalType": "address",
          "name": "primaryToken",
          "type": "address"
        },
        {
          "indexed": false,
          "internalType": "address",
          "name": "complementToken",
          "type": "address"
        }
      ],
      "name": "MintingStateSet",
      "type": "event"
    },
    {
      "anonymous": false,
      "inputs": [
        {
          "indexed": true,
          "internalType": "address",
          "name": "previousOwner",
          "type": "address"
        },
        {
          "indexed": true,
          "internalType": "address",
          "name": "newOwner",
          "type": "address"
        }
      ],
      "name": "OwnershipTransferred",
      "type": "event"
    },
    {
      "anonymous": false,
      "inputs": [
        {
          "indexed": false,
          "internalType": "address",
          "name": "account",
          "type": "address"
        }
      ],
      "name": "Paused",
      "type": "event"
    },
    {
      "anonymous": false,
      "inputs": [
        {
          "indexed": false,
          "internalType": "uint256",
          "name": "tokenAmount",
          "type": "uint256"
        },
        {
          "indexed": false,
          "internalType": "uint256",
          "name": "conversion",
          "type": "uint256"
        },
        {
          "indexed": false,
          "internalType": "uint256",
          "name": "collateral",
          "type": "uint256"
        },
        {
          "indexed": false,
          "internalType": "bool",
          "name": "isPrimary",
          "type": "bool"
        }
      ],
      "name": "Redeemed",
      "type": "event"
    },
    {
      "anonymous": false,
      "inputs": [
        {
          "indexed": false,
          "internalType": "uint256",
          "name": "tokenAmount",
          "type": "uint256"
        },
        {
          "indexed": false,
          "internalType": "uint256",
          "name": "collateral",
          "type": "uint256"
        }
      ],
      "name": "Refunded",
      "type": "event"
    },
    {
      "anonymous": false,
      "inputs": [
        {
          "indexed": false,
          "internalType": "int256[]",
          "name": "underlyingStarts",
          "type": "int256[]"
        },
        {
          "indexed": false,
          "internalType": "int256[]",
          "name": "underlyingEnds",
          "type": "int256[]"
        },
        {
          "indexed": false,
          "internalType": "uint256",
          "name": "primaryConversion",
          "type": "uint256"
        },
        {
          "indexed": false,
          "internalType": "uint256",
          "name": "complementConversion",
          "type": "uint256"
        }
      ],
      "name": "SettledStateSet",
      "type": "event"
    },
    {
      "anonymous": false,
      "inputs": [
        {
          "indexed": false,
          "internalType": "enum Vault.State",
          "name": "oldState",
          "type": "uint8"
        },
        {
          "indexed": false,
          "internalType": "enum Vault.State",
          "name": "newState",
          "type": "uint8"
        }
      ],
      "name": "StateChanged",
      "type": "event"
    },
    {
      "anonymous": false,
      "inputs": [
        {
          "indexed": false,
          "internalType": "address",
          "name": "account",
          "type": "address"
        }
      ],
      "name": "Unpaused",
      "type": "event"
    },
    {
      "inputs": [],
      "name": "FRACTION_MULTIPLIER",
      "outputs": [
        {
          "internalType": "uint256",
          "name": "",
          "type": "uint256"
        }
      ],
      "stateMutability": "view",
      "type": "function"
    },
    {
      "inputs": [],
      "name": "authorFeeLimit",
      "outputs": [
        {
          "internalType": "uint256",
          "name": "",
          "type": "uint256"
        }
      ],
      "stateMutability": "view",
      "type": "function"
    },
    {
      "inputs": [],
      "name": "collateralSplit",
      "outputs": [
        {
          "internalType": "contract ICollateralSplit",
          "name": "",
          "type": "address"
        }
      ],
      "stateMutability": "view",
      "type": "function"
    },
    {
      "inputs": [],
      "name": "collateralToken",
      "outputs": [
        {
          "internalType": "contract IERC20",
          "name": "",
          "type": "address"
        }
      ],
      "stateMutability": "view",
      "type": "function"
    },
    {
      "inputs": [],
      "name": "complementConversion",
      "outputs": [
        {
          "internalType": "uint256",
          "name": "",
          "type": "uint256"
        }
      ],
      "stateMutability": "view",
      "type": "function"
    },
    {
      "inputs": [],
      "name": "complementToken",
      "outputs": [
        {
          "internalType": "contract IERC20MintedBurnable",
          "name": "",
          "type": "address"
        }
      ],
      "stateMutability": "view",
      "type": "function"
    },
    {
      "inputs": [],
      "name": "derivativeSpecification",
      "outputs": [
        {
          "internalType": "contract IDerivativeSpecification",
          "name": "",
          "type": "address"
        }
      ],
      "stateMutability": "view",
      "type": "function"
    },
    {
      "inputs": [],
      "name": "feeLogger",
      "outputs": [
        {
          "internalType": "contract IFeeLogger",
          "name": "",
          "type": "address"
        }
      ],
      "stateMutability": "view",
      "type": "function"
    },
    {
      "inputs": [],
      "name": "feeWallet",
      "outputs": [
        {
          "internalType": "address",
          "name": "",
          "type": "address"
        }
      ],
      "stateMutability": "view",
      "type": "function"
    },
    {
      "inputs": [],
      "name": "initializationTime",
      "outputs": [
        {
          "internalType": "uint256",
          "name": "",
          "type": "uint256"
        }
      ],
      "stateMutability": "view",
      "type": "function"
    },
    {
      "inputs": [],
      "name": "liveTime",
      "outputs": [
        {
          "internalType": "uint256",
          "name": "",
          "type": "uint256"
        }
      ],
      "stateMutability": "view",
      "type": "function"
    },
    {
      "inputs": [
        {
          "internalType": "uint256",
          "name": "",
          "type": "uint256"
        }
      ],
      "name": "oracleIterators",
      "outputs": [
        {
          "internalType": "address",
          "name": "",
          "type": "address"
        }
      ],
      "stateMutability": "view",
      "type": "function"
    },
    {
      "inputs": [
        {
          "internalType": "uint256",
          "name": "",
          "type": "uint256"
        }
      ],
      "name": "oracles",
      "outputs": [
        {
          "internalType": "address",
          "name": "",
          "type": "address"
        }
      ],
      "stateMutability": "view",
      "type": "function"
    },
    {
      "inputs": [],
      "name": "owner",
      "outputs": [
        {
          "internalType": "address",
          "name": "",
          "type": "address"
        }
      ],
      "stateMutability": "view",
      "type": "function"
    },
    {
      "inputs": [],
      "name": "paused",
      "outputs": [
        {
          "internalType": "bool",
          "name": "",
          "type": "bool"
        }
      ],
      "stateMutability": "view",
      "type": "function"
    },
    {
      "inputs": [],
      "name": "primaryConversion",
      "outputs": [
        {
          "internalType": "uint256",
          "name": "",
          "type": "uint256"
        }
      ],
      "stateMutability": "view",
      "type": "function"
    },
    {
      "inputs": [],
      "name": "primaryToken",
      "outputs": [
        {
          "internalType": "contract IERC20MintedBurnable",
          "name": "",
          "type": "address"
        }
      ],
      "stateMutability": "view",
      "type": "function"
    },
    {
      "inputs": [],
      "name": "protocolFee",
      "outputs": [
        {
          "internalType": "uint256",
          "name": "",
          "type": "uint256"
        }
      ],
      "stateMutability": "view",
      "type": "function"
    },
    {
      "inputs": [],
      "name": "renounceOwnership",
      "outputs": [],
      "stateMutability": "nonpayable",
      "type": "function"
    },
    {
      "inputs": [],
      "name": "settleTime",
      "outputs": [
        {
          "internalType": "uint256",
          "name": "",
          "type": "uint256"
        }
      ],
      "stateMutability": "view",
      "type": "function"
    },
    {
      "inputs": [],
      "name": "settlementDelay",
      "outputs": [
        {
          "internalType": "uint256",
          "name": "",
          "type": "uint256"
        }
      ],
      "stateMutability": "view",
      "type": "function"
    },
    {
      "inputs": [],
      "name": "state",
      "outputs": [
        {
          "internalType": "enum Vault.State",
          "name": "",
          "type": "uint8"
        }
      ],
      "stateMutability": "view",
      "type": "function"
    },
    {
      "inputs": [],
      "name": "tokenBuilder",
      "outputs": [
        {
          "internalType": "contract ITokenBuilder",
          "name": "",
          "type": "address"
        }
      ],
      "stateMutability": "view",
      "type": "function"
    },
    {
      "inputs": [
        {
          "internalType": "address",
          "name": "newOwner",
          "type": "address"
        }
      ],
      "name": "transferOwnership",
      "outputs": [],
      "stateMutability": "nonpayable",
      "type": "function"
    },
    {
      "inputs": [
        {
          "internalType": "uint256",
          "name": "",
          "type": "uint256"
        }
      ],
      "name": "underlyingEnds",
      "outputs": [
        {
          "internalType": "int256",
          "name": "",
          "type": "int256"
        }
      ],
      "stateMutability": "view",
      "type": "function"
    },
    {
      "inputs": [
        {
          "internalType": "uint256",
          "name": "",
          "type": "uint256"
        }
      ],
      "name": "underlyingStarts",
      "outputs": [
        {
          "internalType": "int256",
          "name": "",
          "type": "int256"
        }
      ],
      "stateMutability": "view",
      "type": "function"
    },
    {
      "inputs": [],
      "name": "pause",
      "outputs": [],
      "stateMutability": "nonpayable",
      "type": "function"
    },
    {
      "inputs": [],
      "name": "unpause",
      "outputs": [],
      "stateMutability": "nonpayable",
      "type": "function"
    },
    {
      "inputs": [],
      "name": "initialize",
      "outputs": [],
      "stateMutability": "nonpayable",
      "type": "function"
    },
    {
      "inputs": [],
      "name": "live",
      "outputs": [],
      "stateMutability": "nonpayable",
      "type": "function"
    },
    {
      "inputs": [
        {
          "internalType": "uint256[]",
          "name": "_underlyingStartRoundHints",
          "type": "uint256[]"
        },
        {
          "internalType": "uint256[]",
          "name": "_underlyingEndRoundHints",
          "type": "uint256[]"
        }
      ],
      "name": "settle",
      "outputs": [],
      "stateMutability": "nonpayable",
      "type": "function"
    },
    {
      "inputs": [
        {
          "internalType": "uint256",
          "name": "_split",
          "type": "uint256"
        }
      ],
      "name": "range",
      "outputs": [
        {
          "internalType": "uint256",
          "name": "",
          "type": "uint256"
        }
      ],
      "stateMutability": "pure",
      "type": "function"
    },
    {
      "inputs": [
        {
          "internalType": "uint256",
          "name": "_collateralAmount",
          "type": "uint256"
        }
      ],
      "name": "mint",
      "outputs": [],
      "stateMutability": "nonpayable",
      "type": "function"
    },
    {
      "inputs": [
        {
          "internalType": "uint256",
          "name": "_tokenAmount",
          "type": "uint256"
        }
      ],
      "name": "refund",
      "outputs": [],
      "stateMutability": "nonpayable",
      "type": "function"
    },
    {
      "inputs": [
        {
          "internalType": "uint256",
          "name": "_primaryTokenAmount",
          "type": "uint256"
        },
        {
          "internalType": "uint256",
          "name": "_complementTokenAmount",
          "type": "uint256"
        },
        {
          "internalType": "uint256[]",
          "name": "_underlyingStartRoundHints",
          "type": "uint256[]"
        },
        {
          "internalType": "uint256[]",
          "name": "_underlyingEndRoundHints",
          "type": "uint256[]"
        }
      ],
      "name": "redeem",
      "outputs": [],
      "stateMutability": "nonpayable",
      "type": "function"
    }
  ],
  "bytecode": "0x60806040523480156200001157600080fd5b5060405162003cc638038062003cc683398181016040526101808110156200003857600080fd5b815160208301516040808501516060860151608087015160a0880180519451969895979396929591949293820192846401000000008211156200007a57600080fd5b9083019060208201858111156200009057600080fd5b8251866020820283011164010000000082111715620000ae57600080fd5b82525081516020918201928201910280838360005b83811015620000dd578181015183820152602001620000c3565b50505050905001604052602001805160405193929190846401000000008211156200010757600080fd5b9083019060208201858111156200011d57600080fd5b82518660208202830111640100000000821117156200013b57600080fd5b82525081516020918201928201910280838360005b838110156200016a57818101518382015260200162000150565b505050509190910160409081526020830151908301516060840151608085015160a0909501519296509094509291506000620001a5620007bf565b600080546001600160a01b0319166001600160a01b0383169081178255604051929350917f8be0079c531659141344cd1fd0a4f28419497f9722a3daafe3b4186f6b6457e0908290a3506000805460ff60a01b19169055600180558b62000253576040805162461bcd60e51b815260206004820152601360248201527f496e697469616c697a6174696f6e2074696d6500000000000000000000000000604482015290519081900360640190fd5b60028c9055600a8b90556001600160a01b038a16620002a6576040805162461bcd60e51b815260206004820152600a602482015269119959481dd85b1b195d60b21b604482015290519081900360640190fd5b600c80546001600160a01b0319166001600160a01b038c811691909117909155891662000307576040805162461bcd60e51b815260206004820152600a6024820152694465726976617469766560b01b604482015290519081900360640190fd5b600d80546001600160a01b0319166001600160a01b038b81169190911790915588166200036e576040805162461bcd60e51b815260206004820152601060248201526f21b7b63630ba32b930b6103a37b5b2b760811b604482015290519081900360640190fd5b600e80546001600160a01b0319166001600160a01b038a161790558651620003c7576040805162461bcd60e51b81526020600482015260076024820152664f7261636c657360c81b604482015290519081900360640190fd5b60006001600160a01b031687600081518110620003e057fe5b60200260200101516001600160a01b0316141562000445576040805162461bcd60e51b815260206004820152601660248201527f4669727374206f7261636c6520697320616273656e7400000000000000000000604482015290519081900360640190fd5b86516200045a90600f9060208a0190620007c3565b506000865111620004a4576040805162461bcd60e51b815260206004820152600f60248201526e4f7261636c654974657261746f727360881b604482015290519081900360640190fd5b60006001600160a01b031686600081518110620004bd57fe5b60200260200101516001600160a01b0316141562000522576040805162461bcd60e51b815260206004820152601f60248201527f4669727374206f7261636c65206974657261746f7220697320616273656e7400604482015290519081900360640190fd5b855162000537906010906020890190620007c3565b506001600160a01b03851662000587576040805162461bcd60e51b815260206004820152601060248201526f10dbdb1b185d195c985b081cdc1b1a5d60821b604482015290519081900360640190fd5b601180546001600160a01b0319166001600160a01b03878116919091179091558416620005eb576040805162461bcd60e51b815260206004820152600d60248201526c2a37b5b2b710313ab4b63232b960991b604482015290519081900360640190fd5b601280546001600160a01b0319166001600160a01b038681169190911790915583166200064c576040805162461bcd60e51b815260206004820152600a6024820152692332b2903637b3b3b2b960b11b604482015290519081900360640190fd5b601380546001600160a01b0319166001600160a01b0385811691909117909155600b839055600d54604080516339cf614960e11b81529051919092169163739ec292916004808301926020929190829003018186803b158015620006af57600080fd5b505afa158015620006c4573d6000803e3d6000fd5b505050506040513d6020811015620006db57600080fd5b5051600254016003819055421062000726576040805162461bcd60e51b81526020600482015260096024820152684c6976652074696d6560b81b604482015290519081900360640190fd5b600d60009054906101000a90046001600160a01b03166001600160a01b031663f68698036040518163ffffffff1660e01b815260040160206040518083038186803b1580156200077557600080fd5b505afa1580156200078a573d6000803e3d6000fd5b505050506040513d6020811015620007a157600080fd5b505160035401600455600555506200084e9950505050505050505050565b3390565b8280548282559060005260206000209081019282156200081b579160200282015b828111156200081b57825182546001600160a01b0319166001600160a01b03909116178255602090920191600190910190620007e4565b50620008299291506200082d565b5090565b5b80821115620008295780546001600160a01b03191681556001016200082e565b613468806200085e6000396000f3fe608060405234801561001057600080fd5b50600436106102415760003560e01c806391ac094c11610145578063bc49abd8116100bd578063dfd105cb1161008c578063f25f4b5611610071578063f25f4b5614610695578063f2fde38b1461069d578063fa443b53146106d057610241565b8063dfd105cb14610685578063ef613f751461068d57610241565b8063bc49abd814610644578063bdd198911461064c578063c19d93fb14610654578063dbcb32bf1461067d57610241565b8063a5e45bec11610114578063b2016bd4116100f9578063b2016bd414610617578063b38597891461061f578063b4ba02311461062757610241565b8063a5e45bec146105f2578063b0e21e8a1461060f57610241565b806391ac094c146105bd57806394f973d6146105c5578063957aa58c146105cd578063a0712d68146105d557610241565b80635b69a7d8116101d8578063773b625b116101a75780638129fc1c1161018c5780638129fc1c146105a55780638456cb59146105ad5780638da5cb5b146105b557610241565b8063773b625b1461047657806379b03d5d1461059d57610241565b80635b69a7d81461042d5780635c975abb1461044a57806366101b6414610466578063715018a61461046e57610241565b806321e64e4c1161021457806321e64e4c146103ba578063278ecde1146104005780633a6564801461041d5780633f4ba83a1461042557610241565b806302a90b25146102465780630fa578c61461037b578063188dfdfd14610395578063218825bf146103b2575b600080fd5b6103796004803603608081101561025c57600080fd5b81359160208101359181019060608101604082013564010000000081111561028357600080fd5b82018360208201111561029557600080fd5b803590602001918460208302840111640100000000831117156102b757600080fd5b919080806020026020016040519081016040528093929190818152602001838360200280828437600092019190915250929594936020810193503591505064010000000081111561030757600080fd5b82018360208201111561031957600080fd5b8035906020019184602083028401116401000000008311171561033b57600080fd5b9190808060200260200160405190810160405280939291908181526020018383602002808284376000920191909152509295506106d8945050505050565b005b610383610af3565b60408051918252519081900360200190f35b610383600480360360208110156103ab57600080fd5b5035610af9565b610383610b17565b6103d7600480360360208110156103d057600080fd5b5035610b1d565b6040805173ffffffffffffffffffffffffffffffffffffffff9092168252519081900360200190f35b6103796004803603602081101561041657600080fd5b5035610b51565b6103d7610fc7565b610379610fe3565b6103d76004803603602081101561044357600080fd5b503561107e565b61045261108b565b604080519115158252519081900360200190f35b6103836110ac565b6103796110b2565b6103796004803603604081101561048c57600080fd5b8101906020810181356401000000008111156104a757600080fd5b8201836020820111156104b957600080fd5b803590602001918460208302840111640100000000831117156104db57600080fd5b919080806020026020016040519081016040528093929190818152602001838360200280828437600092019190915250929594936020810193503591505064010000000081111561052b57600080fd5b82018360208201111561053d57600080fd5b8035906020019184602083028401116401000000008311171561055f57600080fd5b9190808060200260200160405190810160405280939291908181526020018383602002808284376000920191909152509295506111b2945050505050565b61038361192e565b610379611934565b610379611b2b565b6103d7611bc4565b6103d7611be0565b6103d7611bfc565b610379611c18565b610379600480360360208110156105eb57600080fd5b5035611d55565b6103836004803603602081101561060857600080fd5b50356120bb565b6103836120de565b6103d76120e4565b6103d7612100565b6103836004803603602081101561063d57600080fd5b503561211c565b610383612129565b61038361212f565b61065c612135565b6040518082600381111561066c57fe5b815260200191505060405180910390f35b6103d7612156565b610383612172565b61038361217b565b6103d7612181565b610379600480360360208110156106b357600080fd5b503573ffffffffffffffffffffffffffffffffffffffff1661219d565b6103d7612327565b6002600154141561074a57604080517f08c379a000000000000000000000000000000000000000000000000000000000815260206004820152601f60248201527f5265656e7472616e637947756172643a207265656e7472616e742063616c6c00604482015290519081900360640190fd5b60026001558315158061075d5750600083115b6107c857604080517f08c379a000000000000000000000000000000000000000000000000000000000815260206004820152601760248201527f426f746820746f6b656e73207a65726f20616d6f756e74000000000000000000604482015290519081900360640190fd5b601454604080517f70a08231000000000000000000000000000000000000000000000000000000008152336004820152905173ffffffffffffffffffffffffffffffffffffffff909216916370a0823191602480820192602092909190829003018186803b15801561083957600080fd5b505afa15801561084d573d6000803e3d6000fd5b505050506040513d602081101561086357600080fd5b50518411156108d357604080517f08c379a000000000000000000000000000000000000000000000000000000000815260206004820152601b60248201527f496e73756666696369656e74207072696d61727920616d6f756e740000000000604482015290519081900360640190fd5b601554604080517f70a08231000000000000000000000000000000000000000000000000000000008152336004820152905173ffffffffffffffffffffffffffffffffffffffff909216916370a0823191602480820192602092909190829003018186803b15801561094457600080fd5b505afa158015610958573d6000803e3d6000fd5b505050506040513d602081101561096e57600080fd5b50518311156109de57604080517f08c379a000000000000000000000000000000000000000000000000000000000815260206004820152601e60248201527f496e73756666696369656e7420636f6d706c656d656e7420616d6f756e740000604482015290519081900360640190fd5b6003544210158015610a1857506001600c5474010000000000000000000000000000000000000000900460ff166003811115610a1657fe5b145b15610a2557610a25611c18565b6004544210158015610a5f57506002600c5474010000000000000000000000000000000000000000900460ff166003811115610a5d57fe5b145b15610a6e57610a6e82826111b2565b6003600c5474010000000000000000000000000000000000000000900460ff166003811115610a9957fe5b1415610ae957601454610ac49073ffffffffffffffffffffffffffffffffffffffff16856001612343565b601554610ae99073ffffffffffffffffffffffffffffffffffffffff16846000612343565b5050600180555050565b60055481565b60078181548110610b0657fe5b600091825260209091200154905081565b60025481565b60108181548110610b2a57fe5b60009182526020909120015473ffffffffffffffffffffffffffffffffffffffff16905081565b60026001541415610bc357604080517f08c379a000000000000000000000000000000000000000000000000000000000815260206004820152601f60248201527f5265656e7472616e637947756172643a207265656e7472616e742063616c6c00604482015290519081900360640190fd5b600260015580610c3457604080517f08c379a000000000000000000000000000000000000000000000000000000000815260206004820152600b60248201527f5a65726f20616d6f756e74000000000000000000000000000000000000000000604482015290519081900360640190fd5b601454604080517f70a08231000000000000000000000000000000000000000000000000000000008152336004820152905173ffffffffffffffffffffffffffffffffffffffff909216916370a0823191602480820192602092909190829003018186803b158015610ca557600080fd5b505afa158015610cb9573d6000803e3d6000fd5b505050506040513d6020811015610ccf57600080fd5b5051811115610d3f57604080517f08c379a000000000000000000000000000000000000000000000000000000000815260206004820152601b60248201527f496e73756666696369656e74207072696d61727920616d6f756e740000000000604482015290519081900360640190fd5b601554604080517f70a08231000000000000000000000000000000000000000000000000000000008152336004820152905173ffffffffffffffffffffffffffffffffffffffff909216916370a0823191602480820192602092909190829003018186803b158015610db057600080fd5b505afa158015610dc4573d6000803e3d6000fd5b505050506040513d6020811015610dda57600080fd5b5051811115610e4a57604080517f08c379a000000000000000000000000000000000000000000000000000000000815260206004820152601e60248201527f496e73756666696369656e7420636f6d706c656d656e7420616d6f756e740000604482015290519081900360640190fd5b601454604080517f79cc679000000000000000000000000000000000000000000000000000000000815233600482015260248101849052905173ffffffffffffffffffffffffffffffffffffffff909216916379cc67909160448082019260009290919082900301818387803b158015610ec357600080fd5b505af1158015610ed7573d6000803e3d6000fd5b5050601554604080517f79cc679000000000000000000000000000000000000000000000000000000000815233600482015260248101869052905173ffffffffffffffffffffffffffffffffffffffff90921693506379cc6790925060448082019260009290919082900301818387803b158015610f5457600080fd5b505af1158015610f68573d6000803e3d6000fd5b505050506000610f7782612463565b604080518481526020810183905281519293507fb7c1f9298a18c36af08bd57eabbfbeb04695f24d0438f67614741ec15fb5c4a9929081900390910190a1610fbf33826125a1565b505060018055565b60125473ffffffffffffffffffffffffffffffffffffffff1681565b610feb6126ed565b60005473ffffffffffffffffffffffffffffffffffffffff90811691161461107457604080517f08c379a000000000000000000000000000000000000000000000000000000000815260206004820181905260248201527f4f776e61626c653a2063616c6c6572206973206e6f7420746865206f776e6572604482015290519081900360640190fd5b61107c6126f1565b565b600f8181548110610b2a57fe5b60005474010000000000000000000000000000000000000000900460ff1690565b60045481565b6110ba6126ed565b60005473ffffffffffffffffffffffffffffffffffffffff90811691161461114357604080517f08c379a000000000000000000000000000000000000000000000000000000000815260206004820181905260248201527f4f776e61626c653a2063616c6c6572206973206e6f7420746865206f776e6572604482015290519081900360640190fd5b6000805460405173ffffffffffffffffffffffffffffffffffffffff909116907f8be0079c531659141344cd1fd0a4f28419497f9722a3daafe3b4186f6b6457e0908390a3600080547fffffffffffffffffffffffff0000000000000000000000000000000000000000169055565b60005474010000000000000000000000000000000000000000900460ff161561123c57604080517f08c379a000000000000000000000000000000000000000000000000000000000815260206004820152601060248201527f5061757361626c653a2070617573656400000000000000000000000000000000604482015290519081900360640190fd5b6002600c5474010000000000000000000000000000000000000000900460ff16600381111561126757fe5b146112d357604080517f08c379a000000000000000000000000000000000000000000000000000000000815260206004820152600f60248201527f496e636f72726563742073746174650000000000000000000000000000000000604482015290519081900360640190fd5b6005546004540142101561134857604080517f08c379a000000000000000000000000000000000000000000000000000000000815260206004820152600e60248201527f496e636f72726563742074696d65000000000000000000000000000000000000604482015290519081900360640190fd5b61135260036127f5565b6000601160009054906101000a900473ffffffffffffffffffffffffffffffffffffffff1673ffffffffffffffffffffffffffffffffffffffff1663bb188507600f601060035460045488886040518763ffffffff1660e01b8152600401808060200180602001878152602001868152602001806020018060200185810385528b818154815260200191508054801561142157602002820191906000526020600020905b815473ffffffffffffffffffffffffffffffffffffffff1681526001909101906020018083116113f6575b505085810384528a818154815260200191508054801561147757602002820191906000526020600020905b815473ffffffffffffffffffffffffffffffffffffffff16815260019091019060200180831161144c575b50508581038352875181528751602091820191808a01910280838360005b838110156114ad578181015183820152602001611495565b50505050905001858103825286818151815260200191508051906020019060200280838360005b838110156114ec5781810151838201526020016114d4565b505050509050019a505050505050505050505060006040518083038186803b15801561151757600080fd5b505afa15801561152b573d6000803e3d6000fd5b505050506040513d6000823e601f3d9081017fffffffffffffffffffffffffffffffffffffffffffffffffffffffffffffffe0168201604052606081101561157257600080fd5b81516020830180516040519294929383019291908464010000000082111561159957600080fd5b9083019060208201858111156115ae57600080fd5b82518660208202830111640100000000821117156115cb57600080fd5b82525081516020918201928201910280838360005b838110156115f85781810151838201526020016115e0565b505050509050016040526020018051604051939291908464010000000082111561162157600080fd5b90830190602082018581111561163657600080fd5b825186602082028301116401000000008211171561165357600080fd5b82525081516020918201928201910280838360005b83811015611680578181015183820152602001611668565b50505050919091016040525050825160069250600091506116a890600790602086019061338b565b505082516116bb9190602085019061338b565b508293505050506116cb816120bb565b600e54604080517f70a08231000000000000000000000000000000000000000000000000000000008152306004820152905192935060009273ffffffffffffffffffffffffffffffffffffffff909216916370a0823191602480820192602092909190829003018186803b15801561174257600080fd5b505afa158015611756573d6000803e3d6000fd5b505050506040513d602081101561176c57600080fd5b5051601454604080517f18160ddd000000000000000000000000000000000000000000000000000000008152905192935060009273ffffffffffffffffffffffffffffffffffffffff909216916318160ddd91600480820192602092909190829003018186803b1580156117df57600080fd5b505afa1580156117f3573d6000803e3d6000fd5b505050506040513d602081101561180957600080fd5b50519050801561185657600061181f83856128ac565b905061182b8183612926565b6008556118518261184b836118458764e8d4a510006128ac565b90612968565b90612926565b600955505b7ffde8cf4d198dfab02a09142dd69eea28c2bcf34535b5b1061125c8a36c88462e6006600760085460095460405180806020018060200185815260200184815260200183810383528781815481526020019150805480156118d657602002820191906000526020600020905b8154815260200190600101908083116118c2575b5050838103825286818154815260200191508054801561191557602002820191906000526020600020905b815481526020019060010190808311611901575b5050965050505050505060405180910390a15050505050565b60095481565b6000600c5474010000000000000000000000000000000000000000900460ff16600381111561195f57fe5b146119cb57604080517f08c379a000000000000000000000000000000000000000000000000000000000815260206004820152601060248201527f496e636f72726563742073746174652e00000000000000000000000000000000604482015290519081900360640190fd5b6119d560016127f5565b601254600d5460048054600e54604080517fb1db135800000000000000000000000000000000000000000000000000000000815273ffffffffffffffffffffffffffffffffffffffff958616948101949094526024840192909252831660448301528051929093169263b1db1358926064808401938290030181600087803b158015611a6057600080fd5b505af1158015611a74573d6000803e3d6000fd5b505050506040513d6040811015611a8a57600080fd5b508051602091820151601580547fffffffffffffffffffffffff000000000000000000000000000000000000000090811673ffffffffffffffffffffffffffffffffffffffff938416179182905560148054909116938316939093179283905560408051938316845291169282019290925281517fccc9b3b44d0d509881859c3b484d72cb3399f46cf713790a2aa0eac500de220f929181900390910190a1565b611b336126ed565b60005473ffffffffffffffffffffffffffffffffffffffff908116911614611bbc57604080517f08c379a000000000000000000000000000000000000000000000000000000000815260206004820181905260248201527f4f776e61626c653a2063616c6c6572206973206e6f7420746865206f776e6572604482015290519081900360640190fd5b61107c6129aa565b60005473ffffffffffffffffffffffffffffffffffffffff1690565b60145473ffffffffffffffffffffffffffffffffffffffff1681565b60155473ffffffffffffffffffffffffffffffffffffffff1681565b6001600c5474010000000000000000000000000000000000000000900460ff166003811115611c4357fe5b14611caf57604080517f08c379a000000000000000000000000000000000000000000000000000000000815260206004820152600f60248201527f496e636f72726563742073746174650000000000000000000000000000000000604482015290519081900360640190fd5b600354421015611d2057604080517f08c379a000000000000000000000000000000000000000000000000000000000815260206004820152600e60248201527f496e636f72726563742074696d65000000000000000000000000000000000000604482015290519081900360640190fd5b611d2a60026127f5565b6040517fe4dbbccd2cac0ad5224dadf2717b166984d76167bb31b23d7603c53ef186fa5790600090a1565b60026001541415611dc757604080517f08c379a000000000000000000000000000000000000000000000000000000000815260206004820152601f60248201527f5265656e7472616e637947756172643a207265656e7472616e742063616c6c00604482015290519081900360640190fd5b60026001556003544210801590611e0657506001600c5474010000000000000000000000000000000000000000900460ff166003811115611e0457fe5b145b15611e1357611e13611c18565b6001600c5474010000000000000000000000000000000000000000900460ff166003811115611e3e57fe5b14611eaa57604080517f08c379a000000000000000000000000000000000000000000000000000000000815260206004820152601660248201527f4d696e74696e6720706572696f64206973206f76657200000000000000000000604482015290519081900360640190fd5b60008111611f1957604080517f08c379a000000000000000000000000000000000000000000000000000000000815260206004820152600b60248201527f5a65726f20616d6f756e74000000000000000000000000000000000000000000604482015290519081900360640190fd5b611f233382612a9c565b90506000611f3082612dac565b90506000611f3e8383612968565b90506000611f4b82613088565b601454604080517f40c10f1900000000000000000000000000000000000000000000000000000000815233600482015260248101849052905192935073ffffffffffffffffffffffffffffffffffffffff909116916340c10f199160448082019260009290919082900301818387803b158015611fc757600080fd5b505af1158015611fdb573d6000803e3d6000fd5b5050601554604080517f40c10f1900000000000000000000000000000000000000000000000000000000815233600482015260248101869052905173ffffffffffffffffffffffffffffffffffffffff90921693506340c10f19925060448082019260009290919082900301818387803b15801561205857600080fd5b505af115801561206c573d6000803e3d6000fd5b5050604080518481526020810188905280820187905290517f488bbf7ce8682b98371a0bb07d4e838ce2e533a907ceda8ac6ee658fdbd162e09350908190036060019150a15050600180555050565b600064e8d4a510008211156120d6575064e8d4a510006120d9565b50805b919050565b600a5481565b600e5473ffffffffffffffffffffffffffffffffffffffff1681565b60115473ffffffffffffffffffffffffffffffffffffffff1681565b60068181548110610b0657fe5b60035481565b60085481565b600c5474010000000000000000000000000000000000000000900460ff1681565b600d5473ffffffffffffffffffffffffffffffffffffffff1681565b64e8d4a5100081565b600b5481565b600c5473ffffffffffffffffffffffffffffffffffffffff1681565b6121a56126ed565b60005473ffffffffffffffffffffffffffffffffffffffff90811691161461222e57604080517f08c379a000000000000000000000000000000000000000000000000000000000815260206004820181905260248201527f4f776e61626c653a2063616c6c6572206973206e6f7420746865206f776e6572604482015290519081900360640190fd5b73ffffffffffffffffffffffffffffffffffffffff811661229a576040517f08c379a00000000000000000000000000000000000000000000000000000000081526004018080602001828103825260268152602001806133ec6026913960400191505060405180910390fd5b6000805460405173ffffffffffffffffffffffffffffffffffffffff808516939216917f8be0079c531659141344cd1fd0a4f28419497f9722a3daafe3b4186f6b6457e091a3600080547fffffffffffffffffffffffff00000000000000000000000000000000000000001673ffffffffffffffffffffffffffffffffffffffff92909216919091179055565b60135473ffffffffffffffffffffffffffffffffffffffff1681565b811561245e57604080517f79cc679000000000000000000000000000000000000000000000000000000000815233600482015260248101849052905173ffffffffffffffffffffffffffffffffffffffff8516916379cc679091604480830192600092919082900301818387803b1580156123bd57600080fd5b505af11580156123d1573d6000803e3d6000fd5b505050506000816123e4576009546123e8565b6008545b905060006123ff64e8d4a5100061184b86856128ac565b6040805186815260208101859052808201839052851515606082015290519192507f97bf1ef784e452dc3b26adae526de1a8a106827a89ebb0da74628bcafb5b6f06919081900360800190a1801561245b5761245b33826125a1565b50505b505050565b600061259b600d60009054906101000a900473ffffffffffffffffffffffffffffffffffffffff1673ffffffffffffffffffffffffffffffffffffffff1663ab56c5926040518163ffffffff1660e01b815260040160206040518083038186803b1580156124d057600080fd5b505afa1580156124e4573d6000803e3d6000fd5b505050506040513d60208110156124fa57600080fd5b5051600d54604080517fc6bb30e2000000000000000000000000000000000000000000000000000000008152905173ffffffffffffffffffffffffffffffffffffffff9092169163c6bb30e291600480820192602092909190829003018186803b15801561256757600080fd5b505afa15801561257b573d6000803e3d6000fd5b505050506040513d602081101561259157600080fd5b50518491016128ac565b92915050565b600e54604080517fa9059cbb00000000000000000000000000000000000000000000000000000000815273ffffffffffffffffffffffffffffffffffffffff8581166004830152602482018590529151919092169163a9059cbb91604480830192600092919082900301818387803b15801561261c57600080fd5b505af1158015612630573d6000803e3d6000fd5b5050505060003d6000811461264c576020811461267457600080fd5b7fffffffffffffffffffffffffffffffffffffffffffffffffffffffffffffffff9150612680565b60206000803e60005191505b508061245e57604080517f08c379a000000000000000000000000000000000000000000000000000000000815260206004820152601960248201527f544f4b454e5f5452414e534645525f4f55545f4641494c454400000000000000604482015290519081900360640190fd5b3390565b60005474010000000000000000000000000000000000000000900460ff1661277a57604080517f08c379a000000000000000000000000000000000000000000000000000000000815260206004820152601460248201527f5061757361626c653a206e6f7420706175736564000000000000000000000000604482015290519081900360640190fd5b600080547fffffffffffffffffffffff00ffffffffffffffffffffffffffffffffffffffff1690557f5db9ee0a495bf2e6ff9c91a7834c1ba4fdd244a5e8aa4e537bd38aeae4b073aa6127cb6126ed565b6040805173ffffffffffffffffffffffffffffffffffffffff9092168252519081900360200190a1565b600c80548291907fffffffffffffffffffffff00ffffffffffffffffffffffffffffffffffffffff167401000000000000000000000000000000000000000083600381111561284057fe5b02179055507fe8a97ea87e4388fa22d496b95a8ed5ced6717f49790318de2b928aaf37a021d8600c60149054906101000a900460ff16826040518083600381111561288757fe5b815260200182600381111561289857fe5b81526020019250505060405180910390a150565b6000826128bb5750600061259b565b828202828482816128c857fe5b041461291f576040517f08c379a00000000000000000000000000000000000000000000000000000000081526004018080602001828103825260218152602001806134126021913960400191505060405180910390fd5b9392505050565b600061291f83836040518060400160405280601a81526020017f536166654d6174683a206469766973696f6e206279207a65726f0000000000008152506131c0565b600061291f83836040518060400160405280601e81526020017f536166654d6174683a207375627472616374696f6e206f766572666c6f77000081525061327c565b60005474010000000000000000000000000000000000000000900460ff1615612a3457604080517f08c379a000000000000000000000000000000000000000000000000000000000815260206004820152601060248201527f5061757361626c653a2070617573656400000000000000000000000000000000604482015290519081900360640190fd5b600080547fffffffffffffffffffffff00ffffffffffffffffffffffffffffffffffffffff16740100000000000000000000000000000000000000001790557f62e78cea01bee320cd4e420270b5ea74000d11b0c9f74754ebdbfc544b05a2586127cb6126ed565b600e54604080517f70a082310000000000000000000000000000000000000000000000000000000081523060048201529051600092839273ffffffffffffffffffffffffffffffffffffffff909116916370a0823191602480820192602092909190829003018186803b158015612b1257600080fd5b505afa158015612b26573d6000803e3d6000fd5b505050506040513d6020811015612b3c57600080fd5b5051600e54604080517f23b872dd00000000000000000000000000000000000000000000000000000000815273ffffffffffffffffffffffffffffffffffffffff88811660048301523060248301526044820188905291519394509116916323b872dd9160648082019260009290919082900301818387803b158015612bc157600080fd5b505af1158015612bd5573d6000803e3d6000fd5b5050505060003d60008114612bf15760208114612c1957600080fd5b7fffffffffffffffffffffffffffffffffffffffffffffffffffffffffffffffff9150612c25565b60206000803e60005191505b5080612c9257604080517f08c379a000000000000000000000000000000000000000000000000000000000815260206004820152601860248201527f544f4b454e5f5452414e534645525f494e5f4641494c45440000000000000000604482015290519081900360640190fd5b600e54604080517f70a08231000000000000000000000000000000000000000000000000000000008152306004820152905160009273ffffffffffffffffffffffffffffffffffffffff16916370a08231916024808301926020929190829003018186803b158015612d0357600080fd5b505afa158015612d17573d6000803e3d6000fd5b505050506040513d6020811015612d2d57600080fd5b5051905082811015612da057604080517f08c379a000000000000000000000000000000000000000000000000000000000815260206004820152601a60248201527f544f4b454e5f5452414e534645525f494e5f4f564552464c4f57000000000000604482015290519081900360640190fd5b91909103949350505050565b600080612dde83600c60009054906101000a900473ffffffffffffffffffffffffffffffffffffffff16600a546132f0565b601354600e54600d54604080517fa6c3e6b9000000000000000000000000000000000000000000000000000000008152905194955073ffffffffffffffffffffffffffffffffffffffff93841694638da6def5943394811693889391169163a6c3e6b991600480820192602092909190829003018186803b158015612e6257600080fd5b505afa158015612e76573d6000803e3d6000fd5b505050506040513d6020811015612e8c57600080fd5b5051604080517fffffffff0000000000000000000000000000000000000000000000000000000060e088901b16815273ffffffffffffffffffffffffffffffffffffffff9586166004820152938516602485015260448401929092529290921660648201529051608480830192600092919082900301818387803b158015612f1357600080fd5b505af1158015612f27573d6000803e3d6000fd5b505050506000600d60009054906101000a900473ffffffffffffffffffffffffffffffffffffffff1673ffffffffffffffffffffffffffffffffffffffff1663de47f50b6040518163ffffffff1660e01b815260040160206040518083038186803b158015612f9557600080fd5b505afa158015612fa9573d6000803e3d6000fd5b505050506040513d6020811015612fbf57600080fd5b5051600b54909150811115612fd35750600b545b600061307385600d60009054906101000a900473ffffffffffffffffffffffffffffffffffffffff1673ffffffffffffffffffffffffffffffffffffffff1663a6c3e6b96040518163ffffffff1660e01b815260040160206040518083038186803b15801561304157600080fd5b505afa158015613055573d6000803e3d6000fd5b505050506040513d602081101561306b57600080fd5b5051846132f0565b905061307f8382613317565b95945050505050565b600061259b600d60009054906101000a900473ffffffffffffffffffffffffffffffffffffffff1673ffffffffffffffffffffffffffffffffffffffff1663ab56c5926040518163ffffffff1660e01b815260040160206040518083038186803b1580156130f557600080fd5b505afa158015613109573d6000803e3d6000fd5b505050506040513d602081101561311f57600080fd5b5051600d54604080517fc6bb30e2000000000000000000000000000000000000000000000000000000008152905173ffffffffffffffffffffffffffffffffffffffff9092169163c6bb30e291600480820192602092909190829003018186803b15801561318c57600080fd5b505afa1580156131a0573d6000803e3d6000fd5b505050506040513d60208110156131b657600080fd5b5051849101612926565b60008183613266576040517f08c379a00000000000000000000000000000000000000000000000000000000081526004018080602001828103825283818151815260200191508051906020019080838360005b8381101561322b578181015183820152602001613213565b50505050905090810190601f1680156132585780820380516001836020036101000a031916815260200191505b509250505060405180910390fd5b50600083858161327257fe5b0495945050505050565b600081848411156132e8576040517f08c379a000000000000000000000000000000000000000000000000000000000815260206004820181815283516024840152835190928392604490910191908501908083836000831561322b578181015183820152602001613213565b505050900390565b600061330564e8d4a5100061184b86856128ac565b9050801561291f5761291f83826125a1565b60008282018381101561291f57604080517f08c379a000000000000000000000000000000000000000000000000000000000815260206004820152601b60248201527f536166654d6174683a206164646974696f6e206f766572666c6f770000000000604482015290519081900360640190fd5b8280548282559060005260206000209081019282156133c6579160200282015b828111156133c65782518255916020019190600101906133ab565b506133d29291506133d6565b5090565b5b808211156133d257600081556001016133d756fe4f776e61626c653a206e6577206f776e657220697320746865207a65726f2061646472657373536166654d6174683a206d756c7469706c69636174696f6e206f766572666c6f77a2646970667358221220aed0747c01a7a9733e7e1b42e2162d475845334e4f5fc3b7f30ef97f610c07b864736f6c634300060c0033",
  "immutableReferences": {},
  "source": "// \"SPDX-License-Identifier: GNU General Public License v3.0\"\n\npragma solidity 0.6.12;\n\nimport \"@openzeppelin/contracts/math/SafeMath.sol\";\nimport \"@openzeppelin/contracts/token/ERC20/IERC20.sol\";\nimport \"@openzeppelin/contracts/utils/ReentrancyGuard.sol\";\nimport \"@openzeppelin/contracts/access/Ownable.sol\";\nimport \"@openzeppelin/contracts/utils/Pausable.sol\";\n\nimport \"./tokens/EIP20NonStandardInterface.sol\";\n\nimport \"./IDerivativeSpecification.sol\";\nimport \"./collateralSplits/ICollateralSplit.sol\";\nimport \"./tokens/IERC20MintedBurnable.sol\";\nimport \"./tokens/ITokenBuilder.sol\";\nimport \"./IFeeLogger.sol\";\n\nimport \"./IPausableVault.sol\";\n\n/// @title Derivative implementation Vault\n/// @notice A smart contract that references derivative specification and enables users to mint and redeem the derivative\ncontract Vault is Ownable, Pausable, IPausableVault, ReentrancyGuard {\n    using SafeMath for uint256;\n    using SafeMath for uint8;\n\n    uint256 public constant FRACTION_MULTIPLIER = 10**12;\n\n    enum State { Created, Minting, Live, Settled }\n\n    event StateChanged(State oldState, State newState);\n    event MintingStateSet(address primaryToken, address complementToken);\n    event LiveStateSet();\n    event SettledStateSet(int256[] underlyingStarts, int256[] underlyingEnds, uint256 primaryConversion, uint256 complementConversion);\n    event Minted(uint256 minted, uint256 collateral, uint256 fee);\n    event Refunded(uint256 tokenAmount, uint256 collateral);\n    event Redeemed(uint256 tokenAmount, uint256 conversion, uint256 collateral, bool isPrimary);\n\n    /// @notice vault initialization time\n    uint256 public initializationTime;\n    /// @notice start of live period\n    uint256 public liveTime;\n    /// @notice end of live period\n    uint256 public settleTime;\n\n    /// @notice redeem function can only be called after the end of the Live period + delay\n    uint256 public settlementDelay;\n\n    /// @notice underlying value at the start of live period\n    int256[] public underlyingStarts;\n    /// @notice underlying value at the end of live period\n    int256[] public underlyingEnds;\n\n    /// @notice primary token conversion rate multiplied by 10 ^ 12\n    uint256 public primaryConversion;\n    /// @notice complement token conversion rate multiplied by 10 ^ 12\n    uint256 public complementConversion;\n\n    /// @notice protocol fee multiplied by 10 ^ 12\n    uint256 public protocolFee;\n    /// @notice limit on author fee multiplied by 10 ^ 12\n    uint256 public authorFeeLimit;\n\n    // @notice protocol's fee receiving wallet\n    address public feeWallet;\n\n    // @notice current state of the vault\n    State public state;\n\n    // @notice derivative specification address\n    IDerivativeSpecification public derivativeSpecification;\n    // @notice collateral token address\n    IERC20 public collateralToken;\n    // @notice oracle address\n    address[] public oracles;\n    address[] public oracleIterators;\n    // @notice collateral split address\n    ICollateralSplit public collateralSplit;\n    // @notice derivative's token builder strategy address\n    ITokenBuilder public tokenBuilder;\n    IFeeLogger public feeLogger;\n\n    // @notice primary token address\n    IERC20MintedBurnable public primaryToken;\n    // @notice complement token address\n    IERC20MintedBurnable public complementToken;\n\n    constructor(\n        uint256 _initializationTime,\n        uint256 _protocolFee,\n        address _feeWallet,\n        address _derivativeSpecification,\n        address _collateralToken,\n        address[] memory _oracles,\n        address[] memory _oracleIterators,\n        address _collateralSplit,\n        address _tokenBuilder,\n        address _feeLogger,\n        uint256 _authorFeeLimit,\n        uint256 _settlementDelay\n    ) public {\n        require(_initializationTime > 0, \"Initialization time\");\n        initializationTime = _initializationTime;\n\n        protocolFee = _protocolFee;\n\n        require(_feeWallet != address(0), \"Fee wallet\");\n        feeWallet = _feeWallet;\n\n        require(_derivativeSpecification != address(0), \"Derivative\");\n        derivativeSpecification = IDerivativeSpecification(_derivativeSpecification);\n\n        require(_collateralToken != address(0), \"Collateral token\");\n        collateralToken = IERC20(_collateralToken);\n\n        require(_oracles.length > 0, \"Oracles\");\n        require(_oracles[0] != address(0), \"First oracle is absent\");\n        oracles = _oracles;\n\n        require(_oracleIterators.length > 0, \"OracleIterators\");\n        require(_oracleIterators[0] != address(0), \"First oracle iterator is absent\");\n        oracleIterators = _oracleIterators;\n\n        require(_collateralSplit != address(0), \"Collateral split\");\n        collateralSplit = ICollateralSplit(_collateralSplit);\n\n        require(_tokenBuilder != address(0), \"Token builder\");\n        tokenBuilder = ITokenBuilder(_tokenBuilder);\n\n        require(_feeLogger != address(0), \"Fee logger\");\n        feeLogger = IFeeLogger(_feeLogger);\n\n        authorFeeLimit = _authorFeeLimit;\n\n        liveTime = initializationTime + derivativeSpecification.mintingPeriod();\n        require(liveTime > block.timestamp, \"Live time\");\n        settleTime = liveTime + derivativeSpecification.livePeriod();\n\n        settlementDelay = _settlementDelay;\n    }\n\n    function pause() external override onlyOwner() {\n        _pause();\n    }\n\n    function unpause() external override onlyOwner() {\n        _unpause();\n    }\n\n    /// @notice Initialize vault by creating derivative token and switching to Minting state\n    /// @dev Extracted from constructor to reduce contract gas creation amount\n    function initialize() external {\n        require(state == State.Created, \"Incorrect state.\");\n\n        changeState(State.Minting);\n\n        (primaryToken, complementToken) = tokenBuilder.buildTokens(derivativeSpecification, settleTime, address(collateralToken));\n\n        emit MintingStateSet(address(primaryToken), address(complementToken));\n    }\n\n    /// @notice Switch to Live state if appropriate time threshold is passed\n    function live() public {\n        require(state == State.Minting, 'Incorrect state');\n        require(block.timestamp >= liveTime, \"Incorrect time\");\n        changeState(State.Live);\n\n        emit LiveStateSet();\n    }\n\n    function changeState(State _newState) internal {\n        state = _newState;\n        emit StateChanged(state, _newState);\n    }\n\n\n    /// @notice Switch to Settled state if appropriate time threshold is passed and\n    /// set underlyingStarts value and set underlyingEnds value,\n    /// calculate primaryConversion and complementConversion params\n    /// @dev Reverts if underlyingStart or underlyingEnd are not available\n    /// Vault cannot settle when it paused\n    function settle(uint256[] memory _underlyingStartRoundHints, uint256[] memory _underlyingEndRoundHints)\n    public whenNotPaused() {\n        require(state == State.Live, \"Incorrect state\");\n        require(block.timestamp >= settleTime + settlementDelay, \"Incorrect time\");\n        changeState(State.Settled);\n\n        uint256 split;\n        (split, underlyingStarts, underlyingEnds) = collateralSplit.split(\n            oracles, oracleIterators, liveTime, settleTime, _underlyingStartRoundHints, _underlyingEndRoundHints\n        );\n        split = range(split);\n\n        uint256 collectedCollateral = collateralToken.balanceOf(address(this));\n        uint256 mintedPrimaryTokenAmount = primaryToken.totalSupply();\n\n        if(mintedPrimaryTokenAmount > 0) {\n            uint256 primaryCollateralPortion = collectedCollateral.mul(split);\n            primaryConversion = primaryCollateralPortion.div(mintedPrimaryTokenAmount);\n            complementConversion = collectedCollateral.mul(FRACTION_MULTIPLIER).sub(primaryCollateralPortion).div(mintedPrimaryTokenAmount);\n        }\n\n        emit SettledStateSet(underlyingStarts, underlyingEnds, primaryConversion, complementConversion);\n    }\n\n    function range(uint256 _split) public pure returns(uint256) {\n        if(_split > FRACTION_MULTIPLIER) {\n            return FRACTION_MULTIPLIER;\n        }\n        return _split;\n    }\n\n    /// @notice Mints primary and complement derivative tokens\n    /// @dev Checks and switches to the right state and does nothing if vault is not in Minting state\n    function mint(uint256 _collateralAmount) external nonReentrant() {\n        if(block.timestamp >= liveTime && state == State.Minting) {\n            live();\n        }\n\n        require(state == State.Minting, 'Minting period is over');\n\n        require(_collateralAmount > 0, \"Zero amount\");\n        _collateralAmount = doTransferIn(msg.sender, _collateralAmount);\n\n        uint256 feeAmount = withdrawFee(_collateralAmount);\n\n        uint256 netAmount = _collateralAmount.sub(feeAmount);\n\n        uint256 tokenAmount = denominate(netAmount);\n\n        primaryToken.mint(msg.sender, tokenAmount);\n        complementToken.mint(msg.sender, tokenAmount);\n\n        emit Minted(tokenAmount, _collateralAmount, feeAmount);\n    }\n\n    /// @notice Refund equal amounts of derivative tokens for collateral at any time\n    function refund(uint256 _tokenAmount) external nonReentrant() {\n        require(_tokenAmount > 0, \"Zero amount\");\n        require(_tokenAmount <= primaryToken.balanceOf(msg.sender), \"Insufficient primary amount\");\n        require(_tokenAmount <= complementToken.balanceOf(msg.sender), \"Insufficient complement amount\");\n\n        primaryToken.burnFrom(msg.sender, _tokenAmount);\n        complementToken.burnFrom(msg.sender, _tokenAmount);\n        uint256 unDenominated = unDenominate(_tokenAmount);\n\n        emit Refunded(_tokenAmount, unDenominated);\n        doTransferOut(msg.sender, unDenominated);\n    }\n\n    /// @notice Redeems unequal amounts previously calculated conversions if the vault is in Settled state\n    function redeem(\n        uint256 _primaryTokenAmount,\n        uint256 _complementTokenAmount,\n        uint256[] memory _underlyingStartRoundHints,\n        uint256[] memory _underlyingEndRoundHints\n    ) external nonReentrant() {\n        require(_primaryTokenAmount > 0 || _complementTokenAmount > 0, \"Both tokens zero amount\");\n        require(_primaryTokenAmount <= primaryToken.balanceOf(msg.sender), \"Insufficient primary amount\");\n        require(_complementTokenAmount <= complementToken.balanceOf(msg.sender), \"Insufficient complement amount\");\n\n        if(block.timestamp >= liveTime && state == State.Minting) {\n            live();\n        }\n\n        if(block.timestamp >= settleTime && state == State.Live) {\n            settle(_underlyingStartRoundHints, _underlyingEndRoundHints);\n        }\n\n        if(state == State.Settled) {\n            redeemAsymmetric(primaryToken, _primaryTokenAmount, true);\n            redeemAsymmetric(complementToken, _complementTokenAmount, false);\n        }\n    }\n\n    function redeemAsymmetric(IERC20MintedBurnable _derivativeToken, uint256 _amount, bool _isPrimary) internal {\n        if(_amount > 0) {\n            _derivativeToken.burnFrom(msg.sender, _amount);\n            uint256 conversion = _isPrimary ? primaryConversion : complementConversion;\n            uint256 collateral = _amount.mul(conversion).div(FRACTION_MULTIPLIER);\n            emit Redeemed(_amount, conversion, collateral, _isPrimary);\n            if(collateral > 0) {\n                doTransferOut(msg.sender, collateral);\n            }\n        }\n    }\n\n    function denominate(uint256 _collateralAmount) internal view returns(uint256) {\n        return _collateralAmount.div(derivativeSpecification.primaryNominalValue() + derivativeSpecification.complementNominalValue());\n    }\n\n    function unDenominate(uint256 _tokenAmount) internal view returns(uint256) {\n        return _tokenAmount.mul(derivativeSpecification.primaryNominalValue() + derivativeSpecification.complementNominalValue());\n    }\n\n    function withdrawFee(uint256 _amount) internal returns(uint256){\n        uint256 protocolFeeAmount = calcAndTransferFee(_amount, payable(feeWallet), protocolFee);\n\n        feeLogger.log(msg.sender, address(collateralToken), protocolFeeAmount, derivativeSpecification.author());\n\n        uint256 authorFee = derivativeSpecification.authorFee();\n        if(authorFee > authorFeeLimit) {\n            authorFee = authorFeeLimit;\n        }\n        uint256 authorFeeAmount = calcAndTransferFee(_amount, payable(derivativeSpecification.author()), authorFee);\n\n        return protocolFeeAmount.add(authorFeeAmount);\n    }\n\n    function calcAndTransferFee(uint256 _amount, address payable _beneficiary, uint256 _fee)\n    internal returns(uint256 _feeAmount){\n        _feeAmount = _amount.mul(_fee).div(FRACTION_MULTIPLIER);\n        if(_feeAmount > 0) {\n            doTransferOut(_beneficiary, _feeAmount);\n        }\n    }\n\n    /// @dev Similar to EIP20 transfer, except it handles a False result from `transferFrom` and reverts in that case.\n    /// This will revert due to insufficient balance or insufficient allowance.\n    /// This function returns the actual amount received,\n    /// which may be less than `amount` if there is a fee attached to the transfer.\n    /// @notice This wrapper safely handles non-standard ERC-20 tokens that do not return a value.\n    /// See here: https://medium.com/coinmonks/missing-return-value-bug-at-least-130-tokens-affected-d67bf08521ca\n    function doTransferIn(address from, uint256 amount) internal returns (uint256) {\n        uint256 balanceBefore = collateralToken.balanceOf(address(this));\n        EIP20NonStandardInterface(address(collateralToken)).transferFrom(from, address(this), amount);\n\n        bool success;\n        assembly {\n            switch returndatasize()\n            case 0 {                       // This is a non-standard ERC-20\n                success := not(0)          // set success to true\n            }\n            case 32 {                      // This is a compliant ERC-20\n                returndatacopy(0, 0, 32)\n                success := mload(0)        // Set `success = returndata` of external call\n            }\n            default {                      // This is an excessively non-compliant ERC-20, revert.\n                revert(0, 0)\n            }\n        }\n        require(success, \"TOKEN_TRANSFER_IN_FAILED\");\n\n        // Calculate the amount that was *actually* transferred\n        uint256 balanceAfter = collateralToken.balanceOf(address(this));\n        require(balanceAfter >= balanceBefore, \"TOKEN_TRANSFER_IN_OVERFLOW\");\n        return balanceAfter - balanceBefore;   // underflow already checked above, just subtract\n    }\n\n    /// @dev Similar to EIP20 transfer, except it handles a False success from `transfer` and returns an explanatory\n    /// error code rather than reverting. If caller has not called checked protocol's balance, this may revert due to\n    /// insufficient cash held in this contract. If caller has checked protocol's balance prior to this call, and verified\n    /// it is >= amount, this should not revert in normal conditions.\n    /// @notice This wrapper safely handles non-standard ERC-20 tokens that do not return a value.\n    /// See here: https://medium.com/coinmonks/missing-return-value-bug-at-least-130-tokens-affected-d67bf08521ca\n    function doTransferOut(address to, uint256 amount) internal {\n        EIP20NonStandardInterface(address(collateralToken)).transfer(to, amount);\n\n        bool success;\n        assembly {\n            switch returndatasize()\n            case 0 {                      // This is a non-standard ERC-20\n                success := not(0)          // set success to true\n            }\n            case 32 {                     // This is a complaint ERC-20\n                returndatacopy(0, 0, 32)\n                success := mload(0)        // Set `success = returndata` of external call\n            }\n            default {                     // This is an excessively non-compliant ERC-20, revert.\n                revert(0, 0)\n            }\n        }\n        require(success, \"TOKEN_TRANSFER_OUT_FAILED\");\n    }\n}\n",
  "sourcePath": "/Users/achiko/Documents/elva/projects/compli.fi/complifi-protocol/contracts/Vault.sol",
  "compiler": {
    "name": "solc",
    "version": "0.6.12+commit.27d51765.Emscripten.clang"
  },
  "schemaVersion": "3.3.1",
  "updatedAt": "2020-11-03T13:08:28.279Z",
  "devdoc": {
    "kind": "dev",
    "methods": {
      "initialize()": {
        "details": "Extracted from constructor to reduce contract gas creation amount"
      },
      "mint(uint256)": {
        "details": "Checks and switches to the right state and does nothing if vault is not in Minting state"
      },
      "owner()": {
        "details": "Returns the address of the current owner."
      },
      "paused()": {
        "details": "Returns true if the contract is paused, and false otherwise."
      },
      "renounceOwnership()": {
        "details": "Leaves the contract without owner. It will not be possible to call `onlyOwner` functions anymore. Can only be called by the current owner. NOTE: Renouncing ownership will leave the contract without an owner, thereby removing any functionality that is only available to the owner."
      },
      "settle(uint256[],uint256[])": {
        "details": "Reverts if underlyingStart or underlyingEnd are not available Vault cannot settle when it paused"
      },
      "transferOwnership(address)": {
        "details": "Transfers ownership of the contract to a new account (`newOwner`). Can only be called by the current owner."
      }
    },
    "title": "Derivative implementation Vault",
    "version": 1
  },
  "userdoc": {
    "kind": "user",
    "methods": {
      "authorFeeLimit()": {
        "notice": "limit on author fee multiplied by 10 ^ 12"
      },
      "complementConversion()": {
        "notice": "complement token conversion rate multiplied by 10 ^ 12"
      },
      "initializationTime()": {
        "notice": "vault initialization time"
      },
      "initialize()": {
        "notice": "Initialize vault by creating derivative token and switching to Minting state"
      },
      "live()": {
        "notice": "Switch to Live state if appropriate time threshold is passed"
      },
      "liveTime()": {
        "notice": "start of live period"
      },
      "mint(uint256)": {
        "notice": "Mints primary and complement derivative tokens"
      },
      "primaryConversion()": {
        "notice": "primary token conversion rate multiplied by 10 ^ 12"
      },
      "protocolFee()": {
        "notice": "protocol fee multiplied by 10 ^ 12"
      },
      "redeem(uint256,uint256,uint256[],uint256[])": {
        "notice": "Redeems unequal amounts previously calculated conversions if the vault is in Settled state"
      },
      "refund(uint256)": {
        "notice": "Refund equal amounts of derivative tokens for collateral at any time"
      },
      "settle(uint256[],uint256[])": {
        "notice": "Switch to Settled state if appropriate time threshold is passed and set underlyingStarts value and set underlyingEnds value, calculate primaryConversion and complementConversion params"
      },
      "settleTime()": {
        "notice": "end of live period"
      },
      "settlementDelay()": {
        "notice": "redeem function can only be called after the end of the Live period + delay"
      },
      "underlyingEnds(uint256)": {
        "notice": "underlying value at the end of live period"
      },
      "underlyingStarts(uint256)": {
        "notice": "underlying value at the start of live period"
      }
    },
    "notice": "A smart contract that references derivative specification and enables users to mint and redeem the derivative",
    "version": 1
  }
}