{
  "contractName": "x1Split",
  "abi": [
    {
      "inputs": [],
      "name": "FRACTION_MULTIPLIER",
      "outputs": [
        {
          "internalType": "int256",
          "name": "",
          "type": "int256"
        }
      ],
      "stateMutability": "view",
      "type": "function",
      "constant": true
    },
    {
      "inputs": [],
      "name": "NEGATIVE_INFINITY",
      "outputs": [
        {
          "internalType": "int256",
          "name": "",
          "type": "int256"
        }
      ],
      "stateMutability": "view",
      "type": "function",
      "constant": true
    },
    {
      "inputs": [],
      "name": "isCollateralSplit",
      "outputs": [
        {
          "internalType": "bool",
          "name": "",
          "type": "bool"
        }
      ],
      "stateMutability": "pure",
      "type": "function",
      "constant": true
    },
    {
      "inputs": [
        {
          "internalType": "int256",
          "name": "_u_0",
          "type": "int256"
        },
        {
          "internalType": "int256",
          "name": "_u_T",
          "type": "int256"
        }
      ],
      "name": "normalize",
      "outputs": [
        {
          "internalType": "int256",
          "name": "",
          "type": "int256"
        }
      ],
      "stateMutability": "pure",
      "type": "function",
      "constant": true
    },
    {
      "inputs": [
        {
          "internalType": "int256",
          "name": "_split",
          "type": "int256"
        }
      ],
      "name": "range",
      "outputs": [
        {
          "internalType": "uint256",
          "name": "",
          "type": "uint256"
        }
      ],
      "stateMutability": "pure",
      "type": "function",
      "constant": true
    },
    {
      "inputs": [
        {
          "internalType": "address[]",
          "name": "_oracles",
          "type": "address[]"
        },
        {
          "internalType": "address[]",
          "name": "_oracleIterators",
          "type": "address[]"
        },
        {
          "internalType": "uint256",
          "name": "_liveTime",
          "type": "uint256"
        },
        {
          "internalType": "uint256",
          "name": "_settleTime",
          "type": "uint256"
        },
        {
          "internalType": "uint256[]",
          "name": "_underlyingStartRoundHints",
          "type": "uint256[]"
        },
        {
          "internalType": "uint256[]",
          "name": "_underlyingEndRoundHints",
          "type": "uint256[]"
        }
      ],
      "name": "split",
      "outputs": [
        {
          "internalType": "uint256",
          "name": "_split",
          "type": "uint256"
        },
        {
          "internalType": "int256[]",
          "name": "_underlyingStarts",
          "type": "int256[]"
        },
        {
          "internalType": "int256[]",
          "name": "_underlyingEnds",
          "type": "int256[]"
        }
      ],
      "stateMutability": "view",
      "type": "function",
      "constant": true
    },
    {
      "inputs": [],
      "name": "symbol",
      "outputs": [
        {
          "internalType": "string",
          "name": "",
          "type": "string"
        }
      ],
      "stateMutability": "pure",
      "type": "function",
      "constant": true
    },
    {
      "inputs": [
        {
          "internalType": "int256",
          "name": "_normalizedValue",
          "type": "int256"
        }
      ],
      "name": "splitNominalValue",
      "outputs": [
        {
          "internalType": "int256",
          "name": "",
          "type": "int256"
        }
      ],
      "stateMutability": "pure",
      "type": "function",
      "constant": true
    }
  ],
  "bytecode": "0x608060405234801561001057600080fd5b50610fca806100206000396000f3fe608060405234801561001057600080fd5b50600436106100885760003560e01c8063b7580bc31161005b578063b7580bc314610164578063bb18850714610180578063df443f751461045b578063dfd105cb1461047857610088565b806305b24a711461008d5780631e18b7b2146100bc5780634dcd7dee146100df57806395d89b41146100e7575b600080fd5b6100aa600480360360208110156100a357600080fd5b5035610480565b60408051918252519081900360200190f35b6100aa600480360360408110156100d257600080fd5b50803590602001356104b2565b6100aa61067b565b6100ef61069f565b6040805160208082528351818301528351919283929083019185019080838360005b83811015610129578181015183820152602001610111565b50505050905090810190601f1680156101565780820380516001836020036101000a031916815260200191505b509250505060405180910390f35b61016c6106d6565b604080519115158252519081900360200190f35b6103bb600480360360c081101561019657600080fd5b8101906020810181356401000000008111156101b157600080fd5b8201836020820111156101c357600080fd5b803590602001918460208302840111640100000000831117156101e557600080fd5b919080806020026020016040519081016040528093929190818152602001838360200280828437600092019190915250929594936020810193503591505064010000000081111561023557600080fd5b82018360208201111561024757600080fd5b8035906020019184602083028401116401000000008311171561026957600080fd5b91908080602002602001604051908101604052809392919081815260200183836020028082843760009201919091525092958435956020860135959194509250606081019150604001356401000000008111156102c557600080fd5b8201836020820111156102d757600080fd5b803590602001918460208302840111640100000000831117156102f957600080fd5b919080806020026020016040519081016040528093929190818152602001838360200280828437600092019190915250929594936020810193503591505064010000000081111561034957600080fd5b82018360208201111561035b57600080fd5b8035906020019184602083028401116401000000008311171561037d57600080fd5b9190808060200260200160405190810160405280939291908181526020018383602002808284376000920191909152509295506106db945050505050565b604051808481526020018060200180602001838103835285818151815260200191508051906020019060200280838360005b838110156104055781810151838201526020016103ed565b50505050905001838103825284818151815260200191508051906020019060200280838360005b8381101561044457818101518382015260200161042c565b505050509050019550505050505060405180910390f35b6100aa6004803603602081101561047157600080fd5b5035610c53565b6100aa610c63565b600064e8d4a51000821261049a575064e8d4a510006104ad565b600082136104aa575060006104ad565b50805b919050565b60007f800000000000000000000000000000000000000000000000000000000000000083141561054357604080517f08c379a000000000000000000000000000000000000000000000000000000000815260206004820152600d60248201527f755f3020697320616273656e7400000000000000000000000000000000000000604482015290519081900360640190fd5b7f80000000000000000000000000000000000000000000000000000000000000008214156105d257604080517f08c379a000000000000000000000000000000000000000000000000000000000815260206004820152600d60248201527f755f5420697320616273656e7400000000000000000000000000000000000000604482015290519081900360640190fd5b6000831361064157604080517f08c379a000000000000000000000000000000000000000000000000000000000815260206004820152601960248201527f755f30206973206c657373206f7220657175616c207a65726f00000000000000604482015290519081900360640190fd5b600082121561064f57600091505b6106728361066c64e8d4a510006106668684610c6c565b90610ceb565b90610e02565b90505b92915050565b7f800000000000000000000000000000000000000000000000000000000000000081565b60408051808201909152600281527f7831000000000000000000000000000000000000000000000000000000000000602082015290565b600190565b6000606080885160011461075057604080517f08c379a000000000000000000000000000000000000000000000000000000000815260206004820152601460248201527f4d6f7265207468616e206f6e65206f7261636c65000000000000000000000000604482015290519081900360640190fd5b600073ffffffffffffffffffffffffffffffffffffffff168960008151811061077557fe5b602002602001015173ffffffffffffffffffffffffffffffffffffffff16141561080057604080517f08c379a000000000000000000000000000000000000000000000000000000000815260206004820152600f60248201527f4f7261636c6520697320656d7074790000000000000000000000000000000000604482015290519081900360640190fd5b600073ffffffffffffffffffffffffffffffffffffffff168860008151811061082557fe5b602002602001015173ffffffffffffffffffffffffffffffffffffffff1614156108b057604080517f08c379a000000000000000000000000000000000000000000000000000000000815260206004820152601860248201527f4f7261636c65206974657261746f7220697320656d7074790000000000000000604482015290519081900360640190fd5b604080516001808252818301909252906020808301908036833750506040805160018082528183019092529294509050602080830190803683370190505090506000886000815181106108ff57fe5b602002602001015190508073ffffffffffffffffffffffffffffffffffffffff166312df4d3e6040518163ffffffff1660e01b815260040160206040518083038186803b15801561094f57600080fd5b505afa158015610963573d6000803e3d6000fd5b505050506040513d602081101561097957600080fd5b50516109e657604080517f08c379a000000000000000000000000000000000000000000000000000000000815260206004820152601360248201527f4e6f74206f7261636c65206974657261746f7200000000000000000000000000604482015290519081900360640190fd5b8073ffffffffffffffffffffffffffffffffffffffff166376d68cb68b600081518110610a0f57fe5b60200260200101518a896040518463ffffffff1660e01b8152600401808473ffffffffffffffffffffffffffffffffffffffff16815260200183815260200180602001828103825283818151815260200191508051906020019060200280838360005b83811015610a8a578181015183820152602001610a72565b5050505090500194505050505060206040518083038186803b158015610aaf57600080fd5b505afa158015610ac3573d6000803e3d6000fd5b505050506040513d6020811015610ad957600080fd5b505183518490600090610ae857fe5b6020026020010181815250508073ffffffffffffffffffffffffffffffffffffffff166376d68cb68b600081518110610b1d57fe5b602002602001015189886040518463ffffffff1660e01b8152600401808473ffffffffffffffffffffffffffffffffffffffff16815260200183815260200180602001828103825283818151815260200191508051906020019060200280838360005b83811015610b98578181015183820152602001610b80565b5050505090500194505050505060206040518083038186803b158015610bbd57600080fd5b505afa158015610bd1573d6000803e3d6000fd5b505050506040513d6020811015610be757600080fd5b505182518390600090610bf657fe5b602002602001018181525050610c44610c3f610c3a85600081518110610c1857fe5b602002602001015185600081518110610c2d57fe5b60200260200101516104b2565b610c53565b610480565b93505096509650969350505050565b600264e8d4a51000919091010590565b64e8d4a5100081565b6000818303818312801590610c815750838113155b80610c965750600083128015610c9657508381135b610672576040517f08c379a0000000000000000000000000000000000000000000000000000000008152600401808060200182810382526024815260200180610f716024913960400191505060405180910390fd5b600082610cfa57506000610675565b827fffffffffffffffffffffffffffffffffffffffffffffffffffffffffffffffff148015610d4857507f800000000000000000000000000000000000000000000000000000000000000082145b15610d9e576040517f08c379a0000000000000000000000000000000000000000000000000000000008152600401808060200182810382526027815260200180610f4a6027913960400191505060405180910390fd5b82820282848281610dab57fe5b0514610672576040517f08c379a0000000000000000000000000000000000000000000000000000000008152600401808060200182810382526027815260200180610f4a6027913960400191505060405180910390fd5b600081610e7057604080517f08c379a000000000000000000000000000000000000000000000000000000000815260206004820181905260248201527f5369676e6564536166654d6174683a206469766973696f6e206279207a65726f604482015290519081900360640190fd5b817fffffffffffffffffffffffffffffffffffffffffffffffffffffffffffffffff148015610ebe57507f800000000000000000000000000000000000000000000000000000000000000083145b15610f14576040517f08c379a0000000000000000000000000000000000000000000000000000000008152600401808060200182810382526021815260200180610f296021913960400191505060405180910390fd5b6000828481610f1f57fe5b0594935050505056fe5369676e6564536166654d6174683a206469766973696f6e206f766572666c6f775369676e6564536166654d6174683a206d756c7469706c69636174696f6e206f766572666c6f775369676e6564536166654d6174683a207375627472616374696f6e206f766572666c6f77a264697066735822122039e3df00133131108dde49b7e204cc50ef6acdc4552490b8e4aa16eac3da3be064736f6c634300060c0033",
  "immutableReferences": {},
  "source": "// \"SPDX-License-Identifier: GNU General Public License v3.0\"\n\npragma solidity 0.6.12;\n\nimport \"./CollateralSplitParent.sol\";\n\ncontract x1Split is CollateralSplitParent {\n    function symbol() external override pure returns (string memory) {\n        return 'x1';\n    }\n\n    function splitNominalValue(int _normalizedValue) public override pure returns(int){\n        return (FRACTION_MULTIPLIER + _normalizedValue) / 2 ;\n    }\n}\n",
  "sourcePath": "/Users/achiko/Documents/elva/projects/compli.fi/complifi-protocol/contracts/collateralSplits/x1Split.sol",
  "compiler": {
    "name": "solc",
    "version": "0.6.12+commit.27d51765.Emscripten.clang"
  },
  "schemaVersion": "3.3.1",
  "updatedAt": "2020-11-03T13:23:36.542Z",
  "networkType": "ethereum",
  "devdoc": {
    "kind": "dev",
    "methods": {
      "isCollateralSplit()": {
        "details": "Verifies that contract is a collateral split contract",
        "returns": {
          "_0": "true if contract is a collateral split contract"
        }
      },
      "split(address[],address[],uint256,uint256,uint256[],uint256[])": {
        "details": "Returns ranged value between 0 and 1 multiplied by 10 ^ 12",
        "params": {
          "_underlyingEndRoundHints": "specify for each oracle round of the end of Live period",
          "_underlyingStartRoundHints": "specify for each oracle round of the start of Live period"
        },
        "returns": {
          "_split": "primary asset class' share of collateral at settlement",
          "_underlyingEnds": "underlying values in the end of Live period",
          "_underlyingStarts": "underlying values in the start of Live period"
        }
      },
      "symbol()": {
        "details": "Should be resolved through CollateralSplitRegistry contract",
        "returns": {
          "_0": "collateral split specification symbol"
        }
      }
    },
    "version": 1
  },
  "userdoc": {
    "kind": "user",
    "methods": {
      "isCollateralSplit()": {
        "notice": "Proof of collateral split contract"
      },
      "split(address[],address[],uint256,uint256,uint256[],uint256[])": {
        "notice": "Calcs primary asset class' share of collateral at settlement."
      },
      "symbol()": {
        "notice": "Symbol of the collateral split"
      }
    },
    "version": 1
  }
}