{
  "contractName": "Black",
  "abi": [
    {
      "anonymous": false,
      "inputs": [
        {
          "indexed": true,
          "internalType": "address",
          "name": "owner",
          "type": "address"
        },
        {
          "indexed": true,
          "internalType": "address",
          "name": "spender",
          "type": "address"
        },
        {
          "indexed": false,
          "internalType": "uint256",
          "name": "value",
          "type": "uint256"
        }
      ],
      "name": "Approval",
      "type": "event"
    },
    {
      "anonymous": false,
      "inputs": [
        {
          "indexed": true,
          "internalType": "address",
          "name": "account",
          "type": "address"
        }
      ],
      "name": "MinterAdded",
      "type": "event"
    },
    {
      "anonymous": false,
      "inputs": [
        {
          "indexed": true,
          "internalType": "address",
          "name": "account",
          "type": "address"
        }
      ],
      "name": "MinterRemoved",
      "type": "event"
    },
    {
      "anonymous": false,
      "inputs": [
        {
          "indexed": true,
          "internalType": "address",
          "name": "previousOwner",
          "type": "address"
        },
        {
          "indexed": true,
          "internalType": "address",
          "name": "newOwner",
          "type": "address"
        }
      ],
      "name": "OwnershipTransferred",
      "type": "event"
    },
    {
      "anonymous": false,
      "inputs": [
        {
          "indexed": false,
          "internalType": "address",
          "name": "account",
          "type": "address"
        }
      ],
      "name": "Paused",
      "type": "event"
    },
    {
      "anonymous": false,
      "inputs": [
        {
          "indexed": true,
          "internalType": "address",
          "name": "account",
          "type": "address"
        }
      ],
      "name": "PauserAdded",
      "type": "event"
    },
    {
      "anonymous": false,
      "inputs": [
        {
          "indexed": true,
          "internalType": "address",
          "name": "account",
          "type": "address"
        }
      ],
      "name": "PauserRemoved",
      "type": "event"
    },
    {
      "anonymous": false,
      "inputs": [
        {
          "indexed": true,
          "internalType": "address",
          "name": "from",
          "type": "address"
        },
        {
          "indexed": true,
          "internalType": "address",
          "name": "to",
          "type": "address"
        },
        {
          "indexed": false,
          "internalType": "uint256",
          "name": "value",
          "type": "uint256"
        }
      ],
      "name": "Transfer",
      "type": "event"
    },
    {
      "anonymous": false,
      "inputs": [
        {
          "indexed": false,
          "internalType": "address",
          "name": "account",
          "type": "address"
        }
      ],
      "name": "Unpaused",
      "type": "event"
    },
    {
      "constant": false,
      "inputs": [
        {
          "internalType": "address",
          "name": "account",
          "type": "address"
        }
      ],
      "name": "addPauser",
      "outputs": [],
      "payable": false,
      "stateMutability": "nonpayable",
      "type": "function"
    },
    {
      "constant": true,
      "inputs": [
        {
          "internalType": "address",
          "name": "owner",
          "type": "address"
        },
        {
          "internalType": "address",
          "name": "spender",
          "type": "address"
        }
      ],
      "name": "allowance",
      "outputs": [
        {
          "internalType": "uint256",
          "name": "",
          "type": "uint256"
        }
      ],
      "payable": false,
      "stateMutability": "view",
      "type": "function"
    },
    {
      "constant": false,
      "inputs": [
        {
          "internalType": "address",
          "name": "spender",
          "type": "address"
        },
        {
          "internalType": "uint256",
          "name": "value",
          "type": "uint256"
        }
      ],
      "name": "approve",
      "outputs": [
        {
          "internalType": "bool",
          "name": "",
          "type": "bool"
        }
      ],
      "payable": false,
      "stateMutability": "nonpayable",
      "type": "function"
    },
    {
      "constant": true,
      "inputs": [
        {
          "internalType": "address",
          "name": "owner",
          "type": "address"
        }
      ],
      "name": "balanceOf",
      "outputs": [
        {
          "internalType": "uint256",
          "name": "",
          "type": "uint256"
        }
      ],
      "payable": false,
      "stateMutability": "view",
      "type": "function"
    },
    {
      "constant": false,
      "inputs": [
        {
          "internalType": "uint256",
          "name": "value",
          "type": "uint256"
        }
      ],
      "name": "burn",
      "outputs": [],
      "payable": false,
      "stateMutability": "nonpayable",
      "type": "function"
    },
    {
      "constant": false,
      "inputs": [
        {
          "internalType": "address",
          "name": "from",
          "type": "address"
        },
        {
          "internalType": "uint256",
          "name": "value",
          "type": "uint256"
        }
      ],
      "name": "burnFrom",
      "outputs": [],
      "payable": false,
      "stateMutability": "nonpayable",
      "type": "function"
    },
    {
      "constant": true,
      "inputs": [],
      "name": "decimals",
      "outputs": [
        {
          "internalType": "uint8",
          "name": "",
          "type": "uint8"
        }
      ],
      "payable": false,
      "stateMutability": "view",
      "type": "function"
    },
    {
      "constant": false,
      "inputs": [
        {
          "internalType": "address",
          "name": "spender",
          "type": "address"
        },
        {
          "internalType": "uint256",
          "name": "subtractedValue",
          "type": "uint256"
        }
      ],
      "name": "decreaseAllowance",
      "outputs": [
        {
          "internalType": "bool",
          "name": "success",
          "type": "bool"
        }
      ],
      "payable": false,
      "stateMutability": "nonpayable",
      "type": "function"
    },
    {
      "constant": false,
      "inputs": [
        {
          "internalType": "address",
          "name": "spender",
          "type": "address"
        },
        {
          "internalType": "uint256",
          "name": "addedValue",
          "type": "uint256"
        }
      ],
      "name": "increaseAllowance",
      "outputs": [
        {
          "internalType": "bool",
          "name": "success",
          "type": "bool"
        }
      ],
      "payable": false,
      "stateMutability": "nonpayable",
      "type": "function"
    },
    {
      "constant": true,
      "inputs": [
        {
          "internalType": "address",
          "name": "account",
          "type": "address"
        }
      ],
      "name": "isMinter",
      "outputs": [
        {
          "internalType": "bool",
          "name": "",
          "type": "bool"
        }
      ],
      "payable": false,
      "stateMutability": "view",
      "type": "function"
    },
    {
      "constant": true,
      "inputs": [],
      "name": "isOwner",
      "outputs": [
        {
          "internalType": "bool",
          "name": "",
          "type": "bool"
        }
      ],
      "payable": false,
      "stateMutability": "view",
      "type": "function"
    },
    {
      "constant": true,
      "inputs": [
        {
          "internalType": "address",
          "name": "account",
          "type": "address"
        }
      ],
      "name": "isPauser",
      "outputs": [
        {
          "internalType": "bool",
          "name": "",
          "type": "bool"
        }
      ],
      "payable": false,
      "stateMutability": "view",
      "type": "function"
    },
    {
      "constant": false,
      "inputs": [
        {
          "internalType": "address",
          "name": "to",
          "type": "address"
        },
        {
          "internalType": "uint256",
          "name": "value",
          "type": "uint256"
        }
      ],
      "name": "mint",
      "outputs": [
        {
          "internalType": "bool",
          "name": "",
          "type": "bool"
        }
      ],
      "payable": false,
      "stateMutability": "nonpayable",
      "type": "function"
    },
    {
      "constant": true,
      "inputs": [],
      "name": "name",
      "outputs": [
        {
          "internalType": "string",
          "name": "",
          "type": "string"
        }
      ],
      "payable": false,
      "stateMutability": "view",
      "type": "function"
    },
    {
      "constant": true,
      "inputs": [],
      "name": "owner",
      "outputs": [
        {
          "internalType": "address",
          "name": "",
          "type": "address"
        }
      ],
      "payable": false,
      "stateMutability": "view",
      "type": "function"
    },
    {
      "constant": false,
      "inputs": [],
      "name": "pause",
      "outputs": [],
      "payable": false,
      "stateMutability": "nonpayable",
      "type": "function"
    },
    {
      "constant": true,
      "inputs": [],
      "name": "paused",
      "outputs": [
        {
          "internalType": "bool",
          "name": "",
          "type": "bool"
        }
      ],
      "payable": false,
      "stateMutability": "view",
      "type": "function"
    },
    {
      "constant": false,
      "inputs": [],
      "name": "renounceMinter",
      "outputs": [],
      "payable": false,
      "stateMutability": "nonpayable",
      "type": "function"
    },
    {
      "constant": false,
      "inputs": [],
      "name": "renounceOwnership",
      "outputs": [],
      "payable": false,
      "stateMutability": "nonpayable",
      "type": "function"
    },
    {
      "constant": false,
      "inputs": [],
      "name": "renouncePauser",
      "outputs": [],
      "payable": false,
      "stateMutability": "nonpayable",
      "type": "function"
    },
    {
      "constant": true,
      "inputs": [],
      "name": "symbol",
      "outputs": [
        {
          "internalType": "string",
          "name": "",
          "type": "string"
        }
      ],
      "payable": false,
      "stateMutability": "view",
      "type": "function"
    },
    {
      "constant": true,
      "inputs": [],
      "name": "totalSupply",
      "outputs": [
        {
          "internalType": "uint256",
          "name": "",
          "type": "uint256"
        }
      ],
      "payable": false,
      "stateMutability": "view",
      "type": "function"
    },
    {
      "constant": false,
      "inputs": [
        {
          "internalType": "address",
          "name": "to",
          "type": "address"
        },
        {
          "internalType": "uint256",
          "name": "value",
          "type": "uint256"
        }
      ],
      "name": "transfer",
      "outputs": [
        {
          "internalType": "bool",
          "name": "",
          "type": "bool"
        }
      ],
      "payable": false,
      "stateMutability": "nonpayable",
      "type": "function"
    },
    {
      "constant": false,
      "inputs": [
        {
          "internalType": "address",
          "name": "from",
          "type": "address"
        },
        {
          "internalType": "address",
          "name": "to",
          "type": "address"
        },
        {
          "internalType": "uint256",
          "name": "value",
          "type": "uint256"
        }
      ],
      "name": "transferFrom",
      "outputs": [
        {
          "internalType": "bool",
          "name": "",
          "type": "bool"
        }
      ],
      "payable": false,
      "stateMutability": "nonpayable",
      "type": "function"
    },
    {
      "constant": false,
      "inputs": [
        {
          "internalType": "address",
          "name": "newOwner",
          "type": "address"
        }
      ],
      "name": "transferOwnership",
      "outputs": [],
      "payable": false,
      "stateMutability": "nonpayable",
      "type": "function"
    },
    {
      "constant": false,
      "inputs": [],
      "name": "unpause",
      "outputs": [],
      "payable": false,
      "stateMutability": "nonpayable",
      "type": "function"
    },
    {
      "constant": false,
      "inputs": [
        {
          "internalType": "address",
          "name": "_minter",
          "type": "address"
        }
      ],
      "name": "removeMinter",
      "outputs": [],
      "payable": false,
      "stateMutability": "nonpayable",
      "type": "function"
    },
    {
      "constant": false,
      "inputs": [
        {
          "internalType": "address",
          "name": "_minter",
          "type": "address"
        }
      ],
      "name": "addMinter",
      "outputs": [],
      "payable": false,
      "stateMutability": "nonpayable",
      "type": "function"
    }
  ],
  "bytecode": "0x6080604052620000183364010000000062000088810204565b6004805460ff191690556200003633640100000000620000da810204565b60068054600160a060020a031916331790819055604051600160a060020a0391909116906000907f8be0079c531659141344cd1fd0a4f28419497f9722a3daafe3b4186f6b6457e0908290a3620001bb565b620000a360038264010000000062000f5c6200012c82021704565b604051600160a060020a038216907f6719d08c1888103bea251a4ed56406bd0c3e69723c8a1686e017e7bbe159b6f890600090a250565b620000f560058264010000000062000f5c6200012c82021704565b604051600160a060020a038216907f6ae172837ea30b801fbfcdd4108aa1d5bf8ff775444fd70256b44e6bf3dfc3f690600090a250565b600160a060020a0381166200014057600080fd5b62000155828264010000000062000185810204565b156200016057600080fd5b600160a060020a0316600090815260209190915260409020805460ff19166001179055565b6000600160a060020a0382166200019b57600080fd5b50600160a060020a03166000908152602091909152604090205460ff1690565b610fdd80620001cb6000396000f3fe608060405234801561001057600080fd5b50600436106101e1576000357c010000000000000000000000000000000000000000000000000000000090048063715018a611610116578063983b2d56116100b4578063a9059cbb1161008e578063a9059cbb14610502578063aa271e1a1461052e578063dd62ed3e14610554578063f2fde38b14610582576101e1565b8063983b2d56146104a857806398650275146104ce578063a457c2d7146104d6576101e1565b80638456cb59116100f05780638456cb591461046c5780638da5cb5b146104745780638f32d59b1461049857806395d89b41146104a0576101e1565b8063715018a61461041257806379cc67901461041a57806382dc1ec414610446576101e1565b80633f4ba83a1161018357806346fbf68e1161015d57806346fbf68e146103b65780635c975abb146103dc5780636ef8d66d146103e457806370a08231146103ec576101e1565b80633f4ba83a1461036557806340c10f191461036d57806342966c6814610399576101e1565b806323b872dd116101bf57806323b872dd146102bd5780633092afd5146102f3578063313ce5671461031b5780633950935114610339576101e1565b806306fdde03146101e6578063095ea7b31461026357806318160ddd146102a3575b600080fd5b6101ee6105a8565b6040805160208082528351818301528351919283929083019185019080838360005b83811015610228578181015183820152602001610210565b50505050905090810190601f1680156102555780820380516001836020036101000a031916815260200191505b509250505060405180910390f35b61028f6004803603604081101561027957600080fd5b50600160a060020a0381351690602001356105e1565b604080519115158252519081900360200190f35b6102ab610605565b60408051918252519081900360200190f35b61028f600480360360608110156102d357600080fd5b50600160a060020a0381358116916020810135909116906040013561060b565b6103196004803603602081101561030957600080fd5b5035600160a060020a0316610631565b005b61032361064e565b6040805160ff9092168252519081900360200190f35b61028f6004803603604081101561034f57600080fd5b50600160a060020a038135169060200135610653565b610319610670565b61028f6004803603604081101561038357600080fd5b50600160a060020a0381351690602001356106d0565b610319600480360360208110156103af57600080fd5b50356106f7565b61028f600480360360208110156103cc57600080fd5b5035600160a060020a0316610701565b61028f61071a565b610319610723565b6102ab6004803603602081101561040257600080fd5b5035600160a060020a031661072e565b610319610749565b6103196004803603604081101561043057600080fd5b50600160a060020a0381351690602001356107b1565b6103196004803603602081101561045c57600080fd5b5035600160a060020a03166107bf565b6103196107da565b61047c61083e565b60408051600160a060020a039092168252519081900360200190f35b61028f61084d565b6101ee61085e565b610319600480360360208110156104be57600080fd5b5035600160a060020a0316610897565b6103196108b1565b61028f600480360360408110156104ec57600080fd5b50600160a060020a0381351690602001356108ba565b61028f6004803603604081101561051857600080fd5b50600160a060020a0381351690602001356108d7565b61028f6004803603602081101561054457600080fd5b5035600160a060020a03166108f4565b6102ab6004803603604081101561056a57600080fd5b50600160a060020a0381358116916020013516610907565b6103196004803603602081101561059857600080fd5b5035600160a060020a0316610932565b6040518060400160405280601081526020017f426c61636b205465737420546f6b656e0000000000000000000000000000000081525081565b60045460009060ff16156105f457600080fd5b6105fe838361094c565b9392505050565b60025490565b60045460009060ff161561061e57600080fd5b610629848484610959565b949350505050565b61063961084d565b61064257600080fd5b61064b816109b0565b50565b600481565b60045460009060ff161561066657600080fd5b6105fe83836109f8565b61067933610701565b61068257600080fd5b60045460ff1661069157600080fd5b6004805460ff191690556040805133815290517f5db9ee0a495bf2e6ff9c91a7834c1ba4fdd244a5e8aa4e537bd38aeae4b073aa9181900360200190a1565b60006106db336108f4565b6106e457600080fd5b6106ee8383610a34565b50600192915050565b61064b3382610adc565b600061071460038363ffffffff610b8316565b92915050565b60045460ff1690565b61072c33610bb8565b565b600160a060020a031660009081526020819052604090205490565b61075161084d565b61075a57600080fd5b600654604051600091600160a060020a0316907f8be0079c531659141344cd1fd0a4f28419497f9722a3daafe3b4186f6b6457e0908390a36006805473ffffffffffffffffffffffffffffffffffffffff19169055565b6107bb8282610c00565b5050565b6107c833610701565b6107d157600080fd5b61064b81610c45565b6107e333610701565b6107ec57600080fd5b60045460ff16156107fc57600080fd5b6004805460ff191660011790556040805133815290517f62e78cea01bee320cd4e420270b5ea74000d11b0c9f74754ebdbfc544b05a2589181900360200190a1565b600654600160a060020a031690565b600654600160a060020a0316331490565b6040518060400160405280600581526020017f424c41434b00000000000000000000000000000000000000000000000000000081525081565b61089f61084d565b6108a857600080fd5b61064b81610c8d565b61072c336109b0565b60045460009060ff16156108cd57600080fd5b6105fe8383610cd5565b60045460009060ff16156108ea57600080fd5b6105fe8383610d11565b600061071460058363ffffffff610b8316565b600160a060020a03918216600090815260016020908152604080832093909416825291909152205490565b61093a61084d565b61094357600080fd5b61064b81610d1e565b60006106ee338484610d9a565b6000610966848484610e22565b600160a060020a0384166000908152600160209081526040808320338085529252909120546109a69186916109a1908663ffffffff610eed16565b610d9a565b5060019392505050565b6109c160058263ffffffff610f0216565b604051600160a060020a038216907fe94479a9f7e1952cc78f2d6baab678adc1b772d936c6583def489e524cb6669290600090a250565b336000818152600160209081526040808320600160a060020a038716845290915281205490916106ee9185906109a1908663ffffffff610f4a16565b600160a060020a038216610a4757600080fd5b600254610a5a908263ffffffff610f4a16565b600255600160a060020a038216600090815260208190526040902054610a86908263ffffffff610f4a16565b600160a060020a0383166000818152602081815260408083209490945583518581529351929391927fddf252ad1be2c89b69c2b068fc378daa952ba7f163c4a11628f55a4df523b3ef9281900390910190a35050565b600160a060020a038216610aef57600080fd5b600254610b02908263ffffffff610eed16565b600255600160a060020a038216600090815260208190526040902054610b2e908263ffffffff610eed16565b600160a060020a038316600081815260208181526040808320949094558351858152935191937fddf252ad1be2c89b69c2b068fc378daa952ba7f163c4a11628f55a4df523b3ef929081900390910190a35050565b6000600160a060020a038216610b9857600080fd5b50600160a060020a03166000908152602091909152604090205460ff1690565b610bc960038263ffffffff610f0216565b604051600160a060020a038216907fcd265ebaf09df2871cc7bd4133404a235ba12eff2041bb89d9c714a2621c7c7e90600090a250565b610c0a8282610adc565b600160a060020a0382166000908152600160209081526040808320338085529252909120546107bb9184916109a1908563ffffffff610eed16565b610c5660038263ffffffff610f5c16565b604051600160a060020a038216907f6719d08c1888103bea251a4ed56406bd0c3e69723c8a1686e017e7bbe159b6f890600090a250565b610c9e60058263ffffffff610f5c16565b604051600160a060020a038216907f6ae172837ea30b801fbfcdd4108aa1d5bf8ff775444fd70256b44e6bf3dfc3f690600090a250565b336000818152600160209081526040808320600160a060020a038716845290915281205490916106ee9185906109a1908663ffffffff610eed16565b60006106ee338484610e22565b600160a060020a038116610d3157600080fd5b600654604051600160a060020a038084169216907f8be0079c531659141344cd1fd0a4f28419497f9722a3daafe3b4186f6b6457e090600090a36006805473ffffffffffffffffffffffffffffffffffffffff1916600160a060020a0392909216919091179055565b600160a060020a038216610dad57600080fd5b600160a060020a038316610dc057600080fd5b600160a060020a03808416600081815260016020908152604080832094871680845294825291829020859055815185815291517f8c5be1e5ebec7d5bd14f71427d1e84f3dd0314c0f7b2291e5b200ac8c7c3b9259281900390910190a3505050565b600160a060020a038216610e3557600080fd5b600160a060020a038316600090815260208190526040902054610e5e908263ffffffff610eed16565b600160a060020a038085166000908152602081905260408082209390935590841681522054610e93908263ffffffff610f4a16565b600160a060020a038084166000818152602081815260409182902094909455805185815290519193928716927fddf252ad1be2c89b69c2b068fc378daa952ba7f163c4a11628f55a4df523b3ef92918290030190a3505050565b600082821115610efc57600080fd5b50900390565b600160a060020a038116610f1557600080fd5b610f1f8282610b83565b610f2857600080fd5b600160a060020a0316600090815260209190915260409020805460ff19169055565b6000828201838110156105fe57600080fd5b600160a060020a038116610f6f57600080fd5b610f798282610b83565b15610f8357600080fd5b600160a060020a0316600090815260209190915260409020805460ff1916600117905556fea265627a7a723158204e4961683fdb41a08f18061beaf2d5fb9a81653b65612e6585e679ad81f57cf764736f6c634300050c0032",
  "source": "pragma solidity ^0.5.2;\n\nimport './openzeppelin/token/ERC20/ERC20Pausable.sol';\nimport './openzeppelin/token/ERC20/ERC20Mintable.sol';\nimport './openzeppelin/token/ERC20/ERC20Burnable.sol';\nimport './openzeppelin/ownership/Ownable.sol';\n\ncontract Black is ERC20Pausable, ERC20Mintable, ERC20Burnable, Ownable {\n  \n  string public constant name = \"Black Test Token\";\n  string public constant symbol = \"BLACK\";\n  uint8 public constant decimals = 4; \n\n  \n  function removeMinter(address _minter) public onlyOwner {\n      _removeMinter(_minter);\n  }\n\n  function addMinter(address _minter) public onlyOwner {\n      _addMinter(_minter);\n  }\n\n}",
  "sourcePath": "/Users/achiko/Documents/elva/projects/compli.fi/complifi-DsProxy/contracts/Black.sol",
  "compiler": {
    "name": "solc",
    "version": "0.5.12+commit.7709ece9.Emscripten.clang"
  },
  "schemaVersion": "3.3.1",
  "updatedAt": "2020-11-07T17:14:27.623Z",
  "devdoc": {
    "methods": {
      "allowance(address,address)": {
        "details": "Function to check the amount of tokens that an owner allowed to a spender.",
        "params": {
          "owner": "address The address which owns the funds.",
          "spender": "address The address which will spend the funds."
        },
        "return": "A uint256 specifying the amount of tokens still available for the spender."
      },
      "balanceOf(address)": {
        "details": "Gets the balance of the specified address.",
        "params": {
          "owner": "The address to query the balance of."
        },
        "return": "A uint256 representing the amount owned by the passed address."
      },
      "burn(uint256)": {
        "details": "Burns a specific amount of tokens.",
        "params": {
          "value": "The amount of token to be burned."
        }
      },
      "burnFrom(address,uint256)": {
        "details": "Burns a specific amount of tokens from the target address and decrements allowance",
        "params": {
          "from": "address The account whose tokens will be burned.",
          "value": "uint256 The amount of token to be burned."
        }
      },
      "isOwner()": {
        "return": "true if `msg.sender` is the owner of the contract."
      },
      "mint(address,uint256)": {
        "details": "Function to mint tokens",
        "params": {
          "to": "The address that will receive the minted tokens.",
          "value": "The amount of tokens to mint."
        },
        "return": "A boolean that indicates if the operation was successful."
      },
      "owner()": {
        "return": "the address of the owner."
      },
      "pause()": {
        "details": "called by the owner to pause, triggers stopped state"
      },
      "paused()": {
        "return": "true if the contract is paused, false otherwise."
      },
      "renounceOwnership()": {
        "details": "Allows the current owner to relinquish control of the contract. It will not be possible to call the functions with the `onlyOwner` modifier anymore."
      },
      "totalSupply()": {
        "details": "Total number of tokens in existence"
      },
      "transferOwnership(address)": {
        "details": "Allows the current owner to transfer control of the contract to a newOwner.",
        "params": {
          "newOwner": "The address to transfer ownership to."
        }
      },
      "unpause()": {
        "details": "called by the owner to unpause, returns to normal state"
      }
    }
  },
  "userdoc": {
    "methods": {
      "renounceOwnership()": {
        "notice": "Renouncing ownership will leave the contract without an owner, thereby removing any functionality that is only available to the owner."
      }
    }
  }
}