{
  "contractName": "CallActions",
  "abi": [
    {
      "constant": false,
      "inputs": [
        {
          "internalType": "address",
          "name": "_vaultAddress",
          "type": "address"
        },
        {
          "internalType": "address",
          "name": "_collateralToken",
          "type": "address"
        },
        {
          "internalType": "uint256",
          "name": "_collateralAmount",
          "type": "uint256"
        }
      ],
      "name": "callMint",
      "outputs": [],
      "payable": false,
      "stateMutability": "nonpayable",
      "type": "function"
    }
  ],
  "bytecode": "0x608060405234801561001057600080fd5b5061073c806100206000396000f3fe608060405234801561001057600080fd5b506004361061002e5760e060020a6000350463ae3c16288114610033575b600080fd5b6100696004803603606081101561004957600080fd5b50600160a060020a0381358116916020810135909116906040013561006b565b005b6100736106cd565b6000839050600085905080600160a060020a03166391ac094c6040518163ffffffff1660e060020a028152600401602060405180830381600087803b1580156100bb57600080fd5b505af11580156100cf573d6000803e3d6000fd5b505050506040513d60208110156100e557600080fd5b5051600160a060020a039081168452604080517f94f973d60000000000000000000000000000000000000000000000000000000081529051918316916394f973d6916004808201926020929091908290030181600087803b15801561014957600080fd5b505af115801561015d573d6000803e3d6000fd5b505050506040513d602081101561017357600080fd5b5051600160a060020a03908116602085810191909152604080517f23b872dd000000000000000000000000000000000000000000000000000000008152336004820152306024820152604481018890529051928516926323b872dd926064808401939192918290030181600087803b1580156101ee57600080fd5b505af1158015610202573d6000803e3d6000fd5b505050506040513d602081101561021857600080fd5b505161028557604080517f08c379a000000000000000000000000000000000000000000000000000000000815260206004820152601360248201527f4552525f5452414e534645525f4641494c454400000000000000000000000000604482015290519081900360640190fd5b81600160a060020a031663095ea7b387866040518363ffffffff1660e060020a0281526004018083600160a060020a0316600160a060020a0316815260200182815260200192505050602060405180830381600087803b1580156102e857600080fd5b505af11580156102fc573d6000803e3d6000fd5b505050506040513d602081101561031257600080fd5b5050604080517fa0712d68000000000000000000000000000000000000000000000000000000008152600481018690529051600160a060020a0383169163a0712d6891602480830192600092919082900301818387803b15801561037557600080fd5b505af1158015610389573d6000803e3d6000fd5b50508451604080517f70a082310000000000000000000000000000000000000000000000000000000081523060048201529051600160a060020a0390921693506370a082319250602480820192602092909190829003018186803b1580156103f057600080fd5b505afa158015610404573d6000803e3d6000fd5b505050506040513d602081101561041a57600080fd5b505160408085019190915260208481015182517f70a082310000000000000000000000000000000000000000000000000000000081523060048201529251600160a060020a03909116926370a08231926024808301939192829003018186803b15801561048657600080fd5b505afa15801561049a573d6000803e3d6000fd5b505050506040513d60208110156104b057600080fd5b50516060840152825160408085015181517fa9059cbb00000000000000000000000000000000000000000000000000000000815233600482015260248101919091529051600160a060020a039092169163a9059cbb916044808201926020929091908290030181600087803b15801561052857600080fd5b505af115801561053c573d6000803e3d6000fd5b505050506040513d602081101561055257600080fd5b50516105bf57604080517f08c379a000000000000000000000000000000000000000000000000000000000815260206004820152601a60248201527f4552525f5452414e534645525f5052494d4152595f544f4b454e000000000000604482015290519081900360640190fd5b6020808401516060850151604080517fa9059cbb000000000000000000000000000000000000000000000000000000008152336004820152602481019290925251600160a060020a039092169263a9059cbb926044808401938290030181600087803b15801561062e57600080fd5b505af1158015610642573d6000803e3d6000fd5b505050506040513d602081101561065857600080fd5b50516106c557604080517f08c379a000000000000000000000000000000000000000000000000000000000815260206004820152601d60248201527f4552525f5452414e534645525f434f4d504c454d454e545f544f4b454e000000604482015290519081900360640190fd5b505050505050565b60405180608001604052806000600160a060020a031681526020016000600160a060020a031681526020016000815260200160008152509056fea265627a7a72315820443355ec7f60f855eb91ecf87cd2668aba7afcd82c3870ab68fad08745d4c79864736f6c634300050c0032",
  "source": "pragma solidity >=0.4.22 <0.8.0;\n\n// To Do : rename IIERC20 to IERC20\nimport \"./Interfaces/IERC20.sol\";\nimport \"./Interfaces/IVAULT.sol\";\n\ncontract CallActions {\n\n    struct Vars {\n        IERC20 primaryToken;\n        IERC20 complementToken;\n        uint256 primaryTokenBalance;\n        uint256 complementTokenBalance;\n    }\n\n\n    function callMint(\n        address _vaultAddress,\n        address _collateralToken,\n        uint256 _collateralAmount\n    ) public  {\n        \n        Vars memory vars;\n        \n        IERC20 token = IERC20(_collateralToken);\n        IVAULT vault = IVAULT(_vaultAddress);\n\n        vars.primaryToken = IERC20(vault.primaryToken());\n        vars.complementToken = IERC20(vault.complementToken());\n\n        // 1. Transfer collateral tokens from users wallet to ProxyContract\n        require(token.transferFrom(msg.sender, address(this), _collateralAmount), \"ERR_TRANSFER_FAILED\");\n\n        // 2. Approve collateral Tokens for Vault Contract\n        token.approve(_vaultAddress,_collateralAmount);\n\n        // 3. Call Vault Mint function\n        vault.mint(_collateralAmount);\n\n        vars.primaryTokenBalance = vars.primaryToken.balanceOf(address(this));\n        vars.complementTokenBalance = vars.complementToken.balanceOf(address(this));\n\n        // 4. Transfer Primary & Complement tokens to user wallet\n        require( vars.primaryToken.transfer(msg.sender,vars.primaryTokenBalance), \"ERR_TRANSFER_PRIMARY_TOKEN\");\n        require(vars.complementToken.transfer(msg.sender,vars.complementTokenBalance), \"ERR_TRANSFER_COMPLEMENT_TOKEN\");\n    }\n\n    // To Do Remove :\n    // DelegateCall version \n    // function callMintDelegate(\n    //     address _vaultAddress,\n    //     address _collateralToken,\n    //     uint256 _collateralAmount\n    // ) public returns (bool success) {\n    //     Vars memory vars;\n\n    //     vars.vaultAddress = _vaultAddress;\n    //     vars.collateralToken = _collateralToken;\n    //     vars.collateralAmount = _collateralAmount;\n    //     vars._sender = msg.sender;\n\n    //     vars.userBalance = IIERC20(_collateralToken).balanceOf(msg.sender);\n\n    //     // 1. Approve Tokens \n    //     // Delegate Call : forward origin msg.sender to the conllateral token \n    //     // ! DelegateCall cant change collateral token storage\n    //     (bool success, bytes memory data) = \n    //         _collateralToken.delegatecall(\n    //                 abi.encodeWithSignature(\"approve(address,uint256)\", _vaultAddress, _collateralAmount));\n\n    //     require(success, \"Approve Delegatecall failed !\");\n\n    //     vars._allowance = IIERC20(_collateralToken).allowance(\n    //         msg.sender,\n    //         _vaultAddress\n    //     );\n\n    //     require(vars._allowance != 0, \"Allowance == 0\");\n\n    //     // 2. Mint\n    //     IVAULT(_vaultAddress).mint(_collateralAmount);\n    //     success = vars.approveResponse;\n    // }\n\n}\n",
  "sourcePath": "/Users/achiko/Documents/elva/projects/compli.fi/complifi-DsProxy/contracts/CallActions.sol",
  "compiler": {
    "name": "solc",
    "version": "0.5.12+commit.7709ece9.Emscripten.clang"
  },
  "schemaVersion": "3.3.1",
  "updatedAt": "2020-12-03T10:18:06.602Z",
  "devdoc": {
    "methods": {}
  },
  "userdoc": {
    "methods": {}
  }
}