{
  "contractName": "CallActions",
  "abi": [
    {
      "constant": false,
      "inputs": [
        {
          "internalType": "address",
          "name": "_vaultAddress",
          "type": "address"
        },
        {
          "internalType": "address",
          "name": "_collateralToken",
          "type": "address"
        },
        {
          "internalType": "uint256",
          "name": "_collateralAmount",
          "type": "uint256"
        }
      ],
      "name": "callMint",
      "outputs": [
        {
          "internalType": "bool",
          "name": "success",
          "type": "bool"
        }
      ],
      "payable": false,
      "stateMutability": "nonpayable",
      "type": "function"
    }
  ],
  "bytecode": "0x608060405234801561001057600080fd5b506101d1806100206000396000f3fe608060405234801561001057600080fd5b5060043610610047577c01000000000000000000000000000000000000000000000000000000006000350463ae3c1628811461004c575b600080fd5b61008f6004803603606081101561006257600080fd5b5073ffffffffffffffffffffffffffffffffffffffff8135811691602081013590911690604001356100a3565b604080519115158252519081900360200190f35b60006100ad61018a565b8373ffffffffffffffffffffffffffffffffffffffff1663095ea7b386856040518363ffffffff167c0100000000000000000000000000000000000000000000000000000000028152600401808373ffffffffffffffffffffffffffffffffffffffff1673ffffffffffffffffffffffffffffffffffffffff16815260200182815260200192505050602060405180830381600087803b15801561015057600080fd5b505af1158015610164573d6000803e3d6000fd5b505050506040513d602081101561017a57600080fd5b5051151590525060019392505050565b6040805160208101909152600081529056fea265627a7a7231582088c38baddf7c304f9027a11da3c231c1e7069ab858a4909dd4bcedd38d03667064736f6c634300050c0032",
  "source": "pragma solidity >=0.4.22 <0.8.0;\n\nimport \"./Interfaces/IERC20.sol\";\nimport \"./Interfaces/IVAULT.sol\";\n\ncontract CallActions {\n    struct Vars {\n        bool approveResponse;\n    }\n\n    function callMint(\n        address _vaultAddress,\n        address _collateralToken,\n        uint256 _collateralAmount\n    ) public returns (bool success) {\n        Vars memory vars; //\n\n        // 1. Approve collateral to VaultContract\n        vars.approveResponse = IERC20(_collateralToken).approve(\n            _vaultAddress,\n            _collateralAmount\n        );\n\n        // 2. Mint\n        // IERC20(_collateralToken).approve(\n        success = true;\n    }\n}\n",
  "sourcePath": "/Users/achiko/Documents/elva/projects/compli.fi/complifi-DsProxy/contracts/CallActions.sol",
  "compiler": {
    "name": "solc",
    "version": "0.5.12+commit.7709ece9.Emscripten.clang"
  },
  "schemaVersion": "3.3.1",
  "updatedAt": "2020-11-05T18:20:13.253Z",
  "networkType": "ethereum",
  "devdoc": {
    "methods": {}
  },
  "userdoc": {
    "methods": {}
  }
}