{
  "contractName": "CallActions",
  "abi": [
    {
      "constant": false,
      "inputs": [
        {
          "internalType": "address",
          "name": "_vaultAddress",
          "type": "address"
        },
        {
          "internalType": "address",
          "name": "_collateralToken",
          "type": "address"
        },
        {
          "internalType": "uint256",
          "name": "_collateralAmount",
          "type": "uint256"
        }
      ],
      "name": "callMintDelegate",
      "outputs": [
        {
          "internalType": "bool",
          "name": "success",
          "type": "bool"
        }
      ],
      "payable": false,
      "stateMutability": "nonpayable",
      "type": "function"
    },
    {
      "constant": false,
      "inputs": [
        {
          "internalType": "address",
          "name": "_vaultAddress",
          "type": "address"
        },
        {
          "internalType": "address",
          "name": "_collateralToken",
          "type": "address"
        },
        {
          "internalType": "uint256",
          "name": "_collateralAmount",
          "type": "uint256"
        }
      ],
      "name": "callMint",
      "outputs": [
        {
          "internalType": "bool",
          "name": "success",
          "type": "bool"
        }
      ],
      "payable": false,
      "stateMutability": "nonpayable",
      "type": "function"
    }
  ],
  "bytecode": "0x608060405234801561001057600080fd5b50610735806100206000396000f3fe608060405234801561001057600080fd5b50600436106100395760e060020a6000350463ae3c1628811461003e578063b400acb614610088575b600080fd5b6100746004803603606081101561005457600080fd5b50600160a060020a038135811691602081013590911690604001356100be565b604080519115158252519081900360200190f35b6100746004803603606081101561009e57600080fd5b50600160a060020a038135811691602081013590911690604001356102de565b60006100c8610687565b604080517f095ea7b3000000000000000000000000000000000000000000000000000000008152600160a060020a038781166004830152602482018690529151869283169163095ea7b39160448083019260209291908290030181600087803b15801561013457600080fd5b505af1158015610148573d6000803e3d6000fd5b505050506040513d602081101561015e57600080fd5b505115156060830152604080517fdd62ed3e000000000000000000000000000000000000000000000000000000008152336004820152600160a060020a03888116602483015291519183169163dd62ed3e91604480820192602092909190829003018186803b1580156101d057600080fd5b505afa1580156101e4573d6000803e3d6000fd5b505050506040513d60208110156101fa57600080fd5b50516080830181905261026e57604080517f08c379a000000000000000000000000000000000000000000000000000000000815260206004820152600e60248201527f416c6c6f77616e6365203d3d2030000000000000000000000000000000000000604482015290519081900360640190fd5b85600160a060020a031663a0712d68856040518263ffffffff1660e060020a02815260040180828152602001915050600060405180830381600087803b1580156102b757600080fd5b505af11580156102cb573d6000803e3d6000fd5b5050506060909201519695505050505050565b60006102e8610687565b600160a060020a0380861682528416602080830182905260408084018690523360c0850181905281517f70a08231000000000000000000000000000000000000000000000000000000008152600481019190915290516370a0823192602480840193919291829003018186803b15801561036157600080fd5b505afa158015610375573d6000803e3d6000fd5b505050506040513d602081101561038b57600080fd5b505161012082015260408051600160a060020a038781166024830152604480830187905283518084039091018152606490920183526020820180517bffffffffffffffffffffffffffffffffffffffffffffffffffffffff167f095ea7b30000000000000000000000000000000000000000000000000000000017815292518251600094606094938a169392918291908083835b6020831061043e5780518252601f19909201916020918201910161041f565b6001836020036101000a038019825116818451168082178552505050505050905001915050600060405180830381855af49150503d806000811461049e576040519150601f19603f3d011682016040523d82523d6000602084013e6104a3565b606091505b50915091508161051457604080517f08c379a000000000000000000000000000000000000000000000000000000000815260206004820152601d60248201527f417070726f76652044656c656761746563616c6c206661696c65642021000000604482015290519081900360640190fd5b604080517fdd62ed3e000000000000000000000000000000000000000000000000000000008152336004820152600160a060020a03898116602483015291519188169163dd62ed3e91604480820192602092909190829003018186803b15801561057d57600080fd5b505afa158015610591573d6000803e3d6000fd5b505050506040513d60208110156105a757600080fd5b50516080840181905261061b57604080517f08c379a000000000000000000000000000000000000000000000000000000000815260206004820152600e60248201527f416c6c6f77616e6365203d3d2030000000000000000000000000000000000000604482015290519081900360640190fd5b86600160a060020a031663a0712d68866040518263ffffffff1660e060020a02815260040180828152602001915050600060405180830381600087803b15801561066457600080fd5b505af1158015610678573d6000803e3d6000fd5b50959998505050505050505050565b6040518061016001604052806000600160a060020a031681526020016000600160a060020a031681526020016000815260200160001515815260200160008152602001600081526020016000600160a060020a03168152602001600015158152602001600081526020016000815260200160008152509056fea265627a7a72315820cf1084114938d96ae7d91038c5c0226a541115e743ff267eec8c92bc050164fd64736f6c634300050c0032",
  "source": "pragma solidity >=0.4.22 <0.8.0;\n\n// To Do : rename IIERC20 to IERC20\nimport \"./Interfaces/IIERC20.sol\";\nimport \"./Interfaces/IVAULT.sol\";\n\ncontract CallActions {\n\n    // Vars Used For debugging purpose only , should be removed  \n    struct Vars {\n        address vaultAddress;\n        address collateralToken;\n        uint256 collateralAmount;\n        bool approveResponse;\n        uint256 _allowance;\n        uint256 _allowance1;\n        address _sender;\n        bool _break;\n        uint256 balance;\n        uint256 userBalance;\n        uint256 userBalanceAfter;\n    }\n\n    // DelegateCall version \n    function callMintDelegate(\n        address _vaultAddress,\n        address _collateralToken,\n        uint256 _collateralAmount\n    ) public returns (bool success) {\n        Vars memory vars;\n\n        vars.vaultAddress = _vaultAddress;\n        vars.collateralToken = _collateralToken;\n        vars.collateralAmount = _collateralAmount;\n        vars._sender = msg.sender;\n\n        vars.userBalance = IIERC20(_collateralToken).balanceOf(msg.sender);\n\n        // 1. Approve Tokens \n        // Delegate Call : forward origin msg.sender to the conllateral token \n        // ! DelegateCall cant change collateral token storage\n        (bool success, bytes memory data) = \n            _collateralToken.delegatecall(\n                    abi.encodeWithSignature(\"approve(address,uint256)\", _vaultAddress, _collateralAmount));\n\n        require(success, \"Approve Delegatecall failed !\");\n\n        vars._allowance = IIERC20(_collateralToken).allowance(\n            msg.sender,\n            _vaultAddress\n        );\n\n        require(vars._allowance != 0, \"Allowance == 0\");\n\n        // 2. Mint\n        IVAULT(_vaultAddress).mint(_collateralAmount);\n        success = vars.approveResponse;\n    }\n\n\n    // Standard version \n    function callMint(\n        address _vaultAddress,\n        address _collateralToken,\n        uint256 _collateralAmount\n    ) public returns (bool success) {\n        \n        Vars memory vars;\n        \n        IIERC20 collateral = IIERC20(_collateralToken);\n\n        // 1. Approve \n        // !sender is not ms.sender its the contract address address(this)\n        vars.approveResponse = collateral.approve(\n            _vaultAddress,\n            _collateralAmount\n        );\n        \n        vars._allowance = collateral.allowance(\n            msg.sender,\n            _vaultAddress\n        );\n\n        require(vars._allowance != 0, \"Allowance == 0\");\n\n        // 2. Call mint finction in Valut Contract\n        IVAULT(_vaultAddress).mint(_collateralAmount);\n        success = vars.approveResponse;\n    }\n}\n",
  "sourcePath": "/Users/achiko/Documents/elva/projects/compli.fi/complifi-DsProxy/contracts/CallActions.sol",
  "compiler": {
    "name": "solc",
    "version": "0.5.12+commit.7709ece9.Emscripten.clang"
  },
  "schemaVersion": "3.3.1",
  "updatedAt": "2020-11-07T17:14:27.630Z",
  "devdoc": {
    "methods": {}
  },
  "userdoc": {
    "methods": {}
  }
}