{
  "contractName": "CallActions",
  "abi": [
    {
      "constant": false,
      "inputs": [
        {
          "internalType": "uint256",
          "name": "_tokenAmount",
          "type": "uint256"
        },
        {
          "internalType": "address",
          "name": "_vault",
          "type": "address"
        }
      ],
      "name": "callRefund",
      "outputs": [],
      "payable": false,
      "stateMutability": "nonpayable",
      "type": "function"
    },
    {
      "constant": false,
      "inputs": [
        {
          "internalType": "address",
          "name": "_vault",
          "type": "address"
        },
        {
          "internalType": "address",
          "name": "_collateral",
          "type": "address"
        },
        {
          "internalType": "uint256",
          "name": "_tokenAmount",
          "type": "uint256"
        }
      ],
      "name": "callMint",
      "outputs": [],
      "payable": false,
      "stateMutability": "nonpayable",
      "type": "function"
    }
  ],
  "bytecode": "0x608060405234801561001057600080fd5b50610bd1806100206000396000f3fe608060405234801561001057600080fd5b50600436106100395760e060020a6000350463ae3c1628811461003e578063d5cbc41f14610076575b600080fd5b6100746004803603606081101561005457600080fd5b50600160a060020a038135811691602081013590911690604001356100a2565b005b6100746004803603604081101561008c57600080fd5b5080359060200135600160a060020a03166106bf565b6100aa610b62565b6000839050600085905080600160a060020a03166391ac094c6040518163ffffffff1660e060020a028152600401602060405180830381600087803b1580156100f257600080fd5b505af1158015610106573d6000803e3d6000fd5b505050506040513d602081101561011c57600080fd5b5051600160a060020a039081168452604080517f94f973d60000000000000000000000000000000000000000000000000000000081529051918316916394f973d6916004808201926020929091908290030181600087803b15801561018057600080fd5b505af1158015610194573d6000803e3d6000fd5b505050506040513d60208110156101aa57600080fd5b5051600160a060020a03908116602085810191909152604080517f23b872dd000000000000000000000000000000000000000000000000000000008152336004820152306024820152604481018890529051928516926323b872dd926064808401939192918290030181600087803b15801561022557600080fd5b505af1158015610239573d6000803e3d6000fd5b505050506040513d602081101561024f57600080fd5b50516102a5576040805160e560020a62461bcd02815260206004820152601360248201527f4552525f5452414e534645525f4641494c454400000000000000000000000000604482015290519081900360640190fd5b81600160a060020a031663095ea7b387866040518363ffffffff1660e060020a0281526004018083600160a060020a0316600160a060020a0316815260200182815260200192505050602060405180830381600087803b15801561030857600080fd5b505af115801561031c573d6000803e3d6000fd5b505050506040513d602081101561033257600080fd5b5050604080517fa0712d68000000000000000000000000000000000000000000000000000000008152600481018690529051600160a060020a0383169163a0712d6891602480830192600092919082900301818387803b15801561039557600080fd5b505af11580156103a9573d6000803e3d6000fd5b50508451604080517f70a082310000000000000000000000000000000000000000000000000000000081523060048201529051600160a060020a0390921693506370a082319250602480820192602092909190829003018186803b15801561041057600080fd5b505afa158015610424573d6000803e3d6000fd5b505050506040513d602081101561043a57600080fd5b505160408085019190915260208481015182517f70a082310000000000000000000000000000000000000000000000000000000081523060048201529251600160a060020a03909116926370a08231926024808301939192829003018186803b1580156104a657600080fd5b505afa1580156104ba573d6000803e3d6000fd5b505050506040513d60208110156104d057600080fd5b50516060840152825160408085015181517fa9059cbb00000000000000000000000000000000000000000000000000000000815233600482015260248101919091529051600160a060020a039092169163a9059cbb916044808201926020929091908290030181600087803b15801561054857600080fd5b505af115801561055c573d6000803e3d6000fd5b505050506040513d602081101561057257600080fd5b50516105c8576040805160e560020a62461bcd02815260206004820152601a60248201527f4552525f5452414e534645525f5052494d4152595f544f4b454e000000000000604482015290519081900360640190fd5b6020808401516060850151604080517fa9059cbb000000000000000000000000000000000000000000000000000000008152336004820152602481019290925251600160a060020a039092169263a9059cbb926044808401938290030181600087803b15801561063757600080fd5b505af115801561064b573d6000803e3d6000fd5b505050506040513d602081101561066157600080fd5b50516106b7576040805160e560020a62461bcd02815260206004820152601d60248201527f4552525f5452414e534645525f434f4d504c454d454e545f544f4b454e000000604482015290519081900360640190fd5b505050505050565b6106c7610b62565b600082905080600160a060020a03166391ac094c6040518163ffffffff1660e060020a028152600401602060405180830381600087803b15801561070a57600080fd5b505af115801561071e573d6000803e3d6000fd5b505050506040513d602081101561073457600080fd5b5051600160a060020a039081168352604080517f94f973d60000000000000000000000000000000000000000000000000000000081529051918316916394f973d6916004808201926020929091908290030181600087803b15801561079857600080fd5b505af11580156107ac573d6000803e3d6000fd5b505050506040513d60208110156107c257600080fd5b5051600160a060020a039081166020848101919091528351604080517f23b872dd00000000000000000000000000000000000000000000000000000000815233600482015230602482015260448101899052905191909316926323b872dd9260648083019391928290030181600087803b15801561083f57600080fd5b505af1158015610853573d6000803e3d6000fd5b505050506040513d602081101561086957600080fd5b50516108bf576040805160e560020a62461bcd02815260206004820152601360248201527f4552525f5452414e534645525f4641494c454400000000000000000000000000604482015290519081900360640190fd5b602080830151604080517f23b872dd000000000000000000000000000000000000000000000000000000008152336004820152306024820152604481018890529051600160a060020a03909216926323b872dd926064808401938290030181600087803b15801561092f57600080fd5b505af1158015610943573d6000803e3d6000fd5b505050506040513d602081101561095957600080fd5b50516109af576040805160e560020a62461bcd02815260206004820152601360248201527f4552525f5452414e534645525f4641494c454400000000000000000000000000604482015290519081900360640190fd5b8151604080517f095ea7b3000000000000000000000000000000000000000000000000000000008152600160a060020a038681166004830152602482018890529151919092169163095ea7b39160448083019260209291908290030181600087803b158015610a1d57600080fd5b505af1158015610a31573d6000803e3d6000fd5b505050506040513d6020811015610a4757600080fd5b5050602082810151604080517f095ea7b3000000000000000000000000000000000000000000000000000000008152600160a060020a038781166004830152602482018990529151919092169263095ea7b392604480820193918290030181600087803b158015610ab757600080fd5b505af1158015610acb573d6000803e3d6000fd5b505050506040513d6020811015610ae157600080fd5b5050604080517f278ecde1000000000000000000000000000000000000000000000000000000008152600481018690529051600160a060020a0383169163278ecde191602480830192600092919082900301818387803b158015610b4457600080fd5b505af1158015610b58573d6000803e3d6000fd5b5050505050505050565b60405180608001604052806000600160a060020a031681526020016000600160a060020a031681526020016000815260200160008152509056fea265627a7a723158208e5e0acbea31c215bfb147ecd8763489945846aeb1eb4f82de41ee69ba1d957464736f6c634300050c0032",
  "source": "pragma solidity >=0.4.22 <0.8.0;\n\nimport \"./Interfaces/IERC20.sol\";\nimport \"./Interfaces/IVAULT.sol\";\n\ncontract CallActions {\n\n    struct Vars {\n        IERC20 primaryToken;\n        IERC20 complementToken;\n        uint256 primaryTokenBalance;\n        uint256 complementTokenBalance;\n    }\n\n    function callRefund(uint256 _tokenAmount, address _vault) public {\n        Vars memory vars;\n        IVAULT vault = IVAULT(_vault);\n\n        // 1. Get Primary & ComplementTokens from Vault contract\n        vars.primaryToken = IERC20(vault.primaryToken());\n        vars.complementToken = IERC20(vault.complementToken());\n\n        // 2.Execute TransferFrom users wallet to ProxyContract\n\n        // Transfer primary Token\n        require(vars.primaryToken.transferFrom(msg.sender, address(this), _tokenAmount), \"ERR_TRANSFER_FAILED\");\n        require(vars.complementToken.transferFrom(msg.sender, address(this), _tokenAmount), \"ERR_TRANSFER_FAILED\");\n\n        vars.primaryToken.approve(_vault, _tokenAmount);\n        vars.complementToken.approve(_vault, _tokenAmount);\n\n        // 3.Execute Refund\n        vault.refund(_tokenAmount);\n\n        // 4.Transfer Tokens Back to wallet\n    }\n\n    function callMint(\n        address _vault,\n        address _collateral,\n        uint256 _tokenAmount\n    ) public {\n        \n        Vars memory vars;\n        \n        IERC20 token = IERC20(_collateral);\n        IVAULT vault = IVAULT(_vault);\n\n        vars.primaryToken = IERC20(vault.primaryToken());\n        vars.complementToken = IERC20(vault.complementToken());\n\n        // 1. Transfer collateral tokens from users wallet to ProxyContract\n        require(token.transferFrom(msg.sender, address(this), _tokenAmount), \"ERR_TRANSFER_FAILED\");\n\n        // 2. Approve collateral Tokens for Vault Contract\n        token.approve(_vault, _tokenAmount);\n\n        // 3. Call Vault Mint function\n        vault.mint(_tokenAmount);\n\n        vars.primaryTokenBalance = vars.primaryToken.balanceOf(address(this));\n        vars.complementTokenBalance = vars.complementToken.balanceOf(address(this));\n\n        // 4. Transfer Minted Primary & Complement tokens to user wallet\n        require(vars.primaryToken.transfer(msg.sender,vars.primaryTokenBalance), \"ERR_TRANSFER_PRIMARY_TOKEN\");\n        require(vars.complementToken.transfer(msg.sender,vars.complementTokenBalance), \"ERR_TRANSFER_COMPLEMENT_TOKEN\");\n    }\n}\n",
  "sourcePath": "/Users/achiko/Documents/elva/projects/compli.fi/complifi-DsProxy/contracts/CallActions.sol",
  "compiler": {
    "name": "solc",
    "version": "0.5.12+commit.7709ece9.Emscripten.clang"
  },
  "schemaVersion": "3.3.1",
  "updatedAt": "2020-12-07T19:15:06.517Z",
  "devdoc": {
    "methods": {}
  },
  "userdoc": {
    "methods": {}
  }
}