{
  "contractName": "TokenTimelock",
  "abi": [
    {
      "inputs": [
        {
          "internalType": "contract IERC20",
          "name": "token",
          "type": "address"
        },
        {
          "internalType": "address",
          "name": "beneficiary",
          "type": "address"
        },
        {
          "internalType": "uint256",
          "name": "releaseTime",
          "type": "uint256"
        }
      ],
      "payable": false,
      "stateMutability": "nonpayable",
      "type": "constructor"
    },
    {
      "constant": true,
      "inputs": [],
      "name": "token",
      "outputs": [
        {
          "internalType": "contract IERC20",
          "name": "",
          "type": "address"
        }
      ],
      "payable": false,
      "stateMutability": "view",
      "type": "function"
    },
    {
      "constant": true,
      "inputs": [],
      "name": "beneficiary",
      "outputs": [
        {
          "internalType": "address",
          "name": "",
          "type": "address"
        }
      ],
      "payable": false,
      "stateMutability": "view",
      "type": "function"
    },
    {
      "constant": true,
      "inputs": [],
      "name": "releaseTime",
      "outputs": [
        {
          "internalType": "uint256",
          "name": "",
          "type": "uint256"
        }
      ],
      "payable": false,
      "stateMutability": "view",
      "type": "function"
    },
    {
      "constant": false,
      "inputs": [],
      "name": "release",
      "outputs": [],
      "payable": false,
      "stateMutability": "nonpayable",
      "type": "function"
    }
  ],
  "bytecode": "0x608060405234801561001057600080fd5b506040516104013803806104018339818101604052606081101561003357600080fd5b508051602082015160409092015190919042811161005057600080fd5b60008054600160a060020a03948516600160a060020a031991821617909155600180549390941692169190911790915560025561036f806100926000396000f3fe608060405234801561001057600080fd5b5060043610610068577c0100000000000000000000000000000000000000000000000000000000600035046338af3eed811461006d57806386d1a69f14610091578063b91d40011461009b578063fc0c546a146100b5575b600080fd5b6100756100bd565b60408051600160a060020a039092168252519081900360200190f35b6100996100cc565b005b6100a361019e565b60408051918252519081900360200190f35b6100756101a4565b600154600160a060020a031690565b6002544210156100db57600080fd5b60008054604080517f70a082310000000000000000000000000000000000000000000000000000000081523060048201529051600160a060020a03909216916370a0823191602480820192602092909190829003018186803b15801561014057600080fd5b505afa158015610154573d6000803e3d6000fd5b505050506040513d602081101561016a57600080fd5b505190508061017857600080fd5b60015460005461019b91600160a060020a0391821691168363ffffffff6101b316565b50565b60025490565b600054600160a060020a031690565b60408051600160a060020a038416602482015260448082018490528251808303909101815260649091019091526020810180517bffffffffffffffffffffffffffffffffffffffffffffffffffffffff167fa9059cbb00000000000000000000000000000000000000000000000000000000179052610233908490610238565b505050565b61024a82600160a060020a0316610334565b61025357600080fd5b6000606083600160a060020a0316836040518082805190602001908083835b602083106102915780518252601f199092019160209182019101610272565b6001836020036101000a0380198251168184511680821785525050505050509050019150506000604051808303816000865af19150503d80600081146102f3576040519150601f19603f3d011682016040523d82523d6000602084013e6102f8565b606091505b50915091508161030757600080fd5b80511561032e5780806020019051602081101561032357600080fd5b505161032e57600080fd5b50505050565b3b15159056fea265627a7a72315820263318a023dfca2c18518e535e6a9960482b60b9ae121e588ab374c69d8f0d7d64736f6c634300050c0032",
  "source": "pragma solidity ^0.5.2;\n\nimport \"./SafeERC20.sol\";\n\n/**\n * @title TokenTimelock\n * @dev TokenTimelock is a token holder contract that will allow a\n * beneficiary to extract the tokens after a given release time\n */\ncontract TokenTimelock {\n    using SafeERC20 for IERC20;\n\n    // ERC20 basic token contract being held\n    IERC20 private _token;\n\n    // beneficiary of tokens after they are released\n    address private _beneficiary;\n\n    // timestamp when token release is enabled\n    uint256 private _releaseTime;\n\n    constructor (IERC20 token, address beneficiary, uint256 releaseTime) public {\n        // solhint-disable-next-line not-rely-on-time\n        require(releaseTime > block.timestamp);\n        _token = token;\n        _beneficiary = beneficiary;\n        _releaseTime = releaseTime;\n    }\n\n    /**\n     * @return the token being held.\n     */\n    function token() public view returns (IERC20) {\n        return _token;\n    }\n\n    /**\n     * @return the beneficiary of the tokens.\n     */\n    function beneficiary() public view returns (address) {\n        return _beneficiary;\n    }\n\n    /**\n     * @return the time when the tokens are released.\n     */\n    function releaseTime() public view returns (uint256) {\n        return _releaseTime;\n    }\n\n    /**\n     * @notice Transfers tokens held by timelock to beneficiary.\n     */\n    function release() public {\n        // solhint-disable-next-line not-rely-on-time\n        require(block.timestamp >= _releaseTime);\n\n        uint256 amount = _token.balanceOf(address(this));\n        require(amount > 0);\n\n        _token.safeTransfer(_beneficiary, amount);\n    }\n}\n",
  "sourcePath": "/Users/achiko/Documents/elva/projects/compli.fi/complifi-DsProxy/contracts/openzeppelin/token/ERC20/TokenTimelock.sol",
  "compiler": {
    "name": "solc",
    "version": "0.5.12+commit.7709ece9.Emscripten.clang"
  },
  "schemaVersion": "3.3.1",
  "updatedAt": "2020-11-07T17:14:27.701Z",
  "devdoc": {
    "details": "TokenTimelock is a token holder contract that will allow a beneficiary to extract the tokens after a given release time",
    "methods": {
      "beneficiary()": {
        "return": "the beneficiary of the tokens."
      },
      "releaseTime()": {
        "return": "the time when the tokens are released."
      },
      "token()": {
        "return": "the token being held."
      }
    },
    "title": "TokenTimelock"
  },
  "userdoc": {
    "methods": {
      "release()": {
        "notice": "Transfers tokens held by timelock to beneficiary."
      }
    }
  }
}